{
  "address": "0x42590f2Da1cA8d3bF43b5C330efeF578d4A51963",
  "abi": [
    {
      "anonymous": false,
      "inputs": [
        {
          "indexed": false,
          "internalType": "address",
          "name": "token",
          "type": "address"
        },
        {
          "indexed": false,
          "internalType": "uint256",
          "name": "tokenAmount",
          "type": "uint256"
        },
        {
          "indexed": false,
          "internalType": "uint256",
          "name": "vtokenAmount",
          "type": "uint256"
        }
      ],
      "name": "MessageReceived",
      "type": "event"
    },
    {
      "anonymous": false,
      "inputs": [
        {
          "components": [
            {
              "components": [
                {
                  "internalType": "bytes",
                  "name": "source",
                  "type": "bytes"
                },
                {
                  "internalType": "bytes",
                  "name": "dest",
                  "type": "bytes"
                },
                {
                  "internalType": "uint64",
                  "name": "nonce",
                  "type": "uint64"
                },
                {
                  "internalType": "bytes",
                  "name": "from",
                  "type": "bytes"
                },
                {
                  "internalType": "bytes",
                  "name": "to",
                  "type": "bytes"
                },
                {
                  "internalType": "uint64",
                  "name": "timeoutTimestamp",
                  "type": "uint64"
                },
                {
                  "internalType": "bytes",
                  "name": "body",
                  "type": "bytes"
                }
              ],
              "internalType": "struct PostRequest",
              "name": "request",
              "type": "tuple"
            },
            {
              "internalType": "bytes",
              "name": "response",
              "type": "bytes"
            },
            {
              "internalType": "uint64",
              "name": "timeoutTimestamp",
              "type": "uint64"
            }
          ],
          "indexed": false,
          "internalType": "struct PostResponse",
          "name": "response",
          "type": "tuple"
        }
      ],
      "name": "PostReceived",
      "type": "event"
    },
    {
      "anonymous": false,
      "inputs": [
        {
          "components": [
            {
              "internalType": "bytes",
              "name": "source",
              "type": "bytes"
            },
            {
              "internalType": "bytes",
              "name": "dest",
              "type": "bytes"
            },
            {
              "internalType": "uint64",
              "name": "nonce",
              "type": "uint64"
            },
            {
              "internalType": "bytes",
              "name": "from",
              "type": "bytes"
            },
            {
              "internalType": "bytes",
              "name": "to",
              "type": "bytes"
            },
            {
              "internalType": "uint64",
              "name": "timeoutTimestamp",
              "type": "uint64"
            },
            {
              "internalType": "bytes",
              "name": "body",
              "type": "bytes"
            }
          ],
          "indexed": false,
          "internalType": "struct PostRequest",
          "name": "request",
          "type": "tuple"
        }
      ],
      "name": "onAcceptTest",
      "type": "event"
    },
    {
      "anonymous": false,
      "inputs": [
        {
          "indexed": false,
          "internalType": "string",
          "name": "body",
          "type": "string"
        }
      ],
      "name": "onAcceptTest1",
      "type": "event"
    },
    {
      "inputs": [],
      "name": "getPrice",
      "outputs": [
        {
          "internalType": "uint256",
          "name": "",
          "type": "uint256"
        }
      ],
      "stateMutability": "view",
      "type": "function"
    },
    {
      "inputs": [
        {
          "components": [
            {
              "components": [
                {
                  "internalType": "bytes",
                  "name": "source",
                  "type": "bytes"
                },
                {
                  "internalType": "bytes",
                  "name": "dest",
                  "type": "bytes"
                },
                {
                  "internalType": "uint64",
                  "name": "nonce",
                  "type": "uint64"
                },
                {
                  "internalType": "bytes",
                  "name": "from",
                  "type": "bytes"
                },
                {
                  "internalType": "bytes",
                  "name": "to",
                  "type": "bytes"
                },
                {
                  "internalType": "uint64",
                  "name": "timeoutTimestamp",
                  "type": "uint64"
                },
                {
                  "internalType": "bytes",
                  "name": "body",
                  "type": "bytes"
                }
              ],
              "internalType": "struct PostRequest",
              "name": "request",
              "type": "tuple"
            },
            {
              "internalType": "address",
              "name": "relayer",
              "type": "address"
            }
          ],
          "internalType": "struct IncomingPostRequest",
          "name": "incoming",
          "type": "tuple"
        }
      ],
      "name": "onAccept",
      "outputs": [],
      "stateMutability": "nonpayable",
      "type": "function"
    },
    {
      "inputs": [
        {
          "components": [
            {
              "components": [
                {
                  "components": [
                    {
                      "internalType": "bytes",
                      "name": "source",
                      "type": "bytes"
                    },
                    {
                      "internalType": "bytes",
                      "name": "dest",
                      "type": "bytes"
                    },
                    {
                      "internalType": "uint64",
                      "name": "nonce",
                      "type": "uint64"
                    },
                    {
                      "internalType": "address",
                      "name": "from",
                      "type": "address"
                    },
                    {
                      "internalType": "uint64",
                      "name": "timeoutTimestamp",
                      "type": "uint64"
                    },
                    {
                      "internalType": "bytes[]",
                      "name": "keys",
                      "type": "bytes[]"
                    },
                    {
                      "internalType": "uint64",
                      "name": "height",
                      "type": "uint64"
                    },
                    {
                      "internalType": "bytes",
                      "name": "context",
                      "type": "bytes"
                    }
                  ],
                  "internalType": "struct GetRequest",
                  "name": "request",
                  "type": "tuple"
                },
                {
                  "components": [
                    {
                      "internalType": "bytes",
                      "name": "key",
                      "type": "bytes"
                    },
                    {
                      "internalType": "bytes",
                      "name": "value",
                      "type": "bytes"
                    }
                  ],
                  "internalType": "struct StorageValue[]",
                  "name": "values",
                  "type": "tuple[]"
                }
              ],
              "internalType": "struct GetResponse",
              "name": "response",
              "type": "tuple"
            },
            {
              "internalType": "address",
              "name": "relayer",
              "type": "address"
            }
          ],
          "internalType": "struct IncomingGetResponse",
          "name": "",
          "type": "tuple"
        }
      ],
      "name": "onGetResponse",
      "outputs": [],
      "stateMutability": "nonpayable",
      "type": "function"
    },
    {
      "inputs": [
        {
          "components": [
            {
              "internalType": "bytes",
              "name": "source",
              "type": "bytes"
            },
            {
              "internalType": "bytes",
              "name": "dest",
              "type": "bytes"
            },
            {
              "internalType": "uint64",
              "name": "nonce",
              "type": "uint64"
            },
            {
              "internalType": "address",
              "name": "from",
              "type": "address"
            },
            {
              "internalType": "uint64",
              "name": "timeoutTimestamp",
              "type": "uint64"
            },
            {
              "internalType": "bytes[]",
              "name": "keys",
              "type": "bytes[]"
            },
            {
              "internalType": "uint64",
              "name": "height",
              "type": "uint64"
            },
            {
              "internalType": "bytes",
              "name": "context",
              "type": "bytes"
            }
          ],
          "internalType": "struct GetRequest",
          "name": "",
          "type": "tuple"
        }
      ],
      "name": "onGetTimeout",
      "outputs": [],
      "stateMutability": "nonpayable",
      "type": "function"
    },
    {
      "inputs": [
        {
          "components": [
            {
              "internalType": "bytes",
              "name": "source",
              "type": "bytes"
            },
            {
              "internalType": "bytes",
              "name": "dest",
              "type": "bytes"
            },
            {
              "internalType": "uint64",
              "name": "nonce",
              "type": "uint64"
            },
            {
              "internalType": "bytes",
              "name": "from",
              "type": "bytes"
            },
            {
              "internalType": "bytes",
              "name": "to",
              "type": "bytes"
            },
            {
              "internalType": "uint64",
              "name": "timeoutTimestamp",
              "type": "uint64"
            },
            {
              "internalType": "bytes",
              "name": "body",
              "type": "bytes"
            }
          ],
          "internalType": "struct PostRequest",
          "name": "",
          "type": "tuple"
        }
      ],
      "name": "onPostRequestTimeout",
      "outputs": [],
      "stateMutability": "nonpayable",
      "type": "function"
    },
    {
      "inputs": [
        {
          "components": [
            {
              "components": [
                {
                  "components": [
                    {
                      "internalType": "bytes",
                      "name": "source",
                      "type": "bytes"
                    },
                    {
                      "internalType": "bytes",
                      "name": "dest",
                      "type": "bytes"
                    },
                    {
                      "internalType": "uint64",
                      "name": "nonce",
                      "type": "uint64"
                    },
                    {
                      "internalType": "bytes",
                      "name": "from",
                      "type": "bytes"
                    },
                    {
                      "internalType": "bytes",
                      "name": "to",
                      "type": "bytes"
                    },
                    {
                      "internalType": "uint64",
                      "name": "timeoutTimestamp",
                      "type": "uint64"
                    },
                    {
                      "internalType": "bytes",
                      "name": "body",
                      "type": "bytes"
                    }
                  ],
                  "internalType": "struct PostRequest",
                  "name": "request",
                  "type": "tuple"
                },
                {
                  "internalType": "bytes",
                  "name": "response",
                  "type": "bytes"
                },
                {
                  "internalType": "uint64",
                  "name": "timeoutTimestamp",
                  "type": "uint64"
                }
              ],
              "internalType": "struct PostResponse",
              "name": "response",
              "type": "tuple"
            },
            {
              "internalType": "address",
              "name": "relayer",
              "type": "address"
            }
          ],
          "internalType": "struct IncomingPostResponse",
          "name": "incoming",
          "type": "tuple"
        }
      ],
      "name": "onPostResponse",
      "outputs": [],
      "stateMutability": "nonpayable",
      "type": "function"
    },
    {
      "inputs": [
        {
          "components": [
            {
              "components": [
                {
                  "internalType": "bytes",
                  "name": "source",
                  "type": "bytes"
                },
                {
                  "internalType": "bytes",
                  "name": "dest",
                  "type": "bytes"
                },
                {
                  "internalType": "uint64",
                  "name": "nonce",
                  "type": "uint64"
                },
                {
                  "internalType": "bytes",
                  "name": "from",
                  "type": "bytes"
                },
                {
                  "internalType": "bytes",
                  "name": "to",
                  "type": "bytes"
                },
                {
                  "internalType": "uint64",
                  "name": "timeoutTimestamp",
                  "type": "uint64"
                },
                {
                  "internalType": "bytes",
                  "name": "body",
                  "type": "bytes"
                }
              ],
              "internalType": "struct PostRequest",
              "name": "request",
              "type": "tuple"
            },
            {
              "internalType": "bytes",
              "name": "response",
              "type": "bytes"
            },
            {
              "internalType": "uint64",
              "name": "timeoutTimestamp",
              "type": "uint64"
            }
          ],
          "internalType": "struct PostResponse",
          "name": "",
          "type": "tuple"
        }
      ],
      "name": "onPostResponseTimeout",
      "outputs": [],
      "stateMutability": "nonpayable",
      "type": "function"
    }
  ],
  "transactionHash": "0x5378b683a37c9218d4998efce4ac6053db1b3a559e8a259be2d4bbff8a556be7",
  "args": [],
  "numDeployments": 3,
  "solcInputHash": "cf356579dd92f32722490a8522df8415",
  "bytecode": "0x608060405234801561001057600080fd5b50610b8d806100206000396000f3fe608060405234801561001057600080fd5b506004361061007d5760003560e01c806398d5fdca1161005b57806398d5fdca146100b8578063b2a01bf5146100cd578063bc0dd447146100e0578063d0fff366146100ee57600080fd5b80630bc37bab146100825780630fee32ce1461009757806344ab20f8146100aa575b600080fd5b6100956100903660046104c7565b6100fc565b005b6100956100a5366004610526565b61013a565b610095610090366004610758565b6103e860405190815260200160405180910390f35b6100956100db366004610900565b6101b5565b610095610090366004610960565b610095610090366004610994565b60405162461bcd60e51b815260206004820152600f60248201526e139bdd081a5b5c1b195b595b9d1959608a1b604482015260640160405180910390fd5b805160c0015180516000908190819061015c90850160209081019086016109c8565b604080516001600160a01b03851681526020810184905290810182905292955090935091507fa0710dea945adf87839bda230ecbb319aa3ed42ea2c02ae9dd696b4dc3d5762e9060600160405180910390a15050505050565b80516040517f8c2538167bc23dea378897a0739fde7e81fc423bfc4e8ffa86d9e07b66fd93d9916101e591610a45565b60405180910390a150565b634e487b7160e01b600052604160045260246000fd5b60405160e081016001600160401b0381118282101715610228576102286101f0565b60405290565b604080519081016001600160401b0381118282101715610228576102286101f0565b60405161010081016001600160401b0381118282101715610228576102286101f0565b604051601f8201601f191681016001600160401b038111828210171561029b5761029b6101f0565b604052919050565b600082601f8301126102b457600080fd5b81356001600160401b038111156102cd576102cd6101f0565b6102e0601f8201601f1916602001610273565b8181528460208386010111156102f557600080fd5b816020850160208301376000918101602001919091529392505050565b80356001600160401b038116811461032957600080fd5b919050565b600060e0828403121561034057600080fd5b610348610206565b905081356001600160401b038082111561036157600080fd5b61036d858386016102a3565b8352602084013591508082111561038357600080fd5b61038f858386016102a3565b60208401526103a060408501610312565b604084015260608401359150808211156103b957600080fd5b6103c5858386016102a3565b606084015260808401359150808211156103de57600080fd5b6103ea858386016102a3565b60808401526103fb60a08501610312565b60a084015260c084013591508082111561041457600080fd5b50610421848285016102a3565b60c08301525092915050565b60006060828403121561043f57600080fd5b604051606081016001600160401b038282108183111715610462576104626101f0565b81604052829350843591508082111561047a57600080fd5b6104868683870161032e565b8352602085013591508082111561049c57600080fd5b506104a9858286016102a3565b6020830152506104bb60408401610312565b60408201525092915050565b6000602082840312156104d957600080fd5b81356001600160401b038111156104ef57600080fd5b6104fb8482850161042d565b949350505050565b6001600160a01b038116811461051857600080fd5b50565b803561032981610503565b60006020828403121561053857600080fd5b81356001600160401b038082111561054f57600080fd5b908301906040828603121561056357600080fd5b61056b61022e565b82358281111561057a57600080fd5b6105868782860161032e565b8252506020830135925061059983610503565b6020810192909252509392505050565b60006001600160401b038211156105c2576105c26101f0565b5060051b60200190565b600082601f8301126105dd57600080fd5b813560206105f26105ed836105a9565b610273565b82815260059290921b8401810191818101908684111561061157600080fd5b8286015b848110156106505780356001600160401b038111156106345760008081fd5b6106428986838b01016102a3565b845250918301918301610615565b509695505050505050565b6000610100828403121561066e57600080fd5b610676610250565b905081356001600160401b038082111561068f57600080fd5b61069b858386016102a3565b835260208401359150808211156106b157600080fd5b6106bd858386016102a3565b60208401526106ce60408501610312565b60408401526106df6060850161051b565b60608401526106f060808501610312565b608084015260a084013591508082111561070957600080fd5b610715858386016105cc565b60a084015261072660c08501610312565b60c084015260e084013591508082111561073f57600080fd5b5061074c848285016102a3565b60e08301525092915050565b60006020828403121561076a57600080fd5b6001600160401b03808335111561078057600080fd5b823583016040818603121561079457600080fd5b61079c61022e565b82823511156107aa57600080fd5b81358201604081880312156107be57600080fd5b6107c661022e565b84823511156107d457600080fd5b6107e1888335840161065b565b815284602083013511156107f457600080fd5b60208201358201915087601f83011261080c57600080fd5b6108196105ed83356105a9565b82358082526020808301929160051b8501018a81111561083857600080fd5b602085015b818110156108d757888135111561085357600080fd5b803586016040818e03601f1901121561086b57600080fd5b61087361022e565b8a6020830135111561088457600080fd5b6108968e6020808501358501016102a3565b81528a604083013511156108a957600080fd5b6108bc8e602060408501358501016102a3565b6020820152808652505060208401935060208101905061083d565b5050806020840152505080835250506108f26020830161051b565b602082015295945050505050565b60006020828403121561091257600080fd5b81356001600160401b038082111561092957600080fd5b908301906040828603121561093d57600080fd5b61094561022e565b82358281111561095457600080fd5b6105868782860161042d565b60006020828403121561097257600080fd5b81356001600160401b0381111561098857600080fd5b6104fb8482850161032e565b6000602082840312156109a657600080fd5b81356001600160401b038111156109bc57600080fd5b6104fb8482850161065b565b6000806000606084860312156109dd57600080fd5b83516109e881610503565b602085015160409095015190969495509392505050565b6000815180845260005b81811015610a2557602081850181015186830182015201610a09565b506000602082860101526020601f19601f83011685010191505092915050565b602081526000825160606020840152805160e06080850152610a6b6101608501826109ff565b90506020820151607f19808684030160a0870152610a8983836109ff565b92506001600160401b0360408501511660c087015260608401519150808684030160e0870152610ab983836109ff565b9250608084015191508086840301610100870152610ad783836109ff565b925060a08401519150610af66101208701836001600160401b03169052565b60c0840151935080868403016101408701525050610b1481836109ff565b9150506020840151601f19848303016040850152610b3282826109ff565b9150506040840151610b4f60608501826001600160401b03169052565b50939250505056fea264697066735822122083338731038a2caf59497c6644a059011bd495d9a9983004e3a09213b20acbea64736f6c63430008180033",
  "devdoc": {
    "kind": "dev",
    "methods": {
      "onAccept(((bytes,bytes,uint64,bytes,bytes,uint64,bytes),address))": {
        "details": "Called by the `IsmpHost` to notify a module of a new request the module may choose to respond immediately, or in a later block",
        "params": {
          "incoming": "post request"
        }
      },
      "onPostResponse((((bytes,bytes,uint64,bytes,bytes,uint64,bytes),bytes,uint64),address))": {
        "details": "Called by the `IsmpHost` to notify a module of a post response to a previously sent out request",
        "params": {
          "incoming": "post response"
        }
      }
    },
    "version": 1
  },
  "userdoc": {
    "kind": "user",
    "methods": {},
    "version": 1
  },
  "storageLayout": {
    "storage": [],
    "types": null
  }
}