{
  "address": "0x03B2fB2363b0a33D41022c3e3a2C8130a78f7d5c",
  "abi": [
    {
      "inputs": [],
      "name": "EnforcedPause",
      "type": "error"
    },
    {
      "inputs": [],
      "name": "ExpectedPause",
      "type": "error"
    },
    {
      "inputs": [
        {
          "internalType": "address",
          "name": "token",
          "type": "address"
        },
        {
          "internalType": "uint256",
          "name": "requested",
          "type": "uint256"
        },
        {
          "internalType": "uint256",
          "name": "available",
          "type": "uint256"
        }
      ],
      "name": "InsufficientBalance",
      "type": "error"
    },
    {
      "inputs": [],
      "name": "InvalidInitialization",
      "type": "error"
    },
    {
      "inputs": [],
      "name": "InvalidWithdrawAddress",
      "type": "error"
    },
    {
      "inputs": [],
      "name": "NotInitializing",
      "type": "error"
    },
    {
      "inputs": [
        {
          "internalType": "address",
          "name": "caller",
          "type": "address"
        }
      ],
      "name": "NotVTokenContract",
      "type": "error"
    },
    {
      "inputs": [
        {
          "internalType": "address",
          "name": "owner",
          "type": "address"
        }
      ],
      "name": "OwnableInvalidOwner",
      "type": "error"
    },
    {
      "inputs": [
        {
          "internalType": "address",
          "name": "account",
          "type": "address"
        }
      ],
      "name": "OwnableUnauthorizedAccount",
      "type": "error"
    },
    {
      "inputs": [],
      "name": "ReentrancyGuardReentrantCall",
      "type": "error"
    },
    {
      "inputs": [
        {
          "internalType": "address",
          "name": "token",
          "type": "address"
        }
      ],
      "name": "SafeERC20FailedOperation",
      "type": "error"
    },
    {
      "inputs": [
        {
          "internalType": "address",
          "name": "vTokenAddress",
          "type": "address"
        }
      ],
      "name": "VTokenAddressAlreadyExists",
      "type": "error"
    },
    {
      "inputs": [
        {
          "internalType": "address",
          "name": "vTokenAddress",
          "type": "address"
        }
      ],
      "name": "VTokenAddressNotFound",
      "type": "error"
    },
    {
      "inputs": [],
      "name": "ZeroWithdrawAmount",
      "type": "error"
    },
    {
      "anonymous": false,
      "inputs": [
        {
          "indexed": true,
          "internalType": "address",
          "name": "token",
          "type": "address"
        },
        {
          "indexed": true,
          "internalType": "address",
          "name": "to",
          "type": "address"
        },
        {
          "indexed": false,
          "internalType": "uint256",
          "name": "amount",
          "type": "uint256"
        }
      ],
      "name": "EmergencyWithdraw",
      "type": "event"
    },
    {
      "anonymous": false,
      "inputs": [
        {
          "indexed": true,
          "internalType": "address",
          "name": "from",
          "type": "address"
        },
        {
          "indexed": false,
          "internalType": "uint256",
          "name": "amount",
          "type": "uint256"
        }
      ],
      "name": "EthReceived",
      "type": "event"
    },
    {
      "anonymous": false,
      "inputs": [
        {
          "indexed": false,
          "internalType": "uint64",
          "name": "version",
          "type": "uint64"
        }
      ],
      "name": "Initialized",
      "type": "event"
    },
    {
      "anonymous": false,
      "inputs": [
        {
          "indexed": true,
          "internalType": "address",
          "name": "previousOwner",
          "type": "address"
        },
        {
          "indexed": true,
          "internalType": "address",
          "name": "newOwner",
          "type": "address"
        }
      ],
      "name": "OwnershipTransferred",
      "type": "event"
    },
    {
      "anonymous": false,
      "inputs": [
        {
          "indexed": false,
          "internalType": "address",
          "name": "account",
          "type": "address"
        }
      ],
      "name": "Paused",
      "type": "event"
    },
    {
      "anonymous": false,
      "inputs": [
        {
          "indexed": true,
          "internalType": "address",
          "name": "token",
          "type": "address"
        },
        {
          "indexed": true,
          "internalType": "address",
          "name": "to",
          "type": "address"
        },
        {
          "indexed": false,
          "internalType": "uint256",
          "name": "amount",
          "type": "uint256"
        }
      ],
      "name": "TokenWithdrawn",
      "type": "event"
    },
    {
      "anonymous": false,
      "inputs": [
        {
          "indexed": false,
          "internalType": "address",
          "name": "account",
          "type": "address"
        }
      ],
      "name": "Unpaused",
      "type": "event"
    },
    {
      "anonymous": false,
      "inputs": [
        {
          "indexed": true,
          "internalType": "address",
          "name": "vTokenAddress",
          "type": "address"
        }
      ],
      "name": "VTokenAddressAdded",
      "type": "event"
    },
    {
      "anonymous": false,
      "inputs": [
        {
          "indexed": true,
          "internalType": "address",
          "name": "vTokenAddress",
          "type": "address"
        }
      ],
      "name": "VTokenAddressRemoved",
      "type": "event"
    },
    {
      "inputs": [
        {
          "internalType": "address",
          "name": "_vTokenAddress",
          "type": "address"
        }
      ],
      "name": "addVTokenAddress",
      "outputs": [],
      "stateMutability": "nonpayable",
      "type": "function"
    },
    {
      "inputs": [
        {
          "internalType": "address",
          "name": "token",
          "type": "address"
        },
        {
          "internalType": "address",
          "name": "to",
          "type": "address"
        },
        {
          "internalType": "uint256",
          "name": "amount",
          "type": "uint256"
        }
      ],
      "name": "emergencyWithdraw",
      "outputs": [],
      "stateMutability": "nonpayable",
      "type": "function"
    },
    {
      "inputs": [
        {
          "internalType": "address",
          "name": "token",
          "type": "address"
        }
      ],
      "name": "getBalance",
      "outputs": [
        {
          "internalType": "uint256",
          "name": "",
          "type": "uint256"
        }
      ],
      "stateMutability": "view",
      "type": "function"
    },
    {
      "inputs": [
        {
          "internalType": "address",
          "name": "_owner",
          "type": "address"
        }
      ],
      "name": "initialize",
      "outputs": [],
      "stateMutability": "nonpayable",
      "type": "function"
    },
    {
      "inputs": [
        {
          "internalType": "address",
          "name": "_vTokenAddress",
          "type": "address"
        }
      ],
      "name": "isVTokenAddress",
      "outputs": [
        {
          "internalType": "bool",
          "name": "",
          "type": "bool"
        }
      ],
      "stateMutability": "view",
      "type": "function"
    },
    {
      "inputs": [],
      "name": "owner",
      "outputs": [
        {
          "internalType": "address",
          "name": "",
          "type": "address"
        }
      ],
      "stateMutability": "view",
      "type": "function"
    },
    {
      "inputs": [],
      "name": "pause",
      "outputs": [],
      "stateMutability": "nonpayable",
      "type": "function"
    },
    {
      "inputs": [],
      "name": "paused",
      "outputs": [
        {
          "internalType": "bool",
          "name": "",
          "type": "bool"
        }
      ],
      "stateMutability": "view",
      "type": "function"
    },
    {
      "inputs": [
        {
          "internalType": "address",
          "name": "_vTokenAddress",
          "type": "address"
        }
      ],
      "name": "removeVTokenAddress",
      "outputs": [],
      "stateMutability": "nonpayable",
      "type": "function"
    },
    {
      "inputs": [],
      "name": "renounceOwnership",
      "outputs": [],
      "stateMutability": "nonpayable",
      "type": "function"
    },
    {
      "inputs": [
        {
          "internalType": "address",
          "name": "newOwner",
          "type": "address"
        }
      ],
      "name": "transferOwnership",
      "outputs": [],
      "stateMutability": "nonpayable",
      "type": "function"
    },
    {
      "inputs": [],
      "name": "unpause",
      "outputs": [],
      "stateMutability": "nonpayable",
      "type": "function"
    },
    {
      "inputs": [],
      "name": "vTokenAddressCount",
      "outputs": [
        {
          "internalType": "uint256",
          "name": "",
          "type": "uint256"
        }
      ],
      "stateMutability": "view",
      "type": "function"
    },
    {
      "inputs": [
        {
          "internalType": "address",
          "name": "",
          "type": "address"
        }
      ],
      "name": "vTokenAddresses",
      "outputs": [
        {
          "internalType": "bool",
          "name": "",
          "type": "bool"
        }
      ],
      "stateMutability": "view",
      "type": "function"
    },
    {
      "inputs": [
        {
          "internalType": "address",
          "name": "token",
          "type": "address"
        },
        {
          "internalType": "address",
          "name": "to",
          "type": "address"
        },
        {
          "internalType": "uint256",
          "name": "amount",
          "type": "uint256"
        }
      ],
      "name": "withdrawToken",
      "outputs": [],
      "stateMutability": "nonpayable",
      "type": "function"
    },
    {
      "stateMutability": "payable",
      "type": "receive"
    }
  ],
  "transactionHash": "0x78b50b6cdbaff5c7236105d0a96f205aafbb1342dbb02c659c185e8b11dfa52b",
  "args": [],
  "numDeployments": 1,
  "solcInputHash": "550538ce7b499072da4e8dd7215b969d",
  "bytecode": "0x608060405234801561001057600080fd5b50610fbd806100206000396000f3fe6080604052600436106100ec5760003560e01c8063a21746361161008a578063e63ea40811610059578063e63ea408146102e4578063f2fde38b14610304578063f8b2cb4f14610324578063f8d953131461034457600080fd5b8063a217463614610250578063b176ac5714610270578063c4d66de814610294578063dcf8d38a146102b457600080fd5b8063715018a6116100c6578063715018a6146101bf578063723b179f146101d45780638456cb59146101f45780638da5cb5b1461020957600080fd5b806301e33667146101545780633f4ba83a146101745780635c975abb1461018957600080fd5b3661014f576100f961037d565b6101016103b0565b60405134815233907f85177f287940f2f05425a4029951af0e047a7f9c4eaa9a6e6917bcd869f866959060200160405180910390a261014d6001600080516020610f6883398151915255565b005b600080fd5b34801561016057600080fd5b5061014d61016f366004610e8a565b6103fc565b34801561018057600080fd5b5061014d6105fd565b34801561019557600080fd5b50600080516020610f488339815191525460ff165b60405190151581526020015b60405180910390f35b3480156101cb57600080fd5b5061014d61060d565b3480156101e057600080fd5b5061014d6101ef366004610ec6565b61061f565b34801561020057600080fd5b5061014d610701565b34801561021557600080fd5b507f9016d09d72d40fdae2fd8ceac6b6234c7706214fd39c1cd1e609a0528c199300546040516001600160a01b0390911681526020016101b6565b34801561025c57600080fd5b5061014d61026b366004610ec6565b610711565b34801561027c57600080fd5b5061028660015481565b6040519081526020016101b6565b3480156102a057600080fd5b5061014d6102af366004610ec6565b6107c7565b3480156102c057600080fd5b506101aa6102cf366004610ec6565b60006020819052908152604090205460ff1681565b3480156102f057600080fd5b5061014d6102ff366004610e8a565b6108e7565b34801561031057600080fd5b5061014d61031f366004610ec6565b610a92565b34801561033057600080fd5b5061028661033f366004610ec6565b610ad0565b34801561035057600080fd5b506101aa61035f366004610ec6565b6001600160a01b031660009081526020819052604090205460ff1690565b600080516020610f488339815191525460ff16156103ae5760405163d93c066560e01b815260040160405180910390fd5b565b600080516020610f688339815191528054600119016103e257604051633ee5aeb560e01b815260040160405180910390fd5b60029055565b6001600080516020610f6883398151915255565b3360009081526020819052604090205460ff166104335760405163bfb9256560e01b81523360048201526024015b60405180910390fd5b61043b61037d565b6104436103b0565b6001600160a01b03821661046a57604051637a55fc8960e11b815260040160405180910390fd5b8060000361048b5760405163d6d9e66560e01b815260040160405180910390fd5b600061049684610ad0565b9050808211156104d25760405163db42144d60e01b81526001600160a01b0385166004820152602481018390526044810182905260640161042a565b6001600160a01b03841661057f576000836001600160a01b03168360405160006040518083038185875af1925050503d806000811461052d576040519150601f19603f3d011682016040523d82523d6000602084013e610532565b606091505b50509050806105795760405162461bcd60e51b8152602060048201526013602482015272115512081d1c985b9cd9995c8819985a5b1959606a1b604482015260640161042a565b50610593565b6105936001600160a01b0385168484610b55565b826001600160a01b0316846001600160a01b03167f8210728e7c071f615b840ee026032693858fbcd5e5359e67e438c890f59e5620846040516105d891815260200190565b60405180910390a3506105f86001600080516020610f6883398151915255565b505050565b610605610ba7565b6103ae610c02565b610615610ba7565b6103ae6000610c62565b610627610ba7565b6001600160a01b03811661064e57604051637a55fc8960e11b815260040160405180910390fd5b6001600160a01b03811660009081526020819052604090205460ff161561069357604051631a1961b360e21b81526001600160a01b038216600482015260240161042a565b6001600160a01b0381166000908152602081905260408120805460ff191660019081179091558054916106c583610efe565b90915550506040516001600160a01b038216907f50515a957cde6a124af701fe9598868e113247a6b0e62980f3b8cfe25039e38b90600090a250565b610709610ba7565b6103ae610cd3565b610719610ba7565b6001600160a01b03811660009081526020819052604090205460ff1661075d57604051630671afd360e01b81526001600160a01b038216600482015260240161042a565b6001600160a01b0381166000908152602081905260408120805460ff19169055600180549161078b83610f17565b90915550506040516001600160a01b038216907fd4328555c3cb8f8ef0ef25e5684597128bcdcf6672b52ff7ef82fc043aa923cf90600090a250565b7ff0c57e16840df040f15088dc2f81fe391c3923bec73e23a9662efc9c229c6a008054600160401b810460ff16159067ffffffffffffffff1660008115801561080d5750825b905060008267ffffffffffffffff16600114801561082a5750303b155b905081158015610838575080155b156108565760405163f92ee8a960e01b815260040160405180910390fd5b845467ffffffffffffffff19166001178555831561088057845460ff60401b1916600160401b1785555b61088986610d1c565b610891610d2d565b610899610d3d565b83156108df57845460ff60401b19168555604051600181527fc7f505b2f371ae2175ee4913f4499e1f2633a7b5936321eed1cdaeb6115181d29060200160405180910390a15b505050505050565b6108ef610ba7565b6001600160a01b03821661091657604051637a55fc8960e11b815260040160405180910390fd5b806000036109375760405163d6d9e66560e01b815260040160405180910390fd5b600061094284610ad0565b90508082111561097e5760405163db42144d60e01b81526001600160a01b0385166004820152602481018390526044810182905260640161042a565b6001600160a01b038416610a2b576000836001600160a01b03168360405160006040518083038185875af1925050503d80600081146109d9576040519150601f19603f3d011682016040523d82523d6000602084013e6109de565b606091505b5050905080610a255760405162461bcd60e51b8152602060048201526013602482015272115512081d1c985b9cd9995c8819985a5b1959606a1b604482015260640161042a565b50610a3f565b610a3f6001600160a01b0385168484610b55565b826001600160a01b0316846001600160a01b03167ff24ef89f38eadc1bde50701ad6e4d6d11a2dc24f7cf834a486991f388332850484604051610a8491815260200190565b60405180910390a350505050565b610a9a610ba7565b6001600160a01b038116610ac457604051631e4fbdf760e01b81526000600482015260240161042a565b610acd81610c62565b50565b60006001600160a01b038216610ae7575047919050565b6040516370a0823160e01b81523060048201526001600160a01b038316906370a0823190602401602060405180830381865afa158015610b2b573d6000803e3d6000fd5b505050506040513d601f19601f82011682018060405250810190610b4f9190610f2e565b92915050565b604080516001600160a01b038416602482015260448082018490528251808303909101815260649091019091526020810180516001600160e01b031663a9059cbb60e01b1790526105f8908490610d4d565b33610bd97f9016d09d72d40fdae2fd8ceac6b6234c7706214fd39c1cd1e609a0528c199300546001600160a01b031690565b6001600160a01b0316146103ae5760405163118cdaa760e01b815233600482015260240161042a565b610c0a610dc4565b600080516020610f48833981519152805460ff191681557f5db9ee0a495bf2e6ff9c91a7834c1ba4fdd244a5e8aa4e537bd38aeae4b073aa335b6040516001600160a01b03909116815260200160405180910390a150565b7f9016d09d72d40fdae2fd8ceac6b6234c7706214fd39c1cd1e609a0528c19930080546001600160a01b031981166001600160a01b03848116918217845560405192169182907f8be0079c531659141344cd1fd0a4f28419497f9722a3daafe3b4186f6b6457e090600090a3505050565b610cdb61037d565b600080516020610f48833981519152805460ff191660011781557f62e78cea01bee320cd4e420270b5ea74000d11b0c9f74754ebdbfc544b05a25833610c44565b610d24610df4565b610acd81610e3d565b610d35610df4565b6103ae610e45565b610d45610df4565b6103ae610e66565b600080602060008451602086016000885af180610d70576040513d6000823e3d81fd5b50506000513d91508115610d88578060011415610d95565b6001600160a01b0384163b155b15610dbe57604051635274afe760e01b81526001600160a01b038516600482015260240161042a565b50505050565b600080516020610f488339815191525460ff166103ae57604051638dfc202b60e01b815260040160405180910390fd5b7ff0c57e16840df040f15088dc2f81fe391c3923bec73e23a9662efc9c229c6a0054600160401b900460ff166103ae57604051631afcd79f60e31b815260040160405180910390fd5b610a9a610df4565b610e4d610df4565b600080516020610f48833981519152805460ff19169055565b6103e8610df4565b80356001600160a01b0381168114610e8557600080fd5b919050565b600080600060608486031215610e9f57600080fd5b610ea884610e6e565b9250610eb660208501610e6e565b9150604084013590509250925092565b600060208284031215610ed857600080fd5b610ee182610e6e565b9392505050565b634e487b7160e01b600052601160045260246000fd5b600060018201610f1057610f10610ee8565b5060010190565b600081610f2657610f26610ee8565b506000190190565b600060208284031215610f4057600080fd5b505191905056fecd5ed15c6e187e77e9aee88184c21f4f2182ab5827cb3b7e07fbedcd63f033009b779b17422d0df92223018b32b4d1fa46e071723d6817e2486d003becc55f00a264697066735822122083864cbab9506477aa770b02fa6eee18da058014536b478acca14d0fefd9997b64736f6c63430008180033",
  "devdoc": {
    "details": "Only the VToken contract can withdraw funds",
    "errors": {
      "EnforcedPause()": [
        {
          "details": "The operation failed because the contract is paused."
        }
      ],
      "ExpectedPause()": [
        {
          "details": "The operation failed because the contract is not paused."
        }
      ],
      "InvalidInitialization()": [
        {
          "details": "The contract is already initialized."
        }
      ],
      "NotInitializing()": [
        {
          "details": "The contract is not initializing."
        }
      ],
      "OwnableInvalidOwner(address)": [
        {
          "details": "The owner is not a valid owner account. (eg. `address(0)`)"
        }
      ],
      "OwnableUnauthorizedAccount(address)": [
        {
          "details": "The caller account is not authorized to perform an operation."
        }
      ],
      "ReentrancyGuardReentrantCall()": [
        {
          "details": "Unauthorized reentrant call."
        }
      ],
      "SafeERC20FailedOperation(address)": [
        {
          "details": "An operation with an ERC-20 token failed."
        }
      ]
    },
    "events": {
      "Initialized(uint64)": {
        "details": "Triggered when the contract has been initialized or reinitialized."
      },
      "Paused(address)": {
        "details": "Emitted when the pause is triggered by `account`."
      },
      "Unpaused(address)": {
        "details": "Emitted when the pause is lifted by `account`."
      }
    },
    "kind": "dev",
    "methods": {
      "addVTokenAddress(address)": {
        "params": {
          "_vTokenAddress": "VToken contract address to add"
        }
      },
      "emergencyWithdraw(address,address,uint256)": {
        "params": {
          "amount": "Amount to withdraw",
          "to": "Recipient address",
          "token": "ERC20 token address, use address(0) for ETH"
        }
      },
      "getBalance(address)": {
        "params": {
          "token": "ERC20 token address, use address(0) for ETH"
        },
        "returns": {
          "_0": "balance"
        }
      },
      "initialize(address)": {
        "params": {
          "_owner": "Contract owner"
        }
      },
      "isVTokenAddress(address)": {
        "params": {
          "_vTokenAddress": "Address to check"
        },
        "returns": {
          "_0": "true if it's a VToken contract"
        }
      },
      "owner()": {
        "details": "Returns the address of the current owner."
      },
      "paused()": {
        "details": "Returns true if the contract is paused, and false otherwise."
      },
      "removeVTokenAddress(address)": {
        "params": {
          "_vTokenAddress": "VToken contract address to remove"
        }
      },
      "renounceOwnership()": {
        "details": "Leaves the contract without owner. It will not be possible to call `onlyOwner` functions. Can only be called by the current owner. NOTE: Renouncing ownership will leave the contract without an owner, thereby disabling any functionality that is only available to the owner."
      },
      "transferOwnership(address)": {
        "details": "Transfers ownership of the contract to a new account (`newOwner`). Can only be called by the current owner."
      },
      "withdrawToken(address,address,uint256)": {
        "params": {
          "amount": "Amount to withdraw",
          "to": "Recipient address",
          "token": "ERC20 token address, use address(0) for ETH"
        }
      }
    },
    "title": "BridgeVault",
    "version": 1
  },
  "userdoc": {
    "errors": {
      "InsufficientBalance(address,uint256,uint256)": [
        {
          "notice": "Thrown when withdrawal amount exceeds balance"
        }
      ],
      "InvalidWithdrawAddress()": [
        {
          "notice": "Thrown when withdrawal address is zero address"
        }
      ],
      "NotVTokenContract(address)": [
        {
          "notice": "Thrown when the caller is not a VToken contract"
        }
      ],
      "VTokenAddressAlreadyExists(address)": [
        {
          "notice": "Thrown when VToken address is already added"
        }
      ],
      "VTokenAddressNotFound(address)": [
        {
          "notice": "Thrown when VToken address does not exist"
        }
      ],
      "ZeroWithdrawAmount()": [
        {
          "notice": "Thrown when withdrawal amount is zero"
        }
      ]
    },
    "events": {
      "EmergencyWithdraw(address,address,uint256)": {
        "notice": "Emitted when emergency withdraw is executed"
      },
      "EthReceived(address,uint256)": {
        "notice": "Emitted when ETH is received"
      },
      "TokenWithdrawn(address,address,uint256)": {
        "notice": "Emitted when ERC20 token is withdrawn"
      },
      "VTokenAddressAdded(address)": {
        "notice": "Emitted when VToken address is added"
      },
      "VTokenAddressRemoved(address)": {
        "notice": "Emitted when VToken address is removed"
      }
    },
    "kind": "user",
    "methods": {
      "addVTokenAddress(address)": {
        "notice": "Add VToken contract address"
      },
      "emergencyWithdraw(address,address,uint256)": {
        "notice": "Emergency withdraw (only owner can call)"
      },
      "getBalance(address)": {
        "notice": "Get token balance"
      },
      "initialize(address)": {
        "notice": "Initialize the contract"
      },
      "isVTokenAddress(address)": {
        "notice": "Check if address is a VToken contract"
      },
      "pause()": {
        "notice": "Pause the contract"
      },
      "removeVTokenAddress(address)": {
        "notice": "Remove VToken contract address"
      },
      "unpause()": {
        "notice": "Unpause the contract"
      },
      "vTokenAddressCount()": {
        "notice": "Total number of VToken addresses"
      },
      "vTokenAddresses(address)": {
        "notice": "VToken contract addresses, only these addresses can withdraw funds"
      },
      "withdrawToken(address,address,uint256)": {
        "notice": "Withdraw ERC20 token (only VToken contract can call)"
      }
    },
    "notice": "Cross-chain bridge vault contract, responsible for receiving tokens and ETH transferred from other chains, and providing withdrawal functionality",
    "version": 1
  },
  "storageLayout": {
    "storage": [
      {
        "astId": 9562,
        "contract": "contracts/BridgeVault.sol:BridgeVault",
        "label": "vTokenAddresses",
        "offset": 0,
        "slot": "0",
        "type": "t_mapping(t_address,t_bool)"
      },
      {
        "astId": 9565,
        "contract": "contracts/BridgeVault.sol:BridgeVault",
        "label": "vTokenAddressCount",
        "offset": 0,
        "slot": "1",
        "type": "t_uint256"
      }
    ],
    "types": {
      "t_address": {
        "encoding": "inplace",
        "label": "address",
        "numberOfBytes": "20"
      },
      "t_bool": {
        "encoding": "inplace",
        "label": "bool",
        "numberOfBytes": "1"
      },
      "t_mapping(t_address,t_bool)": {
        "encoding": "mapping",
        "key": "t_address",
        "label": "mapping(address => bool)",
        "numberOfBytes": "32",
        "value": "t_bool"
      },
      "t_uint256": {
        "encoding": "inplace",
        "label": "uint256",
        "numberOfBytes": "32"
      }
    }
  }
}