{
  "address": "0xdc74D75B48Bad28866053D1F6479C5B689837A6e",
  "abi": [
    {
      "inputs": [],
      "name": "EnforcedPause",
      "type": "error"
    },
    {
      "inputs": [],
      "name": "ExpectedPause",
      "type": "error"
    },
    {
      "inputs": [],
      "name": "InvalidFeeRate",
      "type": "error"
    },
    {
      "inputs": [],
      "name": "InvalidInitialization",
      "type": "error"
    },
    {
      "inputs": [],
      "name": "NotFromBifrost",
      "type": "error"
    },
    {
      "inputs": [],
      "name": "NotImplemented",
      "type": "error"
    },
    {
      "inputs": [],
      "name": "NotInitializing",
      "type": "error"
    },
    {
      "inputs": [],
      "name": "NotIsmpHost",
      "type": "error"
    },
    {
      "inputs": [
        {
          "internalType": "address",
          "name": "owner",
          "type": "address"
        }
      ],
      "name": "OwnableInvalidOwner",
      "type": "error"
    },
    {
      "inputs": [
        {
          "internalType": "address",
          "name": "account",
          "type": "address"
        }
      ],
      "name": "OwnableUnauthorizedAccount",
      "type": "error"
    },
    {
      "inputs": [],
      "name": "PoolNotReady",
      "type": "error"
    },
    {
      "anonymous": false,
      "inputs": [
        {
          "indexed": false,
          "internalType": "uint16",
          "name": "newMintFeeRate",
          "type": "uint16"
        },
        {
          "indexed": false,
          "internalType": "uint16",
          "name": "newRedeemFeeRate",
          "type": "uint16"
        }
      ],
      "name": "FeeRateChanged",
      "type": "event"
    },
    {
      "anonymous": false,
      "inputs": [
        {
          "indexed": false,
          "internalType": "uint64",
          "name": "version",
          "type": "uint64"
        }
      ],
      "name": "Initialized",
      "type": "event"
    },
    {
      "anonymous": false,
      "inputs": [
        {
          "indexed": true,
          "internalType": "address",
          "name": "previousOwner",
          "type": "address"
        },
        {
          "indexed": true,
          "internalType": "address",
          "name": "newOwner",
          "type": "address"
        }
      ],
      "name": "OwnershipTransferred",
      "type": "event"
    },
    {
      "anonymous": false,
      "inputs": [
        {
          "indexed": false,
          "internalType": "address",
          "name": "account",
          "type": "address"
        }
      ],
      "name": "Paused",
      "type": "event"
    },
    {
      "anonymous": false,
      "inputs": [
        {
          "indexed": false,
          "internalType": "address",
          "name": "",
          "type": "address"
        },
        {
          "indexed": false,
          "internalType": "uint256",
          "name": "",
          "type": "uint256"
        },
        {
          "indexed": false,
          "internalType": "uint256",
          "name": "",
          "type": "uint256"
        }
      ],
      "name": "SetTokenAmount",
      "type": "event"
    },
    {
      "anonymous": false,
      "inputs": [
        {
          "indexed": false,
          "internalType": "address",
          "name": "account",
          "type": "address"
        }
      ],
      "name": "Unpaused",
      "type": "event"
    },
    {
      "inputs": [],
      "name": "feeRateInfo",
      "outputs": [
        {
          "internalType": "uint16",
          "name": "mintFeeRate",
          "type": "uint16"
        },
        {
          "internalType": "uint16",
          "name": "redeemFeeRate",
          "type": "uint16"
        }
      ],
      "stateMutability": "view",
      "type": "function"
    },
    {
      "inputs": [
        {
          "internalType": "address",
          "name": "_token",
          "type": "address"
        },
        {
          "internalType": "uint256",
          "name": "_vTokenAmount",
          "type": "uint256"
        },
        {
          "internalType": "enum Math.Rounding",
          "name": "rounding",
          "type": "uint8"
        }
      ],
      "name": "getTokenAmountByVToken",
      "outputs": [
        {
          "internalType": "uint256",
          "name": "",
          "type": "uint256"
        }
      ],
      "stateMutability": "view",
      "type": "function"
    },
    {
      "inputs": [
        {
          "internalType": "address",
          "name": "_token",
          "type": "address"
        },
        {
          "internalType": "uint256",
          "name": "_tokenAmount",
          "type": "uint256"
        },
        {
          "internalType": "enum Math.Rounding",
          "name": "rounding",
          "type": "uint8"
        }
      ],
      "name": "getVTokenAmountByToken",
      "outputs": [
        {
          "internalType": "uint256",
          "name": "",
          "type": "uint256"
        }
      ],
      "stateMutability": "view",
      "type": "function"
    },
    {
      "inputs": [
        {
          "internalType": "address",
          "name": "owner",
          "type": "address"
        },
        {
          "internalType": "address",
          "name": "hostAddress",
          "type": "address"
        },
        {
          "internalType": "bytes",
          "name": "bifrostChainId",
          "type": "bytes"
        }
      ],
      "name": "initialize",
      "outputs": [],
      "stateMutability": "nonpayable",
      "type": "function"
    },
    {
      "inputs": [
        {
          "components": [
            {
              "components": [
                {
                  "internalType": "bytes",
                  "name": "source",
                  "type": "bytes"
                },
                {
                  "internalType": "bytes",
                  "name": "dest",
                  "type": "bytes"
                },
                {
                  "internalType": "uint64",
                  "name": "nonce",
                  "type": "uint64"
                },
                {
                  "internalType": "bytes",
                  "name": "from",
                  "type": "bytes"
                },
                {
                  "internalType": "bytes",
                  "name": "to",
                  "type": "bytes"
                },
                {
                  "internalType": "uint64",
                  "name": "timeoutTimestamp",
                  "type": "uint64"
                },
                {
                  "internalType": "bytes",
                  "name": "body",
                  "type": "bytes"
                }
              ],
              "internalType": "struct PostRequest",
              "name": "request",
              "type": "tuple"
            },
            {
              "internalType": "address",
              "name": "relayer",
              "type": "address"
            }
          ],
          "internalType": "struct IncomingPostRequest",
          "name": "incoming",
          "type": "tuple"
        }
      ],
      "name": "onAccept",
      "outputs": [],
      "stateMutability": "nonpayable",
      "type": "function"
    },
    {
      "inputs": [
        {
          "components": [
            {
              "components": [
                {
                  "components": [
                    {
                      "internalType": "bytes",
                      "name": "source",
                      "type": "bytes"
                    },
                    {
                      "internalType": "bytes",
                      "name": "dest",
                      "type": "bytes"
                    },
                    {
                      "internalType": "uint64",
                      "name": "nonce",
                      "type": "uint64"
                    },
                    {
                      "internalType": "address",
                      "name": "from",
                      "type": "address"
                    },
                    {
                      "internalType": "uint64",
                      "name": "timeoutTimestamp",
                      "type": "uint64"
                    },
                    {
                      "internalType": "bytes[]",
                      "name": "keys",
                      "type": "bytes[]"
                    },
                    {
                      "internalType": "uint64",
                      "name": "height",
                      "type": "uint64"
                    },
                    {
                      "internalType": "bytes",
                      "name": "context",
                      "type": "bytes"
                    }
                  ],
                  "internalType": "struct GetRequest",
                  "name": "request",
                  "type": "tuple"
                },
                {
                  "components": [
                    {
                      "internalType": "bytes",
                      "name": "key",
                      "type": "bytes"
                    },
                    {
                      "internalType": "bytes",
                      "name": "value",
                      "type": "bytes"
                    }
                  ],
                  "internalType": "struct StorageValue[]",
                  "name": "values",
                  "type": "tuple[]"
                }
              ],
              "internalType": "struct GetResponse",
              "name": "response",
              "type": "tuple"
            },
            {
              "internalType": "address",
              "name": "relayer",
              "type": "address"
            }
          ],
          "internalType": "struct IncomingGetResponse",
          "name": "",
          "type": "tuple"
        }
      ],
      "name": "onGetResponse",
      "outputs": [],
      "stateMutability": "view",
      "type": "function"
    },
    {
      "inputs": [
        {
          "components": [
            {
              "internalType": "bytes",
              "name": "source",
              "type": "bytes"
            },
            {
              "internalType": "bytes",
              "name": "dest",
              "type": "bytes"
            },
            {
              "internalType": "uint64",
              "name": "nonce",
              "type": "uint64"
            },
            {
              "internalType": "address",
              "name": "from",
              "type": "address"
            },
            {
              "internalType": "uint64",
              "name": "timeoutTimestamp",
              "type": "uint64"
            },
            {
              "internalType": "bytes[]",
              "name": "keys",
              "type": "bytes[]"
            },
            {
              "internalType": "uint64",
              "name": "height",
              "type": "uint64"
            },
            {
              "internalType": "bytes",
              "name": "context",
              "type": "bytes"
            }
          ],
          "internalType": "struct GetRequest",
          "name": "",
          "type": "tuple"
        }
      ],
      "name": "onGetTimeout",
      "outputs": [],
      "stateMutability": "view",
      "type": "function"
    },
    {
      "inputs": [
        {
          "components": [
            {
              "internalType": "bytes",
              "name": "source",
              "type": "bytes"
            },
            {
              "internalType": "bytes",
              "name": "dest",
              "type": "bytes"
            },
            {
              "internalType": "uint64",
              "name": "nonce",
              "type": "uint64"
            },
            {
              "internalType": "bytes",
              "name": "from",
              "type": "bytes"
            },
            {
              "internalType": "bytes",
              "name": "to",
              "type": "bytes"
            },
            {
              "internalType": "uint64",
              "name": "timeoutTimestamp",
              "type": "uint64"
            },
            {
              "internalType": "bytes",
              "name": "body",
              "type": "bytes"
            }
          ],
          "internalType": "struct PostRequest",
          "name": "",
          "type": "tuple"
        }
      ],
      "name": "onPostRequestTimeout",
      "outputs": [],
      "stateMutability": "view",
      "type": "function"
    },
    {
      "inputs": [
        {
          "components": [
            {
              "components": [
                {
                  "components": [
                    {
                      "internalType": "bytes",
                      "name": "source",
                      "type": "bytes"
                    },
                    {
                      "internalType": "bytes",
                      "name": "dest",
                      "type": "bytes"
                    },
                    {
                      "internalType": "uint64",
                      "name": "nonce",
                      "type": "uint64"
                    },
                    {
                      "internalType": "bytes",
                      "name": "from",
                      "type": "bytes"
                    },
                    {
                      "internalType": "bytes",
                      "name": "to",
                      "type": "bytes"
                    },
                    {
                      "internalType": "uint64",
                      "name": "timeoutTimestamp",
                      "type": "uint64"
                    },
                    {
                      "internalType": "bytes",
                      "name": "body",
                      "type": "bytes"
                    }
                  ],
                  "internalType": "struct PostRequest",
                  "name": "request",
                  "type": "tuple"
                },
                {
                  "internalType": "bytes",
                  "name": "response",
                  "type": "bytes"
                },
                {
                  "internalType": "uint64",
                  "name": "timeoutTimestamp",
                  "type": "uint64"
                }
              ],
              "internalType": "struct PostResponse",
              "name": "response",
              "type": "tuple"
            },
            {
              "internalType": "address",
              "name": "relayer",
              "type": "address"
            }
          ],
          "internalType": "struct IncomingPostResponse",
          "name": "",
          "type": "tuple"
        }
      ],
      "name": "onPostResponse",
      "outputs": [],
      "stateMutability": "view",
      "type": "function"
    },
    {
      "inputs": [
        {
          "components": [
            {
              "components": [
                {
                  "internalType": "bytes",
                  "name": "source",
                  "type": "bytes"
                },
                {
                  "internalType": "bytes",
                  "name": "dest",
                  "type": "bytes"
                },
                {
                  "internalType": "uint64",
                  "name": "nonce",
                  "type": "uint64"
                },
                {
                  "internalType": "bytes",
                  "name": "from",
                  "type": "bytes"
                },
                {
                  "internalType": "bytes",
                  "name": "to",
                  "type": "bytes"
                },
                {
                  "internalType": "uint64",
                  "name": "timeoutTimestamp",
                  "type": "uint64"
                },
                {
                  "internalType": "bytes",
                  "name": "body",
                  "type": "bytes"
                }
              ],
              "internalType": "struct PostRequest",
              "name": "request",
              "type": "tuple"
            },
            {
              "internalType": "bytes",
              "name": "response",
              "type": "bytes"
            },
            {
              "internalType": "uint64",
              "name": "timeoutTimestamp",
              "type": "uint64"
            }
          ],
          "internalType": "struct PostResponse",
          "name": "",
          "type": "tuple"
        }
      ],
      "name": "onPostResponseTimeout",
      "outputs": [],
      "stateMutability": "view",
      "type": "function"
    },
    {
      "inputs": [],
      "name": "owner",
      "outputs": [
        {
          "internalType": "address",
          "name": "",
          "type": "address"
        }
      ],
      "stateMutability": "view",
      "type": "function"
    },
    {
      "inputs": [],
      "name": "pause",
      "outputs": [],
      "stateMutability": "nonpayable",
      "type": "function"
    },
    {
      "inputs": [],
      "name": "paused",
      "outputs": [
        {
          "internalType": "bool",
          "name": "",
          "type": "bool"
        }
      ],
      "stateMutability": "view",
      "type": "function"
    },
    {
      "inputs": [
        {
          "internalType": "address",
          "name": "",
          "type": "address"
        }
      ],
      "name": "poolInfo",
      "outputs": [
        {
          "internalType": "uint256",
          "name": "tokenAmount",
          "type": "uint256"
        },
        {
          "internalType": "uint256",
          "name": "vTokenAmount",
          "type": "uint256"
        }
      ],
      "stateMutability": "view",
      "type": "function"
    },
    {
      "inputs": [],
      "name": "renounceOwnership",
      "outputs": [],
      "stateMutability": "nonpayable",
      "type": "function"
    },
    {
      "inputs": [
        {
          "internalType": "uint16",
          "name": "_mintFeeRate",
          "type": "uint16"
        },
        {
          "internalType": "uint16",
          "name": "_redeemFeeRate",
          "type": "uint16"
        }
      ],
      "name": "setFeeRate",
      "outputs": [],
      "stateMutability": "nonpayable",
      "type": "function"
    },
    {
      "inputs": [
        {
          "internalType": "address",
          "name": "newOwner",
          "type": "address"
        }
      ],
      "name": "transferOwnership",
      "outputs": [],
      "stateMutability": "nonpayable",
      "type": "function"
    },
    {
      "inputs": [],
      "name": "unpause",
      "outputs": [],
      "stateMutability": "nonpayable",
      "type": "function"
    }
  ],
  "transactionHash": "0x6d08cbcb54ab2d39455afa6d6cc70f1c662b7cb974ba42cbe07fb3cfae85e2c5",
  "args": [],
  "numDeployments": 1,
  "solcInputHash": "65a510f2cc82b8edc647a8413f104a0a",
  "bytecode": "0x608060405234801561001057600080fd5b50611889806100206000396000f3fe608060405234801561001057600080fd5b50600436106101165760003560e01c806398a90900116100a2578063bc0dd44711610071578063bc0dd4471461027c578063cf7a1d771461028a578063d0fff3661461029d578063dd22846f146102ab578063f2fde38b146102be57600080fd5b806398a90900146101fe5780639a7b5f111461021f578063a71b35ab1461025b578063b2a01bf51461026e57600080fd5b80635c975abb116100e95780635c975abb146101595780636bda6c4314610181578063715018a6146101b45780638456cb59146101bc5780638da5cb5b146101c457600080fd5b80630bc37bab1461011b5780630fee32ce146101305780633f4ba83a1461014357806344ab20f81461014b575b600080fd5b61012e610129366004610fcc565b6102d1565b005b61012e61013e366004611008565b61031e565b61012e610567565b61012e610129366004611211565b6000805160206118348339815191525460ff1660405190151581526020015b60405180910390f35b6000546101999061ffff808216916201000090041682565b6040805161ffff938416815292909116602083015201610178565b61012e610579565b61012e61058b565b7f9016d09d72d40fdae2fd8ceac6b6234c7706214fd39c1cd1e609a0528c199300546040516001600160a01b039091168152602001610178565b61021161020c3660046113b9565b61059b565b604051908152602001610178565b61024661022d3660046113ff565b6001602081905260009182526040909120805491015482565b60408051928352602083019190915201610178565b6102116102693660046113b9565b61064c565b61012e61012936600461141c565b61012e61012936600461149f565b61012e6102983660046114d3565b6106f5565b61012e610129366004611534565b61012e6102b936600461157a565b610835565b61012e6102cc3660046113ff565b6108d5565b6002546001600160a01b0316336001600160a01b031614610305576040516351ab8de560e01b815260040160405180910390fd5b60405163d623472560e01b815260040160405180910390fd5b6002546001600160a01b0316336001600160a01b031614610352576040516351ab8de560e01b815260040160405180910390fd5b61035c81806115ad565b6104356003805461036c906115cd565b80601f0160208091040260200160405190810160405280929190818152602001828054610398906115cd565b80156103e55780601f106103ba576101008083540402835291602001916103e5565b820191906000526020600020905b8154815290600101906020018083116103c857829003601f168201915b506103f893508692508291506116079050565b8080601f01602080910402602001604051908101604052809392919081815260200183838082843760009201919091525092939250506109189050565b158061046e57506040805180820190915260088152670c4d2cc5ae6d8e0f60c31b602082015261046c906103f86060840184611607565b155b1561048c576040516307c1218160e31b815260040160405180910390fd5b600061049883806115ad565b6104a69060c0810190611607565b8080601f01602080910402602001604051908101604052809392919081815260200183838082843760009201829052508451949550938493508392506104f6915085016020908101908601611654565b6001600160a01b03831660008181526001602081815260409283902086815590910184905581519283528201849052810182905292955090935091507fbf7601980afda2e4bf4115242e175054a7d62775820027cc9e7ee868ec09d0de9060600160405180910390a1505050505050565b61056f610945565b6105776109a0565b565b610581610945565b6105776000610a00565b610593610945565b610577610a71565b60006105a5610aba565b6001600160a01b0384166000908152600160208181526040928390208351808501909452805484529091015490820181905215806105e257508051155b1561060057604051630867d2ed60e41b815260040160405180910390fd5b6000805461061790869061ffff1661271087610aeb565b9050600061062582876116a1565b6020840151845191925060009161063e91849189610aeb565b9450505050505b9392505050565b6000610656610aba565b6001600160a01b03841660009081526001602081815260409283902083518085019094528054845290910154908201819052158061069357508051155b156106b157604051630867d2ed60e41b815260040160405180910390fd5b600080546106ce90869062010000900461ffff1661271087610aeb565b905060006106dc82876116a1565b8351602085015191925060009161063e91849189610aeb565b7ff0c57e16840df040f15088dc2f81fe391c3923bec73e23a9662efc9c229c6a008054600160401b810460ff1615906001600160401b031660008115801561073a5750825b90506000826001600160401b031660011480156107565750303b155b905081158015610764575080155b156107825760405163f92ee8a960e01b815260040160405180910390fd5b845467ffffffffffffffff1916600117855583156107ac57845460ff60401b1916600160401b1785555b6107b588610b38565b6107bd610b49565b600280546001600160a01b0319166001600160a01b03891617905560036107e48782611705565b50831561082b57845460ff60401b19168555604051600181527fc7f505b2f371ae2175ee4913f4499e1f2633a7b5936321eed1cdaeb6115181d29060200160405180910390a15b5050505050505050565b61083d610945565b61271061ffff83161180610856575061271061ffff8216115b1561087457604051630adad23360e31b815260040160405180910390fd5b6000805461ffff84811663ffffffff19909216821762010000918516918202179092556040805191825260208201929092527fd80238d10cf70e1085d045238749805f2ec3be60fde7c5ee544b086f5132515a910160405180910390a15050565b6108dd610945565b6001600160a01b03811661090c57604051631e4fbdf760e01b8152600060048201526024015b60405180910390fd5b61091581610a00565b50565b6000815183511461092b5750600061093f565b508151602082810182902090840191909120145b92915050565b336109777f9016d09d72d40fdae2fd8ceac6b6234c7706214fd39c1cd1e609a0528c199300546001600160a01b031690565b6001600160a01b0316146105775760405163118cdaa760e01b8152336004820152602401610903565b6109a8610b59565b600080516020611834833981519152805460ff191681557f5db9ee0a495bf2e6ff9c91a7834c1ba4fdd244a5e8aa4e537bd38aeae4b073aa335b6040516001600160a01b03909116815260200160405180910390a150565b7f9016d09d72d40fdae2fd8ceac6b6234c7706214fd39c1cd1e609a0528c19930080546001600160a01b031981166001600160a01b03848116918217845560405192169182907f8be0079c531659141344cd1fd0a4f28419497f9722a3daafe3b4186f6b6457e090600090a3505050565b610a79610aba565b600080516020611834833981519152805460ff191660011781557f62e78cea01bee320cd4e420270b5ea74000d11b0c9f74754ebdbfc544b05a258336109e2565b6000805160206118348339815191525460ff16156105775760405163d93c066560e01b815260040160405180910390fd5b6000610b1a610af983610b89565b8015610b15575060008480610b1057610b106117c4565b868809115b151590565b610b25868686610bb6565b610b2f91906117da565b95945050505050565b610b40610c71565b61091581610cba565b610b51610c71565b610577610cc2565b6000805160206118348339815191525460ff1661057757604051638dfc202b60e01b815260040160405180910390fd5b60006002826003811115610b9f57610b9f6117ed565b610ba99190611803565b60ff166001149050919050565b6000838302816000198587098281108382030391505080600003610bed57838281610be357610be36117c4565b0492505050610645565b808411610c0457610c046003851502601118610ce3565b6000848688096000868103871696879004966002600389028118808a02820302808a02820302808a02820302808a02820302808a02820302808a02909103029181900381900460010186841190950394909402919094039290920491909117919091029150509392505050565b7ff0c57e16840df040f15088dc2f81fe391c3923bec73e23a9662efc9c229c6a0054600160401b900460ff1661057757604051631afcd79f60e31b815260040160405180910390fd5b6108dd610c71565b610cca610c71565b600080516020611834833981519152805460ff19169055565b634e487b71600052806020526024601cfd5b634e487b7160e01b600052604160045260246000fd5b60405160e081016001600160401b0381118282101715610d2d57610d2d610cf5565b60405290565b60405161010081016001600160401b0381118282101715610d2d57610d2d610cf5565b604080519081016001600160401b0381118282101715610d2d57610d2d610cf5565b604051601f8201601f191681016001600160401b0381118282101715610da057610da0610cf5565b604052919050565b600082601f830112610db957600080fd5b81356001600160401b03811115610dd257610dd2610cf5565b610de5601f8201601f1916602001610d78565b818152846020838601011115610dfa57600080fd5b816020850160208301376000918101602001919091529392505050565b80356001600160401b0381168114610e2e57600080fd5b919050565b600060e08284031215610e4557600080fd5b610e4d610d0b565b905081356001600160401b0380821115610e6657600080fd5b610e7285838601610da8565b83526020840135915080821115610e8857600080fd5b610e9485838601610da8565b6020840152610ea560408501610e17565b60408401526060840135915080821115610ebe57600080fd5b610eca85838601610da8565b60608401526080840135915080821115610ee357600080fd5b610eef85838601610da8565b6080840152610f0060a08501610e17565b60a084015260c0840135915080821115610f1957600080fd5b50610f2684828501610da8565b60c08301525092915050565b600060608284031215610f4457600080fd5b604051606081016001600160401b038282108183111715610f6757610f67610cf5565b816040528293508435915080821115610f7f57600080fd5b610f8b86838701610e33565b83526020850135915080821115610fa157600080fd5b50610fae85828601610da8565b602083015250610fc060408401610e17565b60408201525092915050565b600060208284031215610fde57600080fd5b81356001600160401b03811115610ff457600080fd5b61100084828501610f32565b949350505050565b60006020828403121561101a57600080fd5b81356001600160401b0381111561103057600080fd5b82016040818503121561064557600080fd5b6001600160a01b038116811461091557600080fd5b8035610e2e81611042565b60006001600160401b0382111561107b5761107b610cf5565b5060051b60200190565b600082601f83011261109657600080fd5b813560206110ab6110a683611062565b610d78565b82815260059290921b840181019181810190868411156110ca57600080fd5b8286015b848110156111095780356001600160401b038111156110ed5760008081fd5b6110fb8986838b0101610da8565b8452509183019183016110ce565b509695505050505050565b6000610100828403121561112757600080fd5b61112f610d33565b905081356001600160401b038082111561114857600080fd5b61115485838601610da8565b8352602084013591508082111561116a57600080fd5b61117685838601610da8565b602084015261118760408501610e17565b604084015261119860608501611057565b60608401526111a960808501610e17565b608084015260a08401359150808211156111c257600080fd5b6111ce85838601611085565b60a08401526111df60c08501610e17565b60c084015260e08401359150808211156111f857600080fd5b5061120584828501610da8565b60e08301525092915050565b60006020828403121561122357600080fd5b6001600160401b03808335111561123957600080fd5b823583016040818603121561124d57600080fd5b611255610d56565b828235111561126357600080fd5b813582016040818803121561127757600080fd5b61127f610d56565b848235111561128d57600080fd5b61129a8883358401611114565b815284602083013511156112ad57600080fd5b60208201358201915087601f8301126112c557600080fd5b6112d26110a68335611062565b82358082526020808301929160051b8501018a8111156112f157600080fd5b602085015b8181101561139057888135111561130c57600080fd5b803586016040818e03601f1901121561132457600080fd5b61132c610d56565b8a6020830135111561133d57600080fd5b61134f8e602080850135850101610da8565b81528a6040830135111561136257600080fd5b6113758e60206040850135850101610da8565b602082015280865250506020840193506020810190506112f6565b5050806020840152505080835250506113ab60208301611057565b602082015295945050505050565b6000806000606084860312156113ce57600080fd5b83356113d981611042565b9250602084013591506040840135600481106113f457600080fd5b809150509250925092565b60006020828403121561141157600080fd5b813561064581611042565b60006020828403121561142e57600080fd5b81356001600160401b038082111561144557600080fd5b908301906040828603121561145957600080fd5b611461610d56565b82358281111561147057600080fd5b61147c87828601610f32565b8252506020830135925061148f83611042565b6020810192909252509392505050565b6000602082840312156114b157600080fd5b81356001600160401b038111156114c757600080fd5b61100084828501610e33565b6000806000606084860312156114e857600080fd5b83356114f381611042565b9250602084013561150381611042565b915060408401356001600160401b0381111561151e57600080fd5b61152a86828701610da8565b9150509250925092565b60006020828403121561154657600080fd5b81356001600160401b0381111561155c57600080fd5b61100084828501611114565b803561ffff81168114610e2e57600080fd5b6000806040838503121561158d57600080fd5b61159683611568565b91506115a460208401611568565b90509250929050565b6000823560de198336030181126115c357600080fd5b9190910192915050565b600181811c908216806115e157607f821691505b60208210810361160157634e487b7160e01b600052602260045260246000fd5b50919050565b6000808335601e1984360301811261161e57600080fd5b8301803591506001600160401b0382111561163857600080fd5b60200191503681900382131561164d57600080fd5b9250929050565b60008060006060848603121561166957600080fd5b835161167481611042565b602085015160409095015190969495509392505050565b634e487b7160e01b600052601160045260246000fd5b8181038181111561093f5761093f61168b565b601f821115611700576000816000526020600020601f850160051c810160208610156116dd5750805b601f850160051c820191505b818110156116fc578281556001016116e9565b5050505b505050565b81516001600160401b0381111561171e5761171e610cf5565b6117328161172c84546115cd565b846116b4565b602080601f831160018114611767576000841561174f5750858301515b600019600386901b1c1916600185901b1785556116fc565b600085815260208120601f198616915b8281101561179657888601518255948401946001909101908401611777565b50858210156117b45787850151600019600388901b60f8161c191681555b5050505050600190811b01905550565b634e487b7160e01b600052601260045260246000fd5b8082018082111561093f5761093f61168b565b634e487b7160e01b600052602160045260246000fd5b600060ff83168061182457634e487b7160e01b600052601260045260246000fd5b8060ff8416069150509291505056fecd5ed15c6e187e77e9aee88184c21f4f2182ab5827cb3b7e07fbedcd63f03300a2646970667358221220b1852a7bdb19b8f298d027ec5d57b9cb901bd96f27ae3bb99764a374f7717d2564736f6c63430008180033",
  "devdoc": {
    "errors": {
      "EnforcedPause()": [
        {
          "details": "The operation failed because the contract is paused."
        }
      ],
      "ExpectedPause()": [
        {
          "details": "The operation failed because the contract is not paused."
        }
      ],
      "InvalidInitialization()": [
        {
          "details": "The contract is already initialized."
        }
      ],
      "NotInitializing()": [
        {
          "details": "The contract is not initializing."
        }
      ],
      "OwnableInvalidOwner(address)": [
        {
          "details": "The owner is not a valid owner account. (eg. `address(0)`)"
        }
      ],
      "OwnableUnauthorizedAccount(address)": [
        {
          "details": "The caller account is not authorized to perform an operation."
        }
      ]
    },
    "events": {
      "Initialized(uint64)": {
        "details": "Triggered when the contract has been initialized or reinitialized."
      },
      "Paused(address)": {
        "details": "Emitted when the pause is triggered by `account`."
      },
      "Unpaused(address)": {
        "details": "Emitted when the pause is lifted by `account`."
      }
    },
    "kind": "dev",
    "methods": {
      "getTokenAmountByVToken(address,uint256,uint8)": {
        "params": {
          "_token": "The token address",
          "_vTokenAmount": "The vToken amount",
          "rounding": "The rounding mode"
        },
        "returns": {
          "_0": "The token amount"
        }
      },
      "getVTokenAmountByToken(address,uint256,uint8)": {
        "params": {
          "_token": "The token address",
          "_tokenAmount": "The token amount",
          "rounding": "The rounding mode"
        },
        "returns": {
          "_0": "The vToken amount"
        }
      },
      "onAccept(((bytes,bytes,uint64,bytes,bytes,uint64,bytes),address))": {
        "details": "The post request is from Bifrost",
        "params": {
          "incoming": "The incoming post request"
        }
      },
      "owner()": {
        "details": "Returns the address of the current owner."
      },
      "paused()": {
        "details": "Returns true if the contract is paused, and false otherwise."
      },
      "renounceOwnership()": {
        "details": "Leaves the contract without owner. It will not be possible to call `onlyOwner` functions. Can only be called by the current owner. NOTE: Renouncing ownership will leave the contract without an owner, thereby disabling any functionality that is only available to the owner."
      },
      "transferOwnership(address)": {
        "details": "Transfers ownership of the contract to a new account (`newOwner`). Can only be called by the current owner."
      }
    },
    "version": 1
  },
  "userdoc": {
    "errors": {
      "InvalidFeeRate()": [
        {
          "notice": "Throws if the fee rate is invalid"
        }
      ],
      "NotFromBifrost()": [
        {
          "notice": "Throws if the caller is not Bifrost"
        }
      ],
      "NotImplemented()": [
        {
          "notice": "Throws if the function is not implemented"
        }
      ],
      "NotIsmpHost()": [
        {
          "notice": "Throws if the caller is not the ISMP host."
        }
      ],
      "PoolNotReady()": [
        {
          "notice": "Throws if the pool is not ready"
        }
      ]
    },
    "events": {
      "FeeRateChanged(uint16,uint16)": {
        "notice": "Emitted when fee rates are changed"
      },
      "SetTokenAmount(address,uint256,uint256)": {
        "notice": "Emitted when token amount is set"
      }
    },
    "kind": "user",
    "methods": {
      "getTokenAmountByVToken(address,uint256,uint8)": {
        "notice": "Get token by vToken."
      },
      "getVTokenAmountByToken(address,uint256,uint8)": {
        "notice": "Get vToken by token."
      },
      "onAccept(((bytes,bytes,uint64,bytes,bytes,uint64,bytes),address))": {
        "notice": "Accept the post request"
      },
      "pause()": {
        "notice": "Pause the contract"
      },
      "setFeeRate(uint16,uint16)": {
        "notice": "Bifrost will set a fee and the data will be consistent with Bifrost Chain."
      },
      "unpause()": {
        "notice": "Unpause the contract"
      }
    },
    "version": 1
  },
  "storageLayout": {
    "storage": [
      {
        "astId": 10873,
        "contract": "contracts/Oracle.sol:Oracle",
        "label": "feeRateInfo",
        "offset": 0,
        "slot": "0",
        "type": "t_struct(FeeRateInfo)10870_storage"
      },
      {
        "astId": 10878,
        "contract": "contracts/Oracle.sol:Oracle",
        "label": "poolInfo",
        "offset": 0,
        "slot": "1",
        "type": "t_mapping(t_address,t_struct(PoolInfo)10865_storage)"
      },
      {
        "astId": 10880,
        "contract": "contracts/Oracle.sol:Oracle",
        "label": "_host",
        "offset": 0,
        "slot": "2",
        "type": "t_address"
      },
      {
        "astId": 10882,
        "contract": "contracts/Oracle.sol:Oracle",
        "label": "_bifrostChainId",
        "offset": 0,
        "slot": "3",
        "type": "t_bytes_storage"
      }
    ],
    "types": {
      "t_address": {
        "encoding": "inplace",
        "label": "address",
        "numberOfBytes": "20"
      },
      "t_bytes_storage": {
        "encoding": "bytes",
        "label": "bytes",
        "numberOfBytes": "32"
      },
      "t_mapping(t_address,t_struct(PoolInfo)10865_storage)": {
        "encoding": "mapping",
        "key": "t_address",
        "label": "mapping(address => struct Oracle.PoolInfo)",
        "numberOfBytes": "32",
        "value": "t_struct(PoolInfo)10865_storage"
      },
      "t_struct(FeeRateInfo)10870_storage": {
        "encoding": "inplace",
        "label": "struct Oracle.FeeRateInfo",
        "members": [
          {
            "astId": 10867,
            "contract": "contracts/Oracle.sol:Oracle",
            "label": "mintFeeRate",
            "offset": 0,
            "slot": "0",
            "type": "t_uint16"
          },
          {
            "astId": 10869,
            "contract": "contracts/Oracle.sol:Oracle",
            "label": "redeemFeeRate",
            "offset": 2,
            "slot": "0",
            "type": "t_uint16"
          }
        ],
        "numberOfBytes": "32"
      },
      "t_struct(PoolInfo)10865_storage": {
        "encoding": "inplace",
        "label": "struct Oracle.PoolInfo",
        "members": [
          {
            "astId": 10862,
            "contract": "contracts/Oracle.sol:Oracle",
            "label": "tokenAmount",
            "offset": 0,
            "slot": "0",
            "type": "t_uint256"
          },
          {
            "astId": 10864,
            "contract": "contracts/Oracle.sol:Oracle",
            "label": "vTokenAmount",
            "offset": 0,
            "slot": "1",
            "type": "t_uint256"
          }
        ],
        "numberOfBytes": "64"
      },
      "t_uint16": {
        "encoding": "inplace",
        "label": "uint16",
        "numberOfBytes": "2"
      },
      "t_uint256": {
        "encoding": "inplace",
        "label": "uint256",
        "numberOfBytes": "32"
      }
    }
  }
}