{
  "address": "0x2E388f1a9C0cA3529e82e46b2CE01fDFdF635984",
  "abi": [
    {
      "inputs": [
        {
          "internalType": "address",
          "name": "hostAddress",
          "type": "address"
        }
      ],
      "stateMutability": "nonpayable",
      "type": "constructor"
    },
    {
      "inputs": [],
      "name": "InvalidFeeRate",
      "type": "error"
    },
    {
      "inputs": [],
      "name": "NotImplemented",
      "type": "error"
    },
    {
      "inputs": [],
      "name": "NotIsmpHost",
      "type": "error"
    },
    {
      "inputs": [
        {
          "internalType": "address",
          "name": "owner",
          "type": "address"
        }
      ],
      "name": "OwnableInvalidOwner",
      "type": "error"
    },
    {
      "inputs": [
        {
          "internalType": "address",
          "name": "account",
          "type": "address"
        }
      ],
      "name": "OwnableUnauthorizedAccount",
      "type": "error"
    },
    {
      "inputs": [],
      "name": "PoolNotReady",
      "type": "error"
    },
    {
      "anonymous": false,
      "inputs": [
        {
          "indexed": false,
          "internalType": "uint16",
          "name": "newMintFeeRate",
          "type": "uint16"
        },
        {
          "indexed": false,
          "internalType": "uint16",
          "name": "newRedeemFeeRate",
          "type": "uint16"
        }
      ],
      "name": "FeeRateChanged",
      "type": "event"
    },
    {
      "anonymous": false,
      "inputs": [
        {
          "indexed": true,
          "internalType": "address",
          "name": "previousOwner",
          "type": "address"
        },
        {
          "indexed": true,
          "internalType": "address",
          "name": "newOwner",
          "type": "address"
        }
      ],
      "name": "OwnershipTransferred",
      "type": "event"
    },
    {
      "anonymous": false,
      "inputs": [
        {
          "indexed": false,
          "internalType": "address",
          "name": "",
          "type": "address"
        },
        {
          "indexed": false,
          "internalType": "uint256",
          "name": "",
          "type": "uint256"
        },
        {
          "indexed": false,
          "internalType": "uint256",
          "name": "",
          "type": "uint256"
        }
      ],
      "name": "SetTokenAmount",
      "type": "event"
    },
    {
      "inputs": [],
      "name": "feeRateInfo",
      "outputs": [
        {
          "internalType": "uint16",
          "name": "mintFeeRate",
          "type": "uint16"
        },
        {
          "internalType": "uint16",
          "name": "redeemFeeRate",
          "type": "uint16"
        }
      ],
      "stateMutability": "view",
      "type": "function"
    },
    {
      "inputs": [
        {
          "internalType": "address",
          "name": "_token",
          "type": "address"
        },
        {
          "internalType": "uint256",
          "name": "_vTokenAmount",
          "type": "uint256"
        },
        {
          "internalType": "enum Math.Rounding",
          "name": "rounding",
          "type": "uint8"
        }
      ],
      "name": "getTokenAmountByVToken",
      "outputs": [
        {
          "internalType": "uint256",
          "name": "",
          "type": "uint256"
        }
      ],
      "stateMutability": "view",
      "type": "function"
    },
    {
      "inputs": [
        {
          "internalType": "address",
          "name": "_token",
          "type": "address"
        },
        {
          "internalType": "uint256",
          "name": "_tokenAmount",
          "type": "uint256"
        },
        {
          "internalType": "enum Math.Rounding",
          "name": "rounding",
          "type": "uint8"
        }
      ],
      "name": "getVTokenAmountByToken",
      "outputs": [
        {
          "internalType": "uint256",
          "name": "",
          "type": "uint256"
        }
      ],
      "stateMutability": "view",
      "type": "function"
    },
    {
      "inputs": [
        {
          "components": [
            {
              "components": [
                {
                  "internalType": "bytes",
                  "name": "source",
                  "type": "bytes"
                },
                {
                  "internalType": "bytes",
                  "name": "dest",
                  "type": "bytes"
                },
                {
                  "internalType": "uint64",
                  "name": "nonce",
                  "type": "uint64"
                },
                {
                  "internalType": "bytes",
                  "name": "from",
                  "type": "bytes"
                },
                {
                  "internalType": "bytes",
                  "name": "to",
                  "type": "bytes"
                },
                {
                  "internalType": "uint64",
                  "name": "timeoutTimestamp",
                  "type": "uint64"
                },
                {
                  "internalType": "bytes",
                  "name": "body",
                  "type": "bytes"
                }
              ],
              "internalType": "struct PostRequest",
              "name": "request",
              "type": "tuple"
            },
            {
              "internalType": "address",
              "name": "relayer",
              "type": "address"
            }
          ],
          "internalType": "struct IncomingPostRequest",
          "name": "incoming",
          "type": "tuple"
        }
      ],
      "name": "onAccept",
      "outputs": [],
      "stateMutability": "nonpayable",
      "type": "function"
    },
    {
      "inputs": [
        {
          "components": [
            {
              "components": [
                {
                  "components": [
                    {
                      "internalType": "bytes",
                      "name": "source",
                      "type": "bytes"
                    },
                    {
                      "internalType": "bytes",
                      "name": "dest",
                      "type": "bytes"
                    },
                    {
                      "internalType": "uint64",
                      "name": "nonce",
                      "type": "uint64"
                    },
                    {
                      "internalType": "address",
                      "name": "from",
                      "type": "address"
                    },
                    {
                      "internalType": "uint64",
                      "name": "timeoutTimestamp",
                      "type": "uint64"
                    },
                    {
                      "internalType": "bytes[]",
                      "name": "keys",
                      "type": "bytes[]"
                    },
                    {
                      "internalType": "uint64",
                      "name": "height",
                      "type": "uint64"
                    },
                    {
                      "internalType": "bytes",
                      "name": "context",
                      "type": "bytes"
                    }
                  ],
                  "internalType": "struct GetRequest",
                  "name": "request",
                  "type": "tuple"
                },
                {
                  "components": [
                    {
                      "internalType": "bytes",
                      "name": "key",
                      "type": "bytes"
                    },
                    {
                      "internalType": "bytes",
                      "name": "value",
                      "type": "bytes"
                    }
                  ],
                  "internalType": "struct StorageValue[]",
                  "name": "values",
                  "type": "tuple[]"
                }
              ],
              "internalType": "struct GetResponse",
              "name": "response",
              "type": "tuple"
            },
            {
              "internalType": "address",
              "name": "relayer",
              "type": "address"
            }
          ],
          "internalType": "struct IncomingGetResponse",
          "name": "",
          "type": "tuple"
        }
      ],
      "name": "onGetResponse",
      "outputs": [],
      "stateMutability": "view",
      "type": "function"
    },
    {
      "inputs": [
        {
          "components": [
            {
              "internalType": "bytes",
              "name": "source",
              "type": "bytes"
            },
            {
              "internalType": "bytes",
              "name": "dest",
              "type": "bytes"
            },
            {
              "internalType": "uint64",
              "name": "nonce",
              "type": "uint64"
            },
            {
              "internalType": "address",
              "name": "from",
              "type": "address"
            },
            {
              "internalType": "uint64",
              "name": "timeoutTimestamp",
              "type": "uint64"
            },
            {
              "internalType": "bytes[]",
              "name": "keys",
              "type": "bytes[]"
            },
            {
              "internalType": "uint64",
              "name": "height",
              "type": "uint64"
            },
            {
              "internalType": "bytes",
              "name": "context",
              "type": "bytes"
            }
          ],
          "internalType": "struct GetRequest",
          "name": "",
          "type": "tuple"
        }
      ],
      "name": "onGetTimeout",
      "outputs": [],
      "stateMutability": "view",
      "type": "function"
    },
    {
      "inputs": [
        {
          "components": [
            {
              "internalType": "bytes",
              "name": "source",
              "type": "bytes"
            },
            {
              "internalType": "bytes",
              "name": "dest",
              "type": "bytes"
            },
            {
              "internalType": "uint64",
              "name": "nonce",
              "type": "uint64"
            },
            {
              "internalType": "bytes",
              "name": "from",
              "type": "bytes"
            },
            {
              "internalType": "bytes",
              "name": "to",
              "type": "bytes"
            },
            {
              "internalType": "uint64",
              "name": "timeoutTimestamp",
              "type": "uint64"
            },
            {
              "internalType": "bytes",
              "name": "body",
              "type": "bytes"
            }
          ],
          "internalType": "struct PostRequest",
          "name": "",
          "type": "tuple"
        }
      ],
      "name": "onPostRequestTimeout",
      "outputs": [],
      "stateMutability": "view",
      "type": "function"
    },
    {
      "inputs": [
        {
          "components": [
            {
              "components": [
                {
                  "components": [
                    {
                      "internalType": "bytes",
                      "name": "source",
                      "type": "bytes"
                    },
                    {
                      "internalType": "bytes",
                      "name": "dest",
                      "type": "bytes"
                    },
                    {
                      "internalType": "uint64",
                      "name": "nonce",
                      "type": "uint64"
                    },
                    {
                      "internalType": "bytes",
                      "name": "from",
                      "type": "bytes"
                    },
                    {
                      "internalType": "bytes",
                      "name": "to",
                      "type": "bytes"
                    },
                    {
                      "internalType": "uint64",
                      "name": "timeoutTimestamp",
                      "type": "uint64"
                    },
                    {
                      "internalType": "bytes",
                      "name": "body",
                      "type": "bytes"
                    }
                  ],
                  "internalType": "struct PostRequest",
                  "name": "request",
                  "type": "tuple"
                },
                {
                  "internalType": "bytes",
                  "name": "response",
                  "type": "bytes"
                },
                {
                  "internalType": "uint64",
                  "name": "timeoutTimestamp",
                  "type": "uint64"
                }
              ],
              "internalType": "struct PostResponse",
              "name": "response",
              "type": "tuple"
            },
            {
              "internalType": "address",
              "name": "relayer",
              "type": "address"
            }
          ],
          "internalType": "struct IncomingPostResponse",
          "name": "",
          "type": "tuple"
        }
      ],
      "name": "onPostResponse",
      "outputs": [],
      "stateMutability": "view",
      "type": "function"
    },
    {
      "inputs": [
        {
          "components": [
            {
              "components": [
                {
                  "internalType": "bytes",
                  "name": "source",
                  "type": "bytes"
                },
                {
                  "internalType": "bytes",
                  "name": "dest",
                  "type": "bytes"
                },
                {
                  "internalType": "uint64",
                  "name": "nonce",
                  "type": "uint64"
                },
                {
                  "internalType": "bytes",
                  "name": "from",
                  "type": "bytes"
                },
                {
                  "internalType": "bytes",
                  "name": "to",
                  "type": "bytes"
                },
                {
                  "internalType": "uint64",
                  "name": "timeoutTimestamp",
                  "type": "uint64"
                },
                {
                  "internalType": "bytes",
                  "name": "body",
                  "type": "bytes"
                }
              ],
              "internalType": "struct PostRequest",
              "name": "request",
              "type": "tuple"
            },
            {
              "internalType": "bytes",
              "name": "response",
              "type": "bytes"
            },
            {
              "internalType": "uint64",
              "name": "timeoutTimestamp",
              "type": "uint64"
            }
          ],
          "internalType": "struct PostResponse",
          "name": "",
          "type": "tuple"
        }
      ],
      "name": "onPostResponseTimeout",
      "outputs": [],
      "stateMutability": "view",
      "type": "function"
    },
    {
      "inputs": [],
      "name": "owner",
      "outputs": [
        {
          "internalType": "address",
          "name": "",
          "type": "address"
        }
      ],
      "stateMutability": "view",
      "type": "function"
    },
    {
      "inputs": [
        {
          "internalType": "address",
          "name": "",
          "type": "address"
        }
      ],
      "name": "poolInfo",
      "outputs": [
        {
          "internalType": "uint256",
          "name": "tokenAmount",
          "type": "uint256"
        },
        {
          "internalType": "uint256",
          "name": "vTokenAmount",
          "type": "uint256"
        }
      ],
      "stateMutability": "view",
      "type": "function"
    },
    {
      "inputs": [],
      "name": "renounceOwnership",
      "outputs": [],
      "stateMutability": "nonpayable",
      "type": "function"
    },
    {
      "inputs": [
        {
          "internalType": "uint16",
          "name": "_mintFeeRate",
          "type": "uint16"
        },
        {
          "internalType": "uint16",
          "name": "_redeemFeeRate",
          "type": "uint16"
        }
      ],
      "name": "setFeeRate",
      "outputs": [],
      "stateMutability": "nonpayable",
      "type": "function"
    },
    {
      "inputs": [
        {
          "internalType": "address",
          "name": "newOwner",
          "type": "address"
        }
      ],
      "name": "transferOwnership",
      "outputs": [],
      "stateMutability": "nonpayable",
      "type": "function"
    }
  ],
  "transactionHash": "0x77729dcbc8dbccb67e1328a3afafc0fae1e6eb81a0e3747be5e2f79d9f94ddb6",
  "args": [
    "0x8Aa0Dea6D675d785A882967Bf38183f6117C09b7"
  ],
  "numDeployments": 4,
  "solcInputHash": "550538ce7b499072da4e8dd7215b969d",
  "bytecode": "0x608060405234801561001057600080fd5b506040516111f33803806111f383398101604081905261002f916100d4565b338061005557604051631e4fbdf760e01b81526000600482015260240160405180910390fd5b61005e81610084565b50600380546001600160a01b0319166001600160a01b0392909216919091179055610104565b600080546001600160a01b038381166001600160a01b0319831681178455604051919092169283917f8be0079c531659141344cd1fd0a4f28419497f9722a3daafe3b4186f6b6457e09190a35050565b6000602082840312156100e657600080fd5b81516001600160a01b03811681146100fd57600080fd5b9392505050565b6110e0806101136000396000f3fe608060405234801561001057600080fd5b50600436106100ea5760003560e01c80639a7b5f111161008c578063bc0dd44711610066578063bc0dd447146101fe578063d0fff3661461020c578063dd22846f1461021a578063f2fde38b1461022d57600080fd5b80639a7b5f11146101a1578063a71b35ab146101dd578063b2a01bf5146101f057600080fd5b80636bda6c43116100c85780636bda6c4314610125578063715018a61461015d5780638da5cb5b1461016557806398a909001461018057600080fd5b80630bc37bab146100ef5780630fee32ce1461010457806344ab20f814610117575b600080fd5b6101026100fd366004610a2f565b610240565b005b610102610112366004610a8b565b61028d565b6101026100fd366004610cbd565b60015461013d9061ffff808216916201000090041682565b6040805161ffff9384168152929091166020830152015b60405180910390f35b610102610353565b6000546040516001600160a01b039091168152602001610154565b61019361018e366004610e65565b610367565b604051908152602001610154565b6101c86101af366004610eab565b6002602052600090815260409020805460019091015482565b60408051928352602083019190915201610154565b6101936101eb366004610e65565b610410565b6101026100fd366004610ec8565b6101026100fd366004610f28565b6101026100fd366004610f5c565b610102610228366004610fa2565b6104b1565b61010261023b366004610eab565b610551565b6003546001600160a01b0316336001600160a01b031614610274576040516351ab8de560e01b815260040160405180910390fd5b60405163d623472560e01b815260040160405180910390fd5b6003546001600160a01b0316336001600160a01b0316146102c1576040516351ab8de560e01b815260040160405180910390fd5b805160c001518051600090819081906102e39085016020908101908601610fd5565b6001600160a01b03831660008181526002602090815260409182902085815560010184905581519283528201849052810182905292955090935091507fbf7601980afda2e4bf4115242e175054a7d62775820027cc9e7ee868ec09d0de9060600160405180910390a15050505050565b61035b610594565b61036560006105c1565b565b6001600160a01b0383166000908152600260209081526040808320815180830190925280548252600101549181018290529015806103a457508051155b156103c257604051630867d2ed60e41b815260040160405180910390fd5b6001546000906103db90869061ffff1661271087610611565b905060006103e98287611022565b6020840151845191925060009161040291849189610611565b9450505050505b9392505050565b6001600160a01b03831660009081526002602090815260408083208151808301909252805482526001015491810182905290158061044d57508051155b1561046b57604051630867d2ed60e41b815260040160405180910390fd5b60015460009061048a90869062010000900461ffff1661271087610611565b905060006104988287611022565b8351602085015191925060009161040291849189610611565b6104b9610594565b61271061ffff831611806104d2575061271061ffff8216115b156104f057604051630adad23360e31b815260040160405180910390fd5b6001805461ffff84811663ffffffff19909216821762010000918516918202179092556040805191825260208201929092527fd80238d10cf70e1085d045238749805f2ec3be60fde7c5ee544b086f5132515a910160405180910390a15050565b610559610594565b6001600160a01b03811661058857604051631e4fbdf760e01b8152600060048201526024015b60405180910390fd5b610591816105c1565b50565b6000546001600160a01b031633146103655760405163118cdaa760e01b815233600482015260240161057f565b600080546001600160a01b038381166001600160a01b0319831681178455604051919092169283917f8be0079c531659141344cd1fd0a4f28419497f9722a3daafe3b4186f6b6457e09190a35050565b600061064061061f8361065e565b801561063b5750600084806106365761063661103b565b868809115b151590565b61064b86868661068b565b6106559190611051565b95945050505050565b6000600282600381111561067457610674611064565b61067e919061107a565b60ff166001149050919050565b60008383028160001985870982811083820303915050806000036106c2578382816106b8576106b861103b565b0492505050610409565b8084116106d9576106d96003851502601118610746565b6000848688096000868103871696879004966002600389028118808a02820302808a02820302808a02820302808a02820302808a02820302808a02909103029181900381900460010186841190950394909402919094039290920491909117919091029150509392505050565b634e487b71600052806020526024601cfd5b634e487b7160e01b600052604160045260246000fd5b60405160e081016001600160401b038111828210171561079057610790610758565b60405290565b604080519081016001600160401b038111828210171561079057610790610758565b60405161010081016001600160401b038111828210171561079057610790610758565b604051601f8201601f191681016001600160401b038111828210171561080357610803610758565b604052919050565b600082601f83011261081c57600080fd5b81356001600160401b0381111561083557610835610758565b610848601f8201601f19166020016107db565b81815284602083860101111561085d57600080fd5b816020850160208301376000918101602001919091529392505050565b80356001600160401b038116811461089157600080fd5b919050565b600060e082840312156108a857600080fd5b6108b061076e565b905081356001600160401b03808211156108c957600080fd5b6108d58583860161080b565b835260208401359150808211156108eb57600080fd5b6108f78583860161080b565b60208401526109086040850161087a565b6040840152606084013591508082111561092157600080fd5b61092d8583860161080b565b6060840152608084013591508082111561094657600080fd5b6109528583860161080b565b608084015261096360a0850161087a565b60a084015260c084013591508082111561097c57600080fd5b506109898482850161080b565b60c08301525092915050565b6000606082840312156109a757600080fd5b604051606081016001600160401b0382821081831117156109ca576109ca610758565b8160405282935084359150808211156109e257600080fd5b6109ee86838701610896565b83526020850135915080821115610a0457600080fd5b50610a118582860161080b565b602083015250610a236040840161087a565b60408201525092915050565b600060208284031215610a4157600080fd5b81356001600160401b03811115610a5757600080fd5b610a6384828501610995565b949350505050565b6001600160a01b038116811461059157600080fd5b803561089181610a6b565b600060208284031215610a9d57600080fd5b81356001600160401b0380821115610ab457600080fd5b9083019060408286031215610ac857600080fd5b610ad0610796565b823582811115610adf57600080fd5b610aeb87828601610896565b82525060208301359250610afe83610a6b565b6020810192909252509392505050565b60006001600160401b03821115610b2757610b27610758565b5060051b60200190565b600082601f830112610b4257600080fd5b81356020610b57610b5283610b0e565b6107db565b82815260059290921b84018101918181019086841115610b7657600080fd5b8286015b84811015610bb55780356001600160401b03811115610b995760008081fd5b610ba78986838b010161080b565b845250918301918301610b7a565b509695505050505050565b60006101008284031215610bd357600080fd5b610bdb6107b8565b905081356001600160401b0380821115610bf457600080fd5b610c008583860161080b565b83526020840135915080821115610c1657600080fd5b610c228583860161080b565b6020840152610c336040850161087a565b6040840152610c4460608501610a80565b6060840152610c556080850161087a565b608084015260a0840135915080821115610c6e57600080fd5b610c7a85838601610b31565b60a0840152610c8b60c0850161087a565b60c084015260e0840135915080821115610ca457600080fd5b50610cb18482850161080b565b60e08301525092915050565b600060208284031215610ccf57600080fd5b6001600160401b038083351115610ce557600080fd5b8235830160408186031215610cf957600080fd5b610d01610796565b8282351115610d0f57600080fd5b8135820160408188031215610d2357600080fd5b610d2b610796565b8482351115610d3957600080fd5b610d468883358401610bc0565b81528460208301351115610d5957600080fd5b60208201358201915087601f830112610d7157600080fd5b610d7e610b528335610b0e565b82358082526020808301929160051b8501018a811115610d9d57600080fd5b602085015b81811015610e3c578881351115610db857600080fd5b803586016040818e03601f19011215610dd057600080fd5b610dd8610796565b8a60208301351115610de957600080fd5b610dfb8e60208085013585010161080b565b81528a60408301351115610e0e57600080fd5b610e218e6020604085013585010161080b565b60208201528086525050602084019350602081019050610da2565b505080602084015250508083525050610e5760208301610a80565b602082015295945050505050565b600080600060608486031215610e7a57600080fd5b8335610e8581610a6b565b925060208401359150604084013560048110610ea057600080fd5b809150509250925092565b600060208284031215610ebd57600080fd5b813561040981610a6b565b600060208284031215610eda57600080fd5b81356001600160401b0380821115610ef157600080fd5b9083019060408286031215610f0557600080fd5b610f0d610796565b823582811115610f1c57600080fd5b610aeb87828601610995565b600060208284031215610f3a57600080fd5b81356001600160401b03811115610f5057600080fd5b610a6384828501610896565b600060208284031215610f6e57600080fd5b81356001600160401b03811115610f8457600080fd5b610a6384828501610bc0565b803561ffff8116811461089157600080fd5b60008060408385031215610fb557600080fd5b610fbe83610f90565b9150610fcc60208401610f90565b90509250929050565b600080600060608486031215610fea57600080fd5b8351610ff581610a6b565b602085015160409095015190969495509392505050565b634e487b7160e01b600052601160045260246000fd5b818103818111156110355761103561100c565b92915050565b634e487b7160e01b600052601260045260246000fd5b808201808211156110355761103561100c565b634e487b7160e01b600052602160045260246000fd5b600060ff83168061109b57634e487b7160e01b600052601260045260246000fd5b8060ff8416069150509291505056fea26469706673582212201a376873ddc0bf54d745f1fde99f07df1e73e304e6d594e030ade12029721f1564736f6c63430008180033",
  "devdoc": {
    "errors": {
      "OwnableInvalidOwner(address)": [
        {
          "details": "The owner is not a valid owner account. (eg. `address(0)`)"
        }
      ],
      "OwnableUnauthorizedAccount(address)": [
        {
          "details": "The caller account is not authorized to perform an operation."
        }
      ]
    },
    "kind": "dev",
    "methods": {
      "onAccept(((bytes,bytes,uint64,bytes,bytes,uint64,bytes),address))": {
        "details": "Called by the `IsmpHost` to notify a module of a new request the module may choose to respond immediately, or in a later block",
        "params": {
          "incoming": "post request"
        }
      },
      "owner()": {
        "details": "Returns the address of the current owner."
      },
      "renounceOwnership()": {
        "details": "Leaves the contract without owner. It will not be possible to call `onlyOwner` functions. Can only be called by the current owner. NOTE: Renouncing ownership will leave the contract without an owner, thereby disabling any functionality that is only available to the owner."
      },
      "transferOwnership(address)": {
        "details": "Transfers ownership of the contract to a new account (`newOwner`). Can only be called by the current owner."
      }
    },
    "version": 1
  },
  "userdoc": {
    "errors": {
      "InvalidFeeRate()": [
        {
          "notice": "Throws if the fee rate is invalid"
        }
      ],
      "NotImplemented()": [
        {
          "notice": "Throws if the function is not implemented"
        }
      ],
      "NotIsmpHost()": [
        {
          "notice": "Throws if the caller is not the ISMP host."
        }
      ],
      "PoolNotReady()": [
        {
          "notice": "Throws if the pool is not ready"
        }
      ]
    },
    "events": {
      "FeeRateChanged(uint16,uint16)": {
        "notice": "Emitted when fee rates are changed"
      },
      "SetTokenAmount(address,uint256,uint256)": {
        "notice": "Emitted when token amount is set"
      }
    },
    "kind": "user",
    "methods": {
      "getTokenAmountByVToken(address,uint256,uint8)": {
        "notice": "Get token by vToken."
      },
      "getVTokenAmountByToken(address,uint256,uint8)": {
        "notice": "Get vToken by token."
      },
      "setFeeRate(uint16,uint16)": {
        "notice": "Bifrost will set a fee and the data will be consistent with Bifrost Chain."
      }
    },
    "version": 1
  },
  "storageLayout": {
    "storage": [
      {
        "astId": 2229,
        "contract": "contracts/Oracle.sol:Oracle",
        "label": "_owner",
        "offset": 0,
        "slot": "0",
        "type": "t_address"
      },
      {
        "astId": 10037,
        "contract": "contracts/Oracle.sol:Oracle",
        "label": "feeRateInfo",
        "offset": 0,
        "slot": "1",
        "type": "t_struct(FeeRateInfo)10034_storage"
      },
      {
        "astId": 10042,
        "contract": "contracts/Oracle.sol:Oracle",
        "label": "poolInfo",
        "offset": 0,
        "slot": "2",
        "type": "t_mapping(t_address,t_struct(PoolInfo)10029_storage)"
      },
      {
        "astId": 10044,
        "contract": "contracts/Oracle.sol:Oracle",
        "label": "_host",
        "offset": 0,
        "slot": "3",
        "type": "t_address"
      }
    ],
    "types": {
      "t_address": {
        "encoding": "inplace",
        "label": "address",
        "numberOfBytes": "20"
      },
      "t_mapping(t_address,t_struct(PoolInfo)10029_storage)": {
        "encoding": "mapping",
        "key": "t_address",
        "label": "mapping(address => struct Oracle.PoolInfo)",
        "numberOfBytes": "32",
        "value": "t_struct(PoolInfo)10029_storage"
      },
      "t_struct(FeeRateInfo)10034_storage": {
        "encoding": "inplace",
        "label": "struct Oracle.FeeRateInfo",
        "members": [
          {
            "astId": 10031,
            "contract": "contracts/Oracle.sol:Oracle",
            "label": "mintFeeRate",
            "offset": 0,
            "slot": "0",
            "type": "t_uint16"
          },
          {
            "astId": 10033,
            "contract": "contracts/Oracle.sol:Oracle",
            "label": "redeemFeeRate",
            "offset": 2,
            "slot": "0",
            "type": "t_uint16"
          }
        ],
        "numberOfBytes": "32"
      },
      "t_struct(PoolInfo)10029_storage": {
        "encoding": "inplace",
        "label": "struct Oracle.PoolInfo",
        "members": [
          {
            "astId": 10026,
            "contract": "contracts/Oracle.sol:Oracle",
            "label": "tokenAmount",
            "offset": 0,
            "slot": "0",
            "type": "t_uint256"
          },
          {
            "astId": 10028,
            "contract": "contracts/Oracle.sol:Oracle",
            "label": "vTokenAmount",
            "offset": 0,
            "slot": "1",
            "type": "t_uint256"
          }
        ],
        "numberOfBytes": "64"
      },
      "t_uint16": {
        "encoding": "inplace",
        "label": "uint16",
        "numberOfBytes": "2"
      },
      "t_uint256": {
        "encoding": "inplace",
        "label": "uint256",
        "numberOfBytes": "32"
      }
    }
  }
}