{
  "address": "0xb1437aEEa18189eb6D02Dc46cd4D28613D582e9A",
  "abi": [
    {
      "inputs": [
        {
          "internalType": "uint256",
          "name": "requestedSize",
          "type": "uint256"
        },
        {
          "internalType": "uint256",
          "name": "actualSize",
          "type": "uint256"
        }
      ],
      "name": "BatchSizeTooLarge",
      "type": "error"
    },
    {
      "inputs": [
        {
          "internalType": "address",
          "name": "spender",
          "type": "address"
        },
        {
          "internalType": "uint256",
          "name": "allowance",
          "type": "uint256"
        },
        {
          "internalType": "uint256",
          "name": "needed",
          "type": "uint256"
        }
      ],
      "name": "ERC20InsufficientAllowance",
      "type": "error"
    },
    {
      "inputs": [
        {
          "internalType": "address",
          "name": "sender",
          "type": "address"
        },
        {
          "internalType": "uint256",
          "name": "balance",
          "type": "uint256"
        },
        {
          "internalType": "uint256",
          "name": "needed",
          "type": "uint256"
        }
      ],
      "name": "ERC20InsufficientBalance",
      "type": "error"
    },
    {
      "inputs": [
        {
          "internalType": "address",
          "name": "approver",
          "type": "address"
        }
      ],
      "name": "ERC20InvalidApprover",
      "type": "error"
    },
    {
      "inputs": [
        {
          "internalType": "address",
          "name": "receiver",
          "type": "address"
        }
      ],
      "name": "ERC20InvalidReceiver",
      "type": "error"
    },
    {
      "inputs": [
        {
          "internalType": "address",
          "name": "sender",
          "type": "address"
        }
      ],
      "name": "ERC20InvalidSender",
      "type": "error"
    },
    {
      "inputs": [
        {
          "internalType": "address",
          "name": "spender",
          "type": "address"
        }
      ],
      "name": "ERC20InvalidSpender",
      "type": "error"
    },
    {
      "inputs": [
        {
          "internalType": "address",
          "name": "receiver",
          "type": "address"
        },
        {
          "internalType": "uint256",
          "name": "assets",
          "type": "uint256"
        },
        {
          "internalType": "uint256",
          "name": "max",
          "type": "uint256"
        }
      ],
      "name": "ERC4626ExceededMaxDeposit",
      "type": "error"
    },
    {
      "inputs": [
        {
          "internalType": "address",
          "name": "receiver",
          "type": "address"
        },
        {
          "internalType": "uint256",
          "name": "shares",
          "type": "uint256"
        },
        {
          "internalType": "uint256",
          "name": "max",
          "type": "uint256"
        }
      ],
      "name": "ERC4626ExceededMaxMint",
      "type": "error"
    },
    {
      "inputs": [
        {
          "internalType": "address",
          "name": "owner",
          "type": "address"
        },
        {
          "internalType": "uint256",
          "name": "shares",
          "type": "uint256"
        },
        {
          "internalType": "uint256",
          "name": "max",
          "type": "uint256"
        }
      ],
      "name": "ERC4626ExceededMaxRedeem",
      "type": "error"
    },
    {
      "inputs": [
        {
          "internalType": "address",
          "name": "owner",
          "type": "address"
        },
        {
          "internalType": "uint256",
          "name": "assets",
          "type": "uint256"
        },
        {
          "internalType": "uint256",
          "name": "max",
          "type": "uint256"
        }
      ],
      "name": "ERC4626ExceededMaxWithdraw",
      "type": "error"
    },
    {
      "inputs": [],
      "name": "EnforcedPause",
      "type": "error"
    },
    {
      "inputs": [],
      "name": "ExpectedPause",
      "type": "error"
    },
    {
      "inputs": [],
      "name": "InvalidBatchSize",
      "type": "error"
    },
    {
      "inputs": [],
      "name": "InvalidInitialization",
      "type": "error"
    },
    {
      "inputs": [
        {
          "internalType": "address",
          "name": "user",
          "type": "address"
        },
        {
          "internalType": "uint256",
          "name": "currentCount",
          "type": "uint256"
        },
        {
          "internalType": "uint256",
          "name": "maxLimit",
          "type": "uint256"
        }
      ],
      "name": "MaxRedeemRequestsReached",
      "type": "error"
    },
    {
      "inputs": [],
      "name": "NotInitializing",
      "type": "error"
    },
    {
      "inputs": [
        {
          "internalType": "address",
          "name": "account",
          "type": "address"
        }
      ],
      "name": "NotRoleAdmin",
      "type": "error"
    },
    {
      "inputs": [
        {
          "internalType": "address",
          "name": "account",
          "type": "address"
        }
      ],
      "name": "NotTriggerAddress",
      "type": "error"
    },
    {
      "inputs": [
        {
          "internalType": "address",
          "name": "owner",
          "type": "address"
        }
      ],
      "name": "OwnableInvalidOwner",
      "type": "error"
    },
    {
      "inputs": [
        {
          "internalType": "address",
          "name": "account",
          "type": "address"
        }
      ],
      "name": "OwnableUnauthorizedAccount",
      "type": "error"
    },
    {
      "inputs": [
        {
          "internalType": "address",
          "name": "user",
          "type": "address"
        },
        {
          "internalType": "uint256",
          "name": "requestId",
          "type": "uint256"
        }
      ],
      "name": "RequestIdNotFound",
      "type": "error"
    },
    {
      "inputs": [
        {
          "internalType": "address",
          "name": "token",
          "type": "address"
        }
      ],
      "name": "SafeERC20FailedOperation",
      "type": "error"
    },
    {
      "anonymous": false,
      "inputs": [
        {
          "indexed": true,
          "internalType": "address",
          "name": "owner",
          "type": "address"
        },
        {
          "indexed": true,
          "internalType": "address",
          "name": "spender",
          "type": "address"
        },
        {
          "indexed": false,
          "internalType": "uint256",
          "name": "value",
          "type": "uint256"
        }
      ],
      "name": "Approval",
      "type": "event"
    },
    {
      "anonymous": false,
      "inputs": [
        {
          "indexed": false,
          "internalType": "uint256",
          "name": "tokenAmount",
          "type": "uint256"
        },
        {
          "indexed": false,
          "internalType": "uint256",
          "name": "vTokenAmount",
          "type": "uint256"
        }
      ],
      "name": "AsyncMintCompleted",
      "type": "event"
    },
    {
      "anonymous": false,
      "inputs": [
        {
          "indexed": false,
          "internalType": "uint256",
          "name": "vTokenAmount",
          "type": "uint256"
        }
      ],
      "name": "AsyncRedeemCompleted",
      "type": "event"
    },
    {
      "anonymous": false,
      "inputs": [
        {
          "indexed": false,
          "internalType": "uint256",
          "name": "startIndex",
          "type": "uint256"
        },
        {
          "indexed": false,
          "internalType": "uint256",
          "name": "endIndex",
          "type": "uint256"
        },
        {
          "indexed": false,
          "internalType": "uint256",
          "name": "processedCount",
          "type": "uint256"
        }
      ],
      "name": "BatchClaimProcessed",
      "type": "event"
    },
    {
      "anonymous": false,
      "inputs": [
        {
          "indexed": false,
          "internalType": "bytes",
          "name": "oldBifrostDest",
          "type": "bytes"
        },
        {
          "indexed": false,
          "internalType": "bytes",
          "name": "newBifrostDest",
          "type": "bytes"
        }
      ],
      "name": "BifrostDestChanged",
      "type": "event"
    },
    {
      "anonymous": false,
      "inputs": [
        {
          "indexed": true,
          "internalType": "address",
          "name": "sender",
          "type": "address"
        },
        {
          "indexed": true,
          "internalType": "address",
          "name": "owner",
          "type": "address"
        },
        {
          "indexed": false,
          "internalType": "uint256",
          "name": "assets",
          "type": "uint256"
        },
        {
          "indexed": false,
          "internalType": "uint256",
          "name": "shares",
          "type": "uint256"
        }
      ],
      "name": "Deposit",
      "type": "event"
    },
    {
      "anonymous": false,
      "inputs": [
        {
          "indexed": false,
          "internalType": "uint64",
          "name": "version",
          "type": "uint64"
        }
      ],
      "name": "Initialized",
      "type": "event"
    },
    {
      "anonymous": false,
      "inputs": [
        {
          "indexed": false,
          "internalType": "uint256",
          "name": "oldLimit",
          "type": "uint256"
        },
        {
          "indexed": false,
          "internalType": "uint256",
          "name": "newLimit",
          "type": "uint256"
        }
      ],
      "name": "MaxRedeemRequestsPerUserChanged",
      "type": "event"
    },
    {
      "anonymous": false,
      "inputs": [
        {
          "indexed": true,
          "internalType": "address",
          "name": "oldOracle",
          "type": "address"
        },
        {
          "indexed": true,
          "internalType": "address",
          "name": "newOracle",
          "type": "address"
        }
      ],
      "name": "OracleChanged",
      "type": "event"
    },
    {
      "anonymous": false,
      "inputs": [
        {
          "indexed": true,
          "internalType": "address",
          "name": "previousOwner",
          "type": "address"
        },
        {
          "indexed": true,
          "internalType": "address",
          "name": "newOwner",
          "type": "address"
        }
      ],
      "name": "OwnershipTransferred",
      "type": "event"
    },
    {
      "anonymous": false,
      "inputs": [
        {
          "indexed": false,
          "internalType": "address",
          "name": "account",
          "type": "address"
        }
      ],
      "name": "Paused",
      "type": "event"
    },
    {
      "anonymous": false,
      "inputs": [
        {
          "indexed": true,
          "internalType": "uint256",
          "name": "requestId",
          "type": "uint256"
        },
        {
          "indexed": true,
          "internalType": "address",
          "name": "receiver",
          "type": "address"
        },
        {
          "indexed": false,
          "internalType": "uint256",
          "name": "assets",
          "type": "uint256"
        },
        {
          "indexed": false,
          "internalType": "uint256",
          "name": "startTime",
          "type": "uint256"
        },
        {
          "indexed": false,
          "internalType": "uint256",
          "name": "endTime",
          "type": "uint256"
        }
      ],
      "name": "RedeemRequestSuccess",
      "type": "event"
    },
    {
      "anonymous": false,
      "inputs": [
        {
          "indexed": true,
          "internalType": "address",
          "name": "account",
          "type": "address"
        },
        {
          "indexed": false,
          "internalType": "bool",
          "name": "isAdmin",
          "type": "bool"
        }
      ],
      "name": "RoleAdminChanged",
      "type": "event"
    },
    {
      "anonymous": false,
      "inputs": [
        {
          "indexed": true,
          "internalType": "address",
          "name": "oldTokenGateway",
          "type": "address"
        },
        {
          "indexed": true,
          "internalType": "address",
          "name": "newTokenGateway",
          "type": "address"
        }
      ],
      "name": "TokenGatewayChanged",
      "type": "event"
    },
    {
      "anonymous": false,
      "inputs": [
        {
          "indexed": true,
          "internalType": "address",
          "name": "from",
          "type": "address"
        },
        {
          "indexed": true,
          "internalType": "address",
          "name": "to",
          "type": "address"
        },
        {
          "indexed": false,
          "internalType": "uint256",
          "name": "value",
          "type": "uint256"
        }
      ],
      "name": "Transfer",
      "type": "event"
    },
    {
      "anonymous": false,
      "inputs": [
        {
          "indexed": true,
          "internalType": "address",
          "name": "oldAddress",
          "type": "address"
        },
        {
          "indexed": true,
          "internalType": "address",
          "name": "newAddress",
          "type": "address"
        }
      ],
      "name": "TriggerAddressChanged",
      "type": "event"
    },
    {
      "anonymous": false,
      "inputs": [
        {
          "indexed": false,
          "internalType": "address",
          "name": "account",
          "type": "address"
        }
      ],
      "name": "Unpaused",
      "type": "event"
    },
    {
      "anonymous": false,
      "inputs": [
        {
          "indexed": true,
          "internalType": "address",
          "name": "sender",
          "type": "address"
        },
        {
          "indexed": true,
          "internalType": "address",
          "name": "receiver",
          "type": "address"
        },
        {
          "indexed": true,
          "internalType": "address",
          "name": "owner",
          "type": "address"
        },
        {
          "indexed": false,
          "internalType": "uint256",
          "name": "assets",
          "type": "uint256"
        },
        {
          "indexed": false,
          "internalType": "uint256",
          "name": "shares",
          "type": "uint256"
        }
      ],
      "name": "Withdraw",
      "type": "event"
    },
    {
      "inputs": [
        {
          "internalType": "address",
          "name": "owner",
          "type": "address"
        },
        {
          "internalType": "address",
          "name": "spender",
          "type": "address"
        }
      ],
      "name": "allowance",
      "outputs": [
        {
          "internalType": "uint256",
          "name": "",
          "type": "uint256"
        }
      ],
      "stateMutability": "view",
      "type": "function"
    },
    {
      "inputs": [
        {
          "internalType": "address",
          "name": "spender",
          "type": "address"
        },
        {
          "internalType": "uint256",
          "name": "value",
          "type": "uint256"
        }
      ],
      "name": "approve",
      "outputs": [
        {
          "internalType": "bool",
          "name": "",
          "type": "bool"
        }
      ],
      "stateMutability": "nonpayable",
      "type": "function"
    },
    {
      "inputs": [
        {
          "internalType": "address",
          "name": "token",
          "type": "address"
        }
      ],
      "name": "approveTokenGateway",
      "outputs": [],
      "stateMutability": "nonpayable",
      "type": "function"
    },
    {
      "inputs": [],
      "name": "asset",
      "outputs": [
        {
          "internalType": "address",
          "name": "",
          "type": "address"
        }
      ],
      "stateMutability": "view",
      "type": "function"
    },
    {
      "inputs": [
        {
          "internalType": "uint256",
          "name": "relayerFee",
          "type": "uint256"
        },
        {
          "internalType": "uint64",
          "name": "timeout",
          "type": "uint64"
        }
      ],
      "name": "asyncMint",
      "outputs": [],
      "stateMutability": "payable",
      "type": "function"
    },
    {
      "inputs": [
        {
          "internalType": "uint256",
          "name": "relayerFee",
          "type": "uint256"
        },
        {
          "internalType": "uint64",
          "name": "timeout",
          "type": "uint64"
        },
        {
          "internalType": "bytes32",
          "name": "to",
          "type": "bytes32"
        },
        {
          "internalType": "bytes",
          "name": "data",
          "type": "bytes"
        }
      ],
      "name": "asyncRedeem",
      "outputs": [],
      "stateMutability": "payable",
      "type": "function"
    },
    {
      "inputs": [
        {
          "internalType": "address",
          "name": "account",
          "type": "address"
        }
      ],
      "name": "balanceOf",
      "outputs": [
        {
          "internalType": "uint256",
          "name": "",
          "type": "uint256"
        }
      ],
      "stateMutability": "view",
      "type": "function"
    },
    {
      "inputs": [
        {
          "internalType": "uint256",
          "name": "batchSize",
          "type": "uint256"
        }
      ],
      "name": "batchClaim",
      "outputs": [],
      "stateMutability": "nonpayable",
      "type": "function"
    },
    {
      "inputs": [],
      "name": "bifrostDest",
      "outputs": [
        {
          "internalType": "bytes",
          "name": "",
          "type": "bytes"
        }
      ],
      "stateMutability": "view",
      "type": "function"
    },
    {
      "inputs": [
        {
          "internalType": "address",
          "name": "_from",
          "type": "address"
        },
        {
          "internalType": "uint256",
          "name": "_amount",
          "type": "uint256"
        }
      ],
      "name": "burn",
      "outputs": [],
      "stateMutability": "nonpayable",
      "type": "function"
    },
    {
      "inputs": [
        {
          "internalType": "address",
          "name": "_account",
          "type": "address"
        },
        {
          "internalType": "bool",
          "name": "_isAdmin",
          "type": "bool"
        }
      ],
      "name": "changeRoleAdmin",
      "outputs": [],
      "stateMutability": "nonpayable",
      "type": "function"
    },
    {
      "inputs": [
        {
          "internalType": "uint256",
          "name": "shares",
          "type": "uint256"
        }
      ],
      "name": "convertToAssets",
      "outputs": [
        {
          "internalType": "uint256",
          "name": "",
          "type": "uint256"
        }
      ],
      "stateMutability": "view",
      "type": "function"
    },
    {
      "inputs": [
        {
          "internalType": "uint256",
          "name": "assets",
          "type": "uint256"
        }
      ],
      "name": "convertToShares",
      "outputs": [
        {
          "internalType": "uint256",
          "name": "",
          "type": "uint256"
        }
      ],
      "stateMutability": "view",
      "type": "function"
    },
    {
      "inputs": [],
      "name": "currentCycleMintTokenAmount",
      "outputs": [
        {
          "internalType": "uint256",
          "name": "",
          "type": "uint256"
        }
      ],
      "stateMutability": "view",
      "type": "function"
    },
    {
      "inputs": [],
      "name": "currentCycleMintVTokenAmount",
      "outputs": [
        {
          "internalType": "uint256",
          "name": "",
          "type": "uint256"
        }
      ],
      "stateMutability": "view",
      "type": "function"
    },
    {
      "inputs": [],
      "name": "currentCycleRedeemVTokenAmount",
      "outputs": [
        {
          "internalType": "uint256",
          "name": "",
          "type": "uint256"
        }
      ],
      "stateMutability": "view",
      "type": "function"
    },
    {
      "inputs": [],
      "name": "decimals",
      "outputs": [
        {
          "internalType": "uint8",
          "name": "",
          "type": "uint8"
        }
      ],
      "stateMutability": "view",
      "type": "function"
    },
    {
      "inputs": [
        {
          "internalType": "uint256",
          "name": "assets",
          "type": "uint256"
        },
        {
          "internalType": "address",
          "name": "receiver",
          "type": "address"
        }
      ],
      "name": "deposit",
      "outputs": [
        {
          "internalType": "uint256",
          "name": "",
          "type": "uint256"
        }
      ],
      "stateMutability": "nonpayable",
      "type": "function"
    },
    {
      "inputs": [
        {
          "internalType": "address",
          "name": "user",
          "type": "address"
        }
      ],
      "name": "getUserRedeemRequests",
      "outputs": [
        {
          "components": [
            {
              "internalType": "address",
              "name": "receiver",
              "type": "address"
            },
            {
              "internalType": "uint256",
              "name": "assets",
              "type": "uint256"
            },
            {
              "internalType": "uint256",
              "name": "startTime",
              "type": "uint256"
            }
          ],
          "internalType": "struct VTokenBase.RedeemRequest[]",
          "name": "",
          "type": "tuple[]"
        }
      ],
      "stateMutability": "view",
      "type": "function"
    },
    {
      "inputs": [
        {
          "internalType": "contract IERC20",
          "name": "asset",
          "type": "address"
        },
        {
          "internalType": "address",
          "name": "owner",
          "type": "address"
        },
        {
          "internalType": "string",
          "name": "name",
          "type": "string"
        },
        {
          "internalType": "string",
          "name": "symbol",
          "type": "string"
        }
      ],
      "name": "initialize",
      "outputs": [],
      "stateMutability": "nonpayable",
      "type": "function"
    },
    {
      "inputs": [
        {
          "internalType": "address",
          "name": "",
          "type": "address"
        }
      ],
      "name": "maxDeposit",
      "outputs": [
        {
          "internalType": "uint256",
          "name": "",
          "type": "uint256"
        }
      ],
      "stateMutability": "view",
      "type": "function"
    },
    {
      "inputs": [
        {
          "internalType": "address",
          "name": "",
          "type": "address"
        }
      ],
      "name": "maxMint",
      "outputs": [
        {
          "internalType": "uint256",
          "name": "",
          "type": "uint256"
        }
      ],
      "stateMutability": "view",
      "type": "function"
    },
    {
      "inputs": [
        {
          "internalType": "address",
          "name": "owner",
          "type": "address"
        }
      ],
      "name": "maxRedeem",
      "outputs": [
        {
          "internalType": "uint256",
          "name": "",
          "type": "uint256"
        }
      ],
      "stateMutability": "view",
      "type": "function"
    },
    {
      "inputs": [],
      "name": "maxRedeemRequestsPerUser",
      "outputs": [
        {
          "internalType": "uint256",
          "name": "",
          "type": "uint256"
        }
      ],
      "stateMutability": "view",
      "type": "function"
    },
    {
      "inputs": [
        {
          "internalType": "address",
          "name": "owner",
          "type": "address"
        }
      ],
      "name": "maxWithdraw",
      "outputs": [
        {
          "internalType": "uint256",
          "name": "",
          "type": "uint256"
        }
      ],
      "stateMutability": "view",
      "type": "function"
    },
    {
      "inputs": [
        {
          "internalType": "address",
          "name": "_to",
          "type": "address"
        },
        {
          "internalType": "uint256",
          "name": "_amount",
          "type": "uint256"
        }
      ],
      "name": "mint",
      "outputs": [],
      "stateMutability": "nonpayable",
      "type": "function"
    },
    {
      "inputs": [
        {
          "internalType": "uint256",
          "name": "shares",
          "type": "uint256"
        },
        {
          "internalType": "address",
          "name": "receiver",
          "type": "address"
        }
      ],
      "name": "mint",
      "outputs": [
        {
          "internalType": "uint256",
          "name": "",
          "type": "uint256"
        }
      ],
      "stateMutability": "nonpayable",
      "type": "function"
    },
    {
      "inputs": [],
      "name": "name",
      "outputs": [
        {
          "internalType": "string",
          "name": "",
          "type": "string"
        }
      ],
      "stateMutability": "view",
      "type": "function"
    },
    {
      "inputs": [],
      "name": "nextRequestId",
      "outputs": [
        {
          "internalType": "uint256",
          "name": "",
          "type": "uint256"
        }
      ],
      "stateMutability": "view",
      "type": "function"
    },
    {
      "inputs": [],
      "name": "oracle",
      "outputs": [
        {
          "internalType": "contract Oracle",
          "name": "",
          "type": "address"
        }
      ],
      "stateMutability": "view",
      "type": "function"
    },
    {
      "inputs": [],
      "name": "owner",
      "outputs": [
        {
          "internalType": "address",
          "name": "",
          "type": "address"
        }
      ],
      "stateMutability": "view",
      "type": "function"
    },
    {
      "inputs": [],
      "name": "pause",
      "outputs": [],
      "stateMutability": "nonpayable",
      "type": "function"
    },
    {
      "inputs": [],
      "name": "paused",
      "outputs": [
        {
          "internalType": "bool",
          "name": "",
          "type": "bool"
        }
      ],
      "stateMutability": "view",
      "type": "function"
    },
    {
      "inputs": [
        {
          "internalType": "uint256",
          "name": "assets",
          "type": "uint256"
        }
      ],
      "name": "previewDeposit",
      "outputs": [
        {
          "internalType": "uint256",
          "name": "",
          "type": "uint256"
        }
      ],
      "stateMutability": "view",
      "type": "function"
    },
    {
      "inputs": [
        {
          "internalType": "uint256",
          "name": "shares",
          "type": "uint256"
        }
      ],
      "name": "previewMint",
      "outputs": [
        {
          "internalType": "uint256",
          "name": "",
          "type": "uint256"
        }
      ],
      "stateMutability": "view",
      "type": "function"
    },
    {
      "inputs": [
        {
          "internalType": "uint256",
          "name": "shares",
          "type": "uint256"
        }
      ],
      "name": "previewRedeem",
      "outputs": [
        {
          "internalType": "uint256",
          "name": "",
          "type": "uint256"
        }
      ],
      "stateMutability": "view",
      "type": "function"
    },
    {
      "inputs": [
        {
          "internalType": "uint256",
          "name": "assets",
          "type": "uint256"
        }
      ],
      "name": "previewWithdraw",
      "outputs": [
        {
          "internalType": "uint256",
          "name": "",
          "type": "uint256"
        }
      ],
      "stateMutability": "view",
      "type": "function"
    },
    {
      "inputs": [
        {
          "internalType": "uint256",
          "name": "shares",
          "type": "uint256"
        },
        {
          "internalType": "address",
          "name": "receiver",
          "type": "address"
        },
        {
          "internalType": "address",
          "name": "owner",
          "type": "address"
        }
      ],
      "name": "redeem",
      "outputs": [
        {
          "internalType": "uint256",
          "name": "",
          "type": "uint256"
        }
      ],
      "stateMutability": "nonpayable",
      "type": "function"
    },
    {
      "inputs": [
        {
          "internalType": "uint256",
          "name": "",
          "type": "uint256"
        }
      ],
      "name": "redeemQueue",
      "outputs": [
        {
          "internalType": "address",
          "name": "receiver",
          "type": "address"
        },
        {
          "internalType": "uint256",
          "name": "assets",
          "type": "uint256"
        },
        {
          "internalType": "uint256",
          "name": "startTime",
          "type": "uint256"
        }
      ],
      "stateMutability": "view",
      "type": "function"
    },
    {
      "inputs": [],
      "name": "redeemQueueIndex",
      "outputs": [
        {
          "internalType": "uint256",
          "name": "",
          "type": "uint256"
        }
      ],
      "stateMutability": "view",
      "type": "function"
    },
    {
      "inputs": [],
      "name": "renounceOwnership",
      "outputs": [],
      "stateMutability": "nonpayable",
      "type": "function"
    },
    {
      "inputs": [
        {
          "internalType": "address",
          "name": "",
          "type": "address"
        }
      ],
      "name": "rolesAdmin",
      "outputs": [
        {
          "internalType": "bool",
          "name": "",
          "type": "bool"
        }
      ],
      "stateMutability": "view",
      "type": "function"
    },
    {
      "inputs": [
        {
          "internalType": "bytes",
          "name": "_bifrostDest",
          "type": "bytes"
        }
      ],
      "name": "setBifrostDest",
      "outputs": [],
      "stateMutability": "nonpayable",
      "type": "function"
    },
    {
      "inputs": [
        {
          "internalType": "uint256",
          "name": "_maxRedeemRequestsPerUser",
          "type": "uint256"
        }
      ],
      "name": "setMaxRedeemRequestsPerUser",
      "outputs": [],
      "stateMutability": "nonpayable",
      "type": "function"
    },
    {
      "inputs": [
        {
          "internalType": "address",
          "name": "_oracle",
          "type": "address"
        }
      ],
      "name": "setOracle",
      "outputs": [],
      "stateMutability": "nonpayable",
      "type": "function"
    },
    {
      "inputs": [
        {
          "internalType": "address",
          "name": "_tokenGateway",
          "type": "address"
        }
      ],
      "name": "setTokenGateway",
      "outputs": [],
      "stateMutability": "nonpayable",
      "type": "function"
    },
    {
      "inputs": [
        {
          "internalType": "address",
          "name": "_triggerAddress",
          "type": "address"
        }
      ],
      "name": "setTriggerAddress",
      "outputs": [],
      "stateMutability": "nonpayable",
      "type": "function"
    },
    {
      "inputs": [
        {
          "internalType": "bytes4",
          "name": "interfaceId",
          "type": "bytes4"
        }
      ],
      "name": "supportsInterface",
      "outputs": [
        {
          "internalType": "bool",
          "name": "",
          "type": "bool"
        }
      ],
      "stateMutability": "view",
      "type": "function"
    },
    {
      "inputs": [],
      "name": "symbol",
      "outputs": [
        {
          "internalType": "string",
          "name": "",
          "type": "string"
        }
      ],
      "stateMutability": "view",
      "type": "function"
    },
    {
      "inputs": [],
      "name": "tokenGateway",
      "outputs": [
        {
          "internalType": "contract ITokenGateway",
          "name": "",
          "type": "address"
        }
      ],
      "stateMutability": "view",
      "type": "function"
    },
    {
      "inputs": [],
      "name": "totalAssets",
      "outputs": [
        {
          "internalType": "uint256",
          "name": "",
          "type": "uint256"
        }
      ],
      "stateMutability": "view",
      "type": "function"
    },
    {
      "inputs": [],
      "name": "totalSupply",
      "outputs": [
        {
          "internalType": "uint256",
          "name": "",
          "type": "uint256"
        }
      ],
      "stateMutability": "view",
      "type": "function"
    },
    {
      "inputs": [
        {
          "internalType": "address",
          "name": "to",
          "type": "address"
        },
        {
          "internalType": "uint256",
          "name": "value",
          "type": "uint256"
        }
      ],
      "name": "transfer",
      "outputs": [
        {
          "internalType": "bool",
          "name": "",
          "type": "bool"
        }
      ],
      "stateMutability": "nonpayable",
      "type": "function"
    },
    {
      "inputs": [
        {
          "internalType": "address",
          "name": "from",
          "type": "address"
        },
        {
          "internalType": "address",
          "name": "to",
          "type": "address"
        },
        {
          "internalType": "uint256",
          "name": "value",
          "type": "uint256"
        }
      ],
      "name": "transferFrom",
      "outputs": [
        {
          "internalType": "bool",
          "name": "",
          "type": "bool"
        }
      ],
      "stateMutability": "nonpayable",
      "type": "function"
    },
    {
      "inputs": [
        {
          "internalType": "address",
          "name": "newOwner",
          "type": "address"
        }
      ],
      "name": "transferOwnership",
      "outputs": [],
      "stateMutability": "nonpayable",
      "type": "function"
    },
    {
      "inputs": [],
      "name": "triggerAddress",
      "outputs": [
        {
          "internalType": "address",
          "name": "",
          "type": "address"
        }
      ],
      "stateMutability": "view",
      "type": "function"
    },
    {
      "inputs": [],
      "name": "unpause",
      "outputs": [],
      "stateMutability": "nonpayable",
      "type": "function"
    },
    {
      "inputs": [
        {
          "internalType": "address",
          "name": "",
          "type": "address"
        },
        {
          "internalType": "uint256",
          "name": "",
          "type": "uint256"
        }
      ],
      "name": "userRedeemRequests",
      "outputs": [
        {
          "internalType": "uint256",
          "name": "",
          "type": "uint256"
        }
      ],
      "stateMutability": "view",
      "type": "function"
    },
    {
      "inputs": [
        {
          "internalType": "uint256",
          "name": "assets",
          "type": "uint256"
        },
        {
          "internalType": "address",
          "name": "receiver",
          "type": "address"
        },
        {
          "internalType": "address",
          "name": "owner",
          "type": "address"
        }
      ],
      "name": "withdraw",
      "outputs": [
        {
          "internalType": "uint256",
          "name": "",
          "type": "uint256"
        }
      ],
      "stateMutability": "nonpayable",
      "type": "function"
    },
    {
      "inputs": [
        {
          "internalType": "address",
          "name": "token",
          "type": "address"
        },
        {
          "internalType": "uint256",
          "name": "amount",
          "type": "uint256"
        },
        {
          "internalType": "address",
          "name": "to",
          "type": "address"
        }
      ],
      "name": "withdrawFeeToken",
      "outputs": [],
      "stateMutability": "nonpayable",
      "type": "function"
    }
  ],
  "transactionHash": "0x05c47c26ff8919f55c52c00063dd6a05f80ea85b29b784fa71000e0b6b294ffc",
  "args": [],
  "numDeployments": 3,
  "solcInputHash": "2b72f1e2106ef67888d9af636c667d02",
  "bytecode": "0x608060405234801561001057600080fd5b50613304806100206000396000f3fe6080604052600436106103955760003560e01c80637adbf973116101dc578063a348b2ea11610102578063c63d75b6116100a0578063dd62ed3e1161006f578063dd62ed3e14610a5f578063ef8b30f7146109ff578063f2fde38b14610a7f578063f8e8826614610a9f57600080fd5b8063c63d75b614610601578063c6e6f592146109ff578063ce96cb7714610a1f578063d905777e14610a3f57600080fd5b8063b3d7f6b9116100dc578063b3d7f6b91461097f578063b460af941461099f578063b9611c59146109bf578063ba087652146109df57600080fd5b8063a348b2ea1461091f578063a9059cbb1461093f578063aa0d6e8e1461095f57600080fd5b80638da5cb5b1161017a57806395d89b411161014957806395d89b41146108825780639891bcd6146108975780639b8b8712146108ec5780639dc29fac146108ff57600080fd5b80638da5cb5b1461080d5780638e08815914610822578063926d69a21461084257806394bf804d1461086257600080fd5b80638456cb59116101b65780638456cb59146107af57806387ce75ba146107c4578063883f3030146107d75780638d654bca146107f757600080fd5b80637adbf973146107595780637dc0d1d01461077957806383003d0a1461079957600080fd5b806334d5a379116102c157806355aea7671161025f5780636a84a9851161022e5780636a84a985146106ee5780636e553f651461070457806370a0823114610724578063715018a61461074457600080fd5b806355aea767146106595780635ba6dbff146106795780635c975abb146106a95780636a7e2e50146106ce57600080fd5b8063402d267d1161029b578063402d267d1461060157806340c10f19146106235780634cdad506146104625780634f284dcb1461064357600080fd5b806334d5a379146105aa57806338d52e0f146105d75780633f4ba83a146105ec57600080fd5b806309c5dacc116103395780632016a0d2116103085780632016a0d214610521578063238d1b3d1461054357806323b872dd14610563578063313ce5671461058357600080fd5b806309c5dacc146104a25780630a28a477146104b857806318160ddd146104d857806318e82c911461050c57600080fd5b806301ffc9a71161037557806301ffc9a71461041057806306fdde031461044057806307a2d13a14610462578063095ea7b31461048257600080fd5b8062897cb61461039a57806291be55146103c357806301e1d114146103fb575b600080fd5b3480156103a657600080fd5b506103b060055481565b6040519081526020015b60405180910390f35b3480156103cf57600080fd5b506003546103e3906001600160a01b031681565b6040516001600160a01b0390911681526020016103ba565b34801561040757600080fd5b506103b0610abf565b34801561041c57600080fd5b5061043061042b3660046129a1565b610b4b565b60405190151581526020016103ba565b34801561044c57600080fd5b50610455610b9d565b6040516103ba9190612a1b565b34801561046e57600080fd5b506103b061047d366004612a2e565b610c60565b34801561048e57600080fd5b5061043061049d366004612a5c565b610c6d565b3480156104ae57600080fd5b506103b060065481565b3480156104c457600080fd5b506103b06104d3366004612a2e565b610c85565b3480156104e457600080fd5b507f52c63247e1f47db19d5ce0460030c497f067ca4cebf71ba98eeadabe20bace02546103b0565b34801561051857600080fd5b50610455610c92565b34801561052d57600080fd5b5061054161053c366004612b4b565b610d20565b005b34801561054f57600080fd5b5061054161055e366004612a2e565b610e34565b34801561056f57600080fd5b5061043061057e366004612bd3565b610e82565b34801561058f57600080fd5b50610598610ea6565b60405160ff90911681526020016103ba565b3480156105b657600080fd5b506105ca6105c5366004612c14565b610ed8565b6040516103ba9190612c31565b3480156105e357600080fd5b506103e3611051565b3480156105f857600080fd5b50610541611074565b34801561060d57600080fd5b506103b061061c366004612c14565b5060001990565b34801561062f57600080fd5b5061054161063e366004612a5c565b611086565b34801561064f57600080fd5b506103b060075481565b34801561066557600080fd5b50610541610674366004612a2e565b6110d7565b34801561068557600080fd5b50610430610694366004612c14565b60006020819052908152604090205460ff1681565b3480156106b557600080fd5b506000805160206132af8339815191525460ff16610430565b3480156106da57600080fd5b506105416106e9366004612ca1565b6113e3565b3480156106fa57600080fd5b506103b060095481565b34801561071057600080fd5b506103b061071f366004612cda565b611448565b34801561073057600080fd5b506103b061073f366004612c14565b611497565b34801561075057600080fd5b506105416114bf565b34801561076557600080fd5b50610541610774366004612c14565b6114d1565b34801561078557600080fd5b506002546103e3906001600160a01b031681565b3480156107a557600080fd5b506103b0600a5481565b3480156107bb57600080fd5b5061054161152b565b6105416107d2366004612d1b565b61153b565b3480156107e357600080fd5b506105416107f2366004612d47565b6117a9565b34801561080357600080fd5b506103b0600b5481565b34801561081957600080fd5b506103e36117ca565b34801561082e57600080fd5b5061054161083d366004612d89565b6117f3565b34801561084e57600080fd5b506103b061085d366004612a5c565b6118cb565b34801561086e57600080fd5b506103b061087d366004612cda565b6118fc565b34801561088e57600080fd5b5061045561193e565b3480156108a357600080fd5b506108dd6108b2366004612a2e565b6008602052600090815260409020805460018201546002909201546001600160a01b03909116919083565b6040516103ba93929190612dbd565b6105416108fa366004612dde565b61197d565b34801561090b57600080fd5b5061054161091a366004612a5c565b611b3c565b34801561092b57600080fd5b5061054161093a366004612c14565b611b63565b34801561094b57600080fd5b5061043061095a366004612a5c565b611bbd565b34801561096b57600080fd5b506001546103e3906001600160a01b031681565b34801561098b57600080fd5b506103b061099a366004612a2e565b611bcb565b3480156109ab57600080fd5b506103b06109ba366004612e32565b611bd8565b3480156109cb57600080fd5b506105416109da366004612c14565b611bf5565b3480156109eb57600080fd5b506103b06109fa366004612e32565b611c4f565b348015610a0b57600080fd5b506103b0610a1a366004612a2e565b611c64565b348015610a2b57600080fd5b506103b0610a3a366004612c14565b611c71565b348015610a4b57600080fd5b506103b0610a5a366004612c14565b611c86565b348015610a6b57600080fd5b506103b0610a7a366004612e69565b611c91565b348015610a8b57600080fd5b50610541610a9a366004612c14565b611cdb565b348015610aab57600080fd5b50610541610aba366004612c14565b611d19565b60025460009081906001600160a01b0316639a7b5f11610add611051565b6040516001600160e01b031960e084901b1681526001600160a01b0390911660048201526024016040805180830381865afa158015610b20573d6000803e3d6000fd5b505050506040513d601f19601f82011682018060405250810190610b449190612e97565b5092915050565b60006001600160e01b0319821663043eff2d60e51b1480610b7c57506001600160e01b031982166336372b0760e01b145b80610b9757506301ffc9a760e01b6001600160e01b03198316145b92915050565b7f52c63247e1f47db19d5ce0460030c497f067ca4cebf71ba98eeadabe20bace03805460609160008051602061326f83398151915291610bdc90612ebb565b80601f0160208091040260200160405190810160405280929190818152602001828054610c0890612ebb565b8015610c555780601f10610c2a57610100808354040283529160200191610c55565b820191906000526020600020905b815481529060010190602001808311610c3857829003601f168201915b505050505091505090565b6000610b97826000611d99565b600033610c7b818585611e1d565b5060019392505050565b6000610b97826001611e2a565b60048054610c9f90612ebb565b80601f0160208091040260200160405190810160405280929190818152602001828054610ccb90612ebb565b8015610d185780601f10610ced57610100808354040283529160200191610d18565b820191906000526020600020905b815481529060010190602001808311610cfb57829003601f168201915b505050505081565b7ff0c57e16840df040f15088dc2f81fe391c3923bec73e23a9662efc9c229c6a008054600160401b810460ff1615906001600160401b0316600081158015610d655750825b90506000826001600160401b03166001148015610d815750303b155b905081158015610d8f575080155b15610dad5760405163f92ee8a960e01b815260040160405180910390fd5b845467ffffffffffffffff191660011785558315610dd757845460ff60401b1916600160401b1785555b610de389898989611e46565b8315610e2957845460ff60401b19168555604051600181527fc7f505b2f371ae2175ee4913f4499e1f2633a7b5936321eed1cdaeb6115181d29060200160405180910390a15b505050505050505050565b610e3c611e88565b600b80549082905560408051828152602081018490527f689cf0801a16d2fbd2d89c2dcd4a0171254336718bb4294c828f14512f7b0e2f91015b60405180910390a15050565b600033610e90858285611eba565b610e9b858585611f08565b506001949350505050565b60008060008051602061328f833981519152905060008154610ed29190600160a01b900460ff16612f0b565b91505090565b6001600160a01b0381166000908152600c60209081526040808320805482518185028101850190935280835260609493830182828015610f3757602002820191906000526020600020905b815481526020019060010190808311610f23575b50505050509050600081516001600160401b03811115610f5957610f59612a88565b604051908082528060200260200182016040528015610fb757816020015b610fa4604051806060016040528060006001600160a01b0316815260200160008152602001600081525090565b815260200190600190039081610f775790505b50905060005b82518110156110495760086000848381518110610fdc57610fdc612f24565b6020908102919091018101518252818101929092526040908101600020815160608101835281546001600160a01b031681526001820154938101939093526002015490820152825183908390811061103657611036612f24565b6020908102919091010152600101610fbd565b509392505050565b60008060008051602061328f8339815191525b546001600160a01b031692915050565b61107c611e88565b611084611f67565b565b3360009081526020819052604090205460ff166110c957335b60405163cf783f1b60e01b81526001600160a01b0390911660048201526024015b60405180910390fd5b6110d38282611fc7565b5050565b6003546001600160a01b0316336001600160a01b03161461111957335b6040516334adc1f160e11b81526001600160a01b0390911660048201526024016110c0565b600954600a541061113d57604051637862e95960e01b815260040160405180910390fd5b6000600a5460095461114f9190612f3a565b90508082111561117b5760405162ef8cfb60e11b815260048101839052602481018290526044016110c0565b600a545b82600a5461118d9190612f4d565b81101561137c57600081815260086020908152604091829020825160608101845281546001600160a01b03168152600182015492810183905260029091015492810192909252156113735780516001600160a01b03166000908152600c6020526040812090805b82548110156112a2578483828154811061121057611210612f24565b90600052602060002001540361129a578254839061123090600190612f3a565b8154811061124057611240612f24565b906000526020600020015483828154811061125d5761125d612f24565b90600052602060002001819055508280548061127b5761127b612f60565b60019003818190600052602060002001600090559055600191506112a2565b6001016111f4565b50806112d65782516040516373935b0d60e01b81526001600160a01b039091166004820152602481018590526044016110c0565b6112ed6112e1611051565b84516020860151611ffd565b600084815260086020908152604080832080546001600160a01b0319168155600181018490556002019290925584518582015186840151845191825292810192909252428284015291516001600160a01b039092169186917f76d00d6cfa32c6308326ca8a100f1796cb289742d85aca145ad7f845e33bf703919081900360600190a350505b5060010161117f565b5081600a600082825461138f9190612f4d565b9091555050600a547f5dfc209085658cd80f141069fdbe6b6c3b91f6200325dcba9eb3e64d513aa9af906113c4908490612f3a565b600a546040805192835260208301919091528101849052606001610e76565b6113eb611e88565b6001600160a01b03821660008181526020818152604091829020805460ff191685151590811790915591519182527f060a88436ef512bdcb7bfc094a8ffe4cc5d0915141714206a44f3608a52ea5e4910160405180910390a25050565b600061145261205c565b82600660008282546114649190612f4d565b9091555060009050611476848461208d565b9050806005600082825461148a9190612f4d565b9091555090949350505050565b6001600160a01b0316600090815260008051602061326f833981519152602052604090205490565b6114c7611e88565b61108460006120ab565b6114d9611e88565b600280546001600160a01b038381166001600160a01b0319831681179093556040519116919082907f05cd89403c6bdeac21c2ff33de395121a31fa1bc2bf3adf4825f1f86e79969dd90600090a35050565b611533611e88565b61108461211c565b6003546001600160a01b0316336001600160a01b03161461155c57336110f4565b600554604080514663ffffffff16602082015280820192909252805180830382018152606090920190526000611590611051565b6001600160a01b03166395d89b416040518163ffffffff1660e01b8152600401600060405180830381865afa1580156115cd573d6000803e3d6000fd5b505050506040513d6000823e601f3d908101601f191682016040526115f59190810190612f76565b805190602001209050600060405180610120016040528060065481526020018681526020018381526020016001151581526020016b6d6f646ca09b1c60e865024560a01b60001b81526020016004805461164e90612ebb565b80601f016020809104026020016040519081016040528092919081815260200182805461167a90612ebb565b80156116c75780601f1061169c576101008083540402835291602001916116c7565b820191906000526020600020905b8154815290600101906020018083116116aa57829003601f168201915b50505091835250506001600160401b03861660208201526000604080830191909152606090910185905260015490516386f28b7560e01b81529192506001600160a01b0316906386f28b7590611721908490600401612fe3565b600060405180830381600087803b15801561173b57600080fd5b505af115801561174f573d6000803e3d6000fd5b50506006546005546040517f6b45cf5821ea448f3b4bc2d17d84adc7ce8e6551c12a8011bc7758689625c7ae94506117909350918252602082015260400190565b60405180910390a1505060006005819055600655505050565b6117b1611e88565b6117c56001600160a01b0384168284611ffd565b505050565b6000807f9016d09d72d40fdae2fd8ceac6b6234c7706214fd39c1cd1e609a0528c199300611064565b6117fb611e88565b60006004805461180a90612ebb565b80601f016020809104026020016040519081016040528092919081815260200182805461183690612ebb565b80156118835780601f1061185857610100808354040283529160200191611883565b820191906000526020600020905b81548152906001019060200180831161186657829003601f168201915b50505050509050816004908161189991906130dc565b507f4a87d30ded0d321cd83bdb36301f8649eb3f34385dbee72c4f9bfc34f2fa09908183604051610e7692919061319b565b600c60205281600052604060002081815481106118e757600080fd5b90600052602060002001600091509150505481565b600061190661205c565b82600560008282546119189190612f4d565b909155506000905061192a8484612165565b9050806006600082825461148a9190612f4d565b7f52c63247e1f47db19d5ce0460030c497f067ca4cebf71ba98eeadabe20bace04805460609160008051602061326f83398151915291610bdc90612ebb565b6003546001600160a01b0316336001600160a01b03161461199e57336110f4565b60006119a861193e565b80519060200120905060006040518061012001604052806007548152602001878152602001838152602001600115158152602001858152602001600480546119ef90612ebb565b80601f0160208091040260200160405190810160405280929190818152602001828054611a1b90612ebb565b8015611a685780601f10611a3d57610100808354040283529160200191611a68565b820191906000526020600020905b815481529060010190602001808311611a4b57829003601f168201915b50505091835250506001600160401b03871660208201526000604080830191909152606090910185905260015490516386f28b7560e01b81529192506001600160a01b0316906386f28b7590611ac2908490600401612fe3565b600060405180830381600087803b158015611adc57600080fd5b505af1158015611af0573d6000803e3d6000fd5b505050507f308b332f2a0d9e0ea7897e76316d8cc9509d09223c277579da7938440f3f8d31600754604051611b2791815260200190565b60405180910390a15050600060075550505050565b3360009081526020819052604090205460ff16611b59573361109f565b6110d38282612183565b611b6b611e88565b600380546001600160a01b038381166001600160a01b0319831681179093556040519116919082907ffb4f486d94e178196d42ba25e8dc7634b877c66d343f32cbdf17877d909f71c690600090a35050565b600033610c7b818585611f08565b6000610b97826001611d99565b6000611be261205c565b611bed8484846121b9565b949350505050565b611bfd611e88565b600180546001600160a01b038381166001600160a01b0319831681179093556040519116919082907f6614a509f091642a5c221a9e48c926deeb5e016abd4fc042aab22af9efa79e4490600090a35050565b6000611c5961205c565b611bed848484612211565b6000610b97826000611e2a565b6000610b97611c7f83611497565b6000611d99565b6000610b9782611497565b6001600160a01b0391821660009081527f52c63247e1f47db19d5ce0460030c497f067ca4cebf71ba98eeadabe20bace016020908152604080832093909416825291909152205490565b611ce3611e88565b6001600160a01b038116611d0d57604051631e4fbdf760e01b8152600060048201526024016110c0565b611d16816120ab565b50565b611d21611e88565b60015460405163095ea7b360e01b81526001600160a01b03918216600482015260001960248201529082169063095ea7b3906044016020604051808303816000875af1158015611d75573d6000803e3d6000fd5b505050506040513d601f19601f820116820180604052508101906110d391906131c0565b6002546000906001600160a01b031663a71b35ab611db5611051565b85856040518463ffffffff1660e01b8152600401611dd5939291906131dd565b602060405180830381865afa158015611df2573d6000803e3d6000fd5b505050506040513d601f19601f82011682018060405250810190611e169190613220565b9392505050565b6117c58383836001612260565b6002546000906001600160a01b03166398a90900611db5611051565b611e4e612348565b611e588282612391565b611e61846123a3565b611e6a836123b4565b611e726123c5565b611e7a6123d5565b611e8261211c565b50505050565b33611e916117ca565b6001600160a01b0316146110845760405163118cdaa760e01b81523360048201526024016110c0565b6000611ec68484611c91565b9050600019811015611e825781811015611ef957828183604051637dc7a0d960e11b81526004016110c093929190612dbd565b611e8284848484036000612260565b6001600160a01b038316611f3257604051634b637e8f60e11b8152600060048201526024016110c0565b6001600160a01b038216611f5c5760405163ec442f0560e01b8152600060048201526024016110c0565b6117c58383836123dd565b611f6f612508565b6000805160206132af833981519152805460ff191681557f5db9ee0a495bf2e6ff9c91a7834c1ba4fdd244a5e8aa4e537bd38aeae4b073aa335b6040516001600160a01b03909116815260200160405180910390a150565b6001600160a01b038216611ff15760405163ec442f0560e01b8152600060048201526024016110c0565b6110d3600083836123dd565b6040516001600160a01b038381166024830152604482018390526117c591859182169063a9059cbb906064015b604051602081830303815290604052915060e01b6020820180516001600160e01b038381831617835250505050612538565b6000805160206132af8339815191525460ff16156110845760405163d93c066560e01b815260040160405180910390fd5b6000600019600061209d85611c64565b9050611bed338587846125a9565b7f9016d09d72d40fdae2fd8ceac6b6234c7706214fd39c1cd1e609a0528c19930080546001600160a01b031981166001600160a01b03848116918217845560405192169182907f8be0079c531659141344cd1fd0a4f28419497f9722a3daafe3b4186f6b6457e090600090a3505050565b61212461205c565b6000805160206132af833981519152805460ff191660011781557f62e78cea01bee320cd4e420270b5ea74000d11b0c9f74754ebdbfc544b05a25833611fa9565b6000600019600061217585611bcb565b9050611bed338583886125a9565b6001600160a01b0382166121ad57604051634b637e8f60e11b8152600060048201526024016110c0565b6110d3826000836123dd565b6000806121c583611c71565b9050808511156121ee57828582604051633fa733bb60e21b81526004016110c093929190612dbd565b60006121f986610c85565b90506122083386868985612627565b95945050505050565b60008061221d83611c86565b90508085111561224657828582604051632e52afbb60e21b81526004016110c093929190612dbd565b600061225186610c60565b9050612208338686848a612627565b60008051602061326f8339815191526001600160a01b0385166122995760405163e602df0560e01b8152600060048201526024016110c0565b6001600160a01b0384166122c357604051634a1406b160e11b8152600060048201526024016110c0565b6001600160a01b0380861660009081526001830160209081526040808320938816835292905220839055811561234157836001600160a01b0316856001600160a01b03167f8c5be1e5ebec7d5bd14f71427d1e84f3dd0314c0f7b2291e5b200ac8c7c3b9258560405161233891815260200190565b60405180910390a35b5050505050565b7ff0c57e16840df040f15088dc2f81fe391c3923bec73e23a9662efc9c229c6a0054600160401b900460ff1661108457604051631afcd79f60e31b815260040160405180910390fd5b612399612348565b6110d382826127a0565b6123ab612348565b611d16816127f1565b6123bc612348565b611d1681612863565b6123cd612348565b61108461286b565b611084612348565b60008051602061326f8339815191526001600160a01b038416612419578181600201600082825461240e9190612f4d565b909155506124789050565b6001600160a01b038416600090815260208290526040902054828110156124595784818460405163391434e360e21b81526004016110c093929190612dbd565b6001600160a01b03851660009081526020839052604090209083900390555b6001600160a01b0383166124965760028101805483900390556124b5565b6001600160a01b03831660009081526020829052604090208054830190555b826001600160a01b0316846001600160a01b03167fddf252ad1be2c89b69c2b068fc378daa952ba7f163c4a11628f55a4df523b3ef846040516124fa91815260200190565b60405180910390a350505050565b6000805160206132af8339815191525460ff1661108457604051638dfc202b60e01b815260040160405180910390fd5b600080602060008451602086016000885af18061255b576040513d6000823e3d81fd5b50506000513d91508115612573578060011415612580565b6001600160a01b0384163b155b15611e8257604051635274afe760e01b81526001600160a01b03851660048201526024016110c0565b60008051602061328f83398151915280546125cf906001600160a01b031686308661288c565b6125d98483611fc7565b836001600160a01b0316856001600160a01b03167fdcbc1c05240f31ff3ad067ef1ee35ce4997762752e3a095284754544f4c709d78585604051612338929190918252602082015260400190565b6000600b541180156126535750600b546001600160a01b0384166000908152600c602052604090205410155b15612691576001600160a01b0383166000908152600c60205260409081902054600b5491516320d336b360e01b81526110c092869291600401612dbd565b61269b8382612183565b6126a53082611fc7565b60098054604080516060810182526001600160a01b038881168252602080830188815242848601908152600087815260088452868120955186546001600160a01b031916908616178655915160018087019190915590516002909501949094559189168252600c815292812080549283018155815291822001829055825491929061272f83613239565b919050555081600760008282546127469190612f4d565b909155505060408051848152602081018490526001600160a01b038087169288821692918a16917ffbde797d201c681b91056529119e0b02407c7bb96a4a2c75c01fc9667232c8db910160405180910390a4505050505050565b6127a8612348565b60008051602061326f8339815191527f52c63247e1f47db19d5ce0460030c497f067ca4cebf71ba98eeadabe20bace036127e284826130dc565b5060048101611e8283826130dc565b6127f9612348565b60008051602061328f833981519152600080612814846128c5565b9150915081612824576012612826565b805b83546001600160a81b031916600160a01b60ff92909216919091026001600160a01b031916176001600160a01b0394909416939093179091555050565b611ce3612348565b612873612348565b6000805160206132af833981519152805460ff19169055565b6040516001600160a01b038481166024830152838116604483015260648201839052611e829186918216906323b872dd9060840161202a565b60408051600481526024810182526020810180516001600160e01b031663313ce56760e01b17905290516000918291829182916001600160a01b0387169161290c91613252565b600060405180830381855afa9150503d8060008114612947576040519150601f19603f3d011682016040523d82523d6000602084013e61294c565b606091505b509150915081801561296057506020815110155b156129945760008180602001905181019061297b9190613220565b905060ff8111612992576001969095509350505050565b505b5060009485945092505050565b6000602082840312156129b357600080fd5b81356001600160e01b031981168114611e1657600080fd5b60005b838110156129e65781810151838201526020016129ce565b50506000910152565b60008151808452612a078160208601602086016129cb565b601f01601f19169290920160200192915050565b602081526000611e1660208301846129ef565b600060208284031215612a4057600080fd5b5035919050565b6001600160a01b0381168114611d1657600080fd5b60008060408385031215612a6f57600080fd5b8235612a7a81612a47565b946020939093013593505050565b634e487b7160e01b600052604160045260246000fd5b604051601f8201601f191681016001600160401b0381118282101715612ac657612ac6612a88565b604052919050565b60006001600160401b03821115612ae757612ae7612a88565b50601f01601f191660200190565b600082601f830112612b0657600080fd5b8135612b19612b1482612ace565b612a9e565b818152846020838601011115612b2e57600080fd5b816020850160208301376000918101602001919091529392505050565b60008060008060808587031215612b6157600080fd5b8435612b6c81612a47565b93506020850135612b7c81612a47565b925060408501356001600160401b0380821115612b9857600080fd5b612ba488838901612af5565b93506060870135915080821115612bba57600080fd5b50612bc787828801612af5565b91505092959194509250565b600080600060608486031215612be857600080fd5b8335612bf381612a47565b92506020840135612c0381612a47565b929592945050506040919091013590565b600060208284031215612c2657600080fd5b8135611e1681612a47565b602080825282518282018190526000919060409081850190868401855b82811015612c8657815180516001600160a01b0316855286810151878601528501518585015260609093019290850190600101612c4e565b5091979650505050505050565b8015158114611d1657600080fd5b60008060408385031215612cb457600080fd5b8235612cbf81612a47565b91506020830135612ccf81612c93565b809150509250929050565b60008060408385031215612ced57600080fd5b823591506020830135612ccf81612a47565b80356001600160401b0381168114612d1657600080fd5b919050565b60008060408385031215612d2e57600080fd5b82359150612d3e60208401612cff565b90509250929050565b600080600060608486031215612d5c57600080fd5b8335612d6781612a47565b9250602084013591506040840135612d7e81612a47565b809150509250925092565b600060208284031215612d9b57600080fd5b81356001600160401b03811115612db157600080fd5b611bed84828501612af5565b6001600160a01b039390931683526020830191909152604082015260600190565b60008060008060808587031215612df457600080fd5b84359350612e0460208601612cff565b92506040850135915060608501356001600160401b03811115612e2657600080fd5b612bc787828801612af5565b600080600060608486031215612e4757600080fd5b833592506020840135612e5981612a47565b91506040840135612d7e81612a47565b60008060408385031215612e7c57600080fd5b8235612e8781612a47565b91506020830135612ccf81612a47565b60008060408385031215612eaa57600080fd5b505080516020909101519092909150565b600181811c90821680612ecf57607f821691505b602082108103612eef57634e487b7160e01b600052602260045260246000fd5b50919050565b634e487b7160e01b600052601160045260246000fd5b60ff8181168382160190811115610b9757610b97612ef5565b634e487b7160e01b600052603260045260246000fd5b81810381811115610b9757610b97612ef5565b80820180821115610b9757610b97612ef5565b634e487b7160e01b600052603160045260246000fd5b600060208284031215612f8857600080fd5b81516001600160401b03811115612f9e57600080fd5b8201601f81018413612faf57600080fd5b8051612fbd612b1482612ace565b818152856020838501011115612fd257600080fd5b6122088260208301602086016129cb565b6020815281516020820152602082015160408201526040820151606082015260006060830151613017608084018215159052565b50608083015160a083015260a08301516101208060c085015261303e6101408501836129ef565b915060c085015161305a60e08601826001600160401b03169052565b5060e085015161010085810191909152850151848303601f19018286015261308283826129ef565b9695505050505050565b601f8211156117c5576000816000526020600020601f850160051c810160208610156130b55750805b601f850160051c820191505b818110156130d4578281556001016130c1565b505050505050565b81516001600160401b038111156130f5576130f5612a88565b613109816131038454612ebb565b8461308c565b602080601f83116001811461313e57600084156131265750858301515b600019600386901b1c1916600185901b1785556130d4565b600085815260208120601f198616915b8281101561316d5788860151825594840194600190910190840161314e565b508582101561318b5787850151600019600388901b60f8161c191681555b5050505050600190811b01905550565b6040815260006131ae60408301856129ef565b828103602084015261220881856129ef565b6000602082840312156131d257600080fd5b8151611e1681612c93565b6001600160a01b038416815260208101839052606081016004831061321257634e487b7160e01b600052602160045260246000fd5b826040830152949350505050565b60006020828403121561323257600080fd5b5051919050565b60006001820161324b5761324b612ef5565b5060010190565b600082516132648184602087016129cb565b919091019291505056fe52c63247e1f47db19d5ce0460030c497f067ca4cebf71ba98eeadabe20bace000773e532dfede91f04b12a73d3d2acd361424f41f76b4fb79f090161e36b4e00cd5ed15c6e187e77e9aee88184c21f4f2182ab5827cb3b7e07fbedcd63f03300a26469706673582212206e438f53e399c9691f91e1b8d827398cd41cb07f8dd5a92ec80a32ce943db75a64736f6c63430008180033",
  "devdoc": {
    "errors": {
      "ERC20InsufficientAllowance(address,uint256,uint256)": [
        {
          "details": "Indicates a failure with the `spender`s `allowance`. Used in transfers.",
          "params": {
            "allowance": "Amount of tokens a `spender` is allowed to operate with.",
            "needed": "Minimum amount required to perform a transfer.",
            "spender": "Address that may be allowed to operate on tokens without being their owner."
          }
        }
      ],
      "ERC20InsufficientBalance(address,uint256,uint256)": [
        {
          "details": "Indicates an error related to the current `balance` of a `sender`. Used in transfers.",
          "params": {
            "balance": "Current balance for the interacting account.",
            "needed": "Minimum amount required to perform a transfer.",
            "sender": "Address whose tokens are being transferred."
          }
        }
      ],
      "ERC20InvalidApprover(address)": [
        {
          "details": "Indicates a failure with the `approver` of a token to be approved. Used in approvals.",
          "params": {
            "approver": "Address initiating an approval operation."
          }
        }
      ],
      "ERC20InvalidReceiver(address)": [
        {
          "details": "Indicates a failure with the token `receiver`. Used in transfers.",
          "params": {
            "receiver": "Address to which tokens are being transferred."
          }
        }
      ],
      "ERC20InvalidSender(address)": [
        {
          "details": "Indicates a failure with the token `sender`. Used in transfers.",
          "params": {
            "sender": "Address whose tokens are being transferred."
          }
        }
      ],
      "ERC20InvalidSpender(address)": [
        {
          "details": "Indicates a failure with the `spender` to be approved. Used in approvals.",
          "params": {
            "spender": "Address that may be allowed to operate on tokens without being their owner."
          }
        }
      ],
      "ERC4626ExceededMaxDeposit(address,uint256,uint256)": [
        {
          "details": "Attempted to deposit more assets than the max amount for `receiver`."
        }
      ],
      "ERC4626ExceededMaxMint(address,uint256,uint256)": [
        {
          "details": "Attempted to mint more shares than the max amount for `receiver`."
        }
      ],
      "ERC4626ExceededMaxRedeem(address,uint256,uint256)": [
        {
          "details": "Attempted to redeem more shares than the max amount for `receiver`."
        }
      ],
      "ERC4626ExceededMaxWithdraw(address,uint256,uint256)": [
        {
          "details": "Attempted to withdraw more assets than the max amount for `receiver`."
        }
      ],
      "EnforcedPause()": [
        {
          "details": "The operation failed because the contract is paused."
        }
      ],
      "ExpectedPause()": [
        {
          "details": "The operation failed because the contract is not paused."
        }
      ],
      "InvalidInitialization()": [
        {
          "details": "The contract is already initialized."
        }
      ],
      "NotInitializing()": [
        {
          "details": "The contract is not initializing."
        }
      ],
      "OwnableInvalidOwner(address)": [
        {
          "details": "The owner is not a valid owner account. (eg. `address(0)`)"
        }
      ],
      "OwnableUnauthorizedAccount(address)": [
        {
          "details": "The caller account is not authorized to perform an operation."
        }
      ],
      "SafeERC20FailedOperation(address)": [
        {
          "details": "An operation with an ERC-20 token failed."
        }
      ]
    },
    "events": {
      "Approval(address,address,uint256)": {
        "details": "Emitted when the allowance of a `spender` for an `owner` is set by a call to {approve}. `value` is the new allowance."
      },
      "Initialized(uint64)": {
        "details": "Triggered when the contract has been initialized or reinitialized."
      },
      "Paused(address)": {
        "details": "Emitted when the pause is triggered by `account`."
      },
      "Transfer(address,address,uint256)": {
        "details": "Emitted when `value` tokens are moved from one account (`from`) to another (`to`). Note that `value` may be zero."
      },
      "Unpaused(address)": {
        "details": "Emitted when the pause is lifted by `account`."
      }
    },
    "kind": "dev",
    "methods": {
      "allowance(address,address)": {
        "details": "See {IERC20-allowance}."
      },
      "approve(address,uint256)": {
        "details": "See {IERC20-approve}. NOTE: If `value` is the maximum `uint256`, the allowance is not updated on `transferFrom`. This is semantically equivalent to an infinite approval. Requirements: - `spender` cannot be the zero address."
      },
      "asset()": {
        "details": "See {IERC4626-asset}. "
      },
      "balanceOf(address)": {
        "details": "See {IERC20-balanceOf}."
      },
      "convertToAssets(uint256)": {
        "details": "See {IERC4626-convertToAssets}. "
      },
      "convertToShares(uint256)": {
        "details": "See {IERC4626-convertToShares}. "
      },
      "decimals()": {
        "details": "Decimals are computed by adding the decimal offset on top of the underlying asset's decimals. This \"original\" value is cached during construction of the vault contract. If this read operation fails (e.g., the asset has not been created yet), a default of 18 is used to represent the underlying asset's decimals. See {IERC20Metadata-decimals}."
      },
      "deposit(uint256,address)": {
        "details": "See {IERC4626-deposit}. "
      },
      "maxDeposit(address)": {
        "details": "See {IERC4626-maxDeposit}. "
      },
      "maxMint(address)": {
        "details": "See {IERC4626-maxMint}. "
      },
      "maxRedeem(address)": {
        "details": "See {IERC4626-maxRedeem}. "
      },
      "maxWithdraw(address)": {
        "details": "See {IERC4626-maxWithdraw}. "
      },
      "mint(uint256,address)": {
        "details": "See {IERC4626-mint}. "
      },
      "name()": {
        "details": "Returns the name of the token."
      },
      "owner()": {
        "details": "Returns the address of the current owner."
      },
      "paused()": {
        "details": "Returns true if the contract is paused, and false otherwise."
      },
      "previewDeposit(uint256)": {
        "details": "See {IERC4626-previewDeposit}. "
      },
      "previewMint(uint256)": {
        "details": "See {IERC4626-previewMint}. "
      },
      "previewRedeem(uint256)": {
        "details": "See {IERC4626-previewRedeem}. "
      },
      "previewWithdraw(uint256)": {
        "details": "See {IERC4626-previewWithdraw}. "
      },
      "redeem(uint256,address,address)": {
        "details": "See {IERC4626-redeem}. "
      },
      "renounceOwnership()": {
        "details": "Leaves the contract without owner. It will not be possible to call `onlyOwner` functions. Can only be called by the current owner. NOTE: Renouncing ownership will leave the contract without an owner, thereby disabling any functionality that is only available to the owner."
      },
      "supportsInterface(bytes4)": {
        "details": "See {IERC165-supportsInterface}."
      },
      "symbol()": {
        "details": "Returns the symbol of the token, usually a shorter version of the name."
      },
      "totalAssets()": {
        "details": "See {IERC4626-totalAssets}. "
      },
      "totalSupply()": {
        "details": "See {IERC20-totalSupply}."
      },
      "transfer(address,uint256)": {
        "details": "See {IERC20-transfer}. Requirements: - `to` cannot be the zero address. - the caller must have a balance of at least `value`."
      },
      "transferFrom(address,address,uint256)": {
        "details": "See {IERC20-transferFrom}. Skips emitting an {Approval} event indicating an allowance update. This is not required by the ERC. See {xref-ERC20-_approve-address-address-uint256-bool-}[_approve]. NOTE: Does not update the allowance if the current allowance is the maximum `uint256`. Requirements: - `from` and `to` cannot be the zero address. - `from` must have a balance of at least `value`. - the caller must have allowance for ``from``'s tokens of at least `value`."
      },
      "transferOwnership(address)": {
        "details": "Transfers ownership of the contract to a new account (`newOwner`). Can only be called by the current owner."
      },
      "withdraw(uint256,address,address)": {
        "details": "See {IERC4626-withdraw}. "
      }
    },
    "version": 1
  },
  "userdoc": {
    "errors": {
      "BatchSizeTooLarge(uint256,uint256)": [
        {
          "notice": "Throws if the batch size is larger than the actual available requests"
        }
      ],
      "InvalidBatchSize()": [
        {
          "notice": "Throws if the batch size is greater than the number of requests"
        }
      ],
      "MaxRedeemRequestsReached(address,uint256,uint256)": [
        {
          "notice": "Throws if user has reached maximum redeem requests limit"
        }
      ],
      "NotRoleAdmin(address)": [
        {
          "notice": "Throws if the caller is not a role admin"
        }
      ],
      "NotTriggerAddress(address)": [
        {
          "notice": "Throws if the caller is not the trigger address"
        }
      ],
      "RequestIdNotFound(address,uint256)": [
        {
          "notice": "Throws if the request ID is not found in the user's request list"
        }
      ]
    },
    "events": {
      "AsyncMintCompleted(uint256,uint256)": {
        "notice": "Emitted when async mint operation is completed"
      },
      "AsyncRedeemCompleted(uint256)": {
        "notice": "Emitted when async redeem operation is completed"
      },
      "BatchClaimProcessed(uint256,uint256,uint256)": {
        "notice": "Emitted when batch claim is processed"
      },
      "BifrostDestChanged(bytes,bytes)": {
        "notice": "Emitted when Bifrost destination is changed"
      },
      "MaxRedeemRequestsPerUserChanged(uint256,uint256)": {
        "notice": "Emitted when max redeem requests per user is changed"
      },
      "OracleChanged(address,address)": {
        "notice": "Emitted when Oracle contract is changed"
      },
      "RedeemRequestSuccess(uint256,address,uint256,uint256,uint256)": {
        "notice": "Emitted when a redeem request is successfully processed"
      },
      "RoleAdminChanged(address,bool)": {
        "notice": "Emitted when role admin is changed"
      },
      "TokenGatewayChanged(address,address)": {
        "notice": "Emitted when TokenGateway contract is changed"
      },
      "TriggerAddressChanged(address,address)": {
        "notice": "Emitted when trigger address is changed"
      }
    },
    "kind": "user",
    "methods": {
      "bifrostDest()": {
        "notice": "Bifrost destination"
      },
      "currentCycleMintTokenAmount()": {
        "notice": "Current cycle minted Token amount"
      },
      "currentCycleMintVTokenAmount()": {
        "notice": "Current cycle minted VToken amount"
      },
      "currentCycleRedeemVTokenAmount()": {
        "notice": "Current cycle redeemed Token amount"
      },
      "maxRedeemRequestsPerUser()": {
        "notice": "Maximum number of redeem requests per user"
      },
      "nextRequestId()": {
        "notice": "Next request ID"
      },
      "oracle()": {
        "notice": "Oracle"
      },
      "redeemQueue(uint256)": {
        "notice": "Redeem request mapping"
      },
      "redeemQueueIndex()": {
        "notice": "Current processing index of redeem queue"
      },
      "rolesAdmin(address)": {
        "notice": "mapping of admins of defined roles"
      },
      "tokenGateway()": {
        "notice": "Token gateway"
      },
      "triggerAddress()": {
        "notice": "Trigger address"
      },
      "userRedeemRequests(address,uint256)": {
        "notice": "User redeem request index mapping"
      }
    },
    "version": 1
  },
  "storageLayout": {
    "storage": [
      {
        "astId": 9941,
        "contract": "contracts/VToken.sol:VToken",
        "label": "rolesAdmin",
        "offset": 0,
        "slot": "0",
        "type": "t_mapping(t_address,t_bool)"
      },
      {
        "astId": 9945,
        "contract": "contracts/VToken.sol:VToken",
        "label": "tokenGateway",
        "offset": 0,
        "slot": "1",
        "type": "t_contract(ITokenGateway)11059"
      },
      {
        "astId": 9949,
        "contract": "contracts/VToken.sol:VToken",
        "label": "oracle",
        "offset": 0,
        "slot": "2",
        "type": "t_contract(Oracle)9840"
      },
      {
        "astId": 9952,
        "contract": "contracts/VToken.sol:VToken",
        "label": "triggerAddress",
        "offset": 0,
        "slot": "3",
        "type": "t_address"
      },
      {
        "astId": 9955,
        "contract": "contracts/VToken.sol:VToken",
        "label": "bifrostDest",
        "offset": 0,
        "slot": "4",
        "type": "t_bytes_storage"
      },
      {
        "astId": 9958,
        "contract": "contracts/VToken.sol:VToken",
        "label": "currentCycleMintVTokenAmount",
        "offset": 0,
        "slot": "5",
        "type": "t_uint256"
      },
      {
        "astId": 9961,
        "contract": "contracts/VToken.sol:VToken",
        "label": "currentCycleMintTokenAmount",
        "offset": 0,
        "slot": "6",
        "type": "t_uint256"
      },
      {
        "astId": 9964,
        "contract": "contracts/VToken.sol:VToken",
        "label": "currentCycleRedeemVTokenAmount",
        "offset": 0,
        "slot": "7",
        "type": "t_uint256"
      },
      {
        "astId": 9970,
        "contract": "contracts/VToken.sol:VToken",
        "label": "redeemQueue",
        "offset": 0,
        "slot": "8",
        "type": "t_mapping(t_uint256,t_struct(RedeemRequest)9932_storage)"
      },
      {
        "astId": 9973,
        "contract": "contracts/VToken.sol:VToken",
        "label": "nextRequestId",
        "offset": 0,
        "slot": "9",
        "type": "t_uint256"
      },
      {
        "astId": 9976,
        "contract": "contracts/VToken.sol:VToken",
        "label": "redeemQueueIndex",
        "offset": 0,
        "slot": "10",
        "type": "t_uint256"
      },
      {
        "astId": 9979,
        "contract": "contracts/VToken.sol:VToken",
        "label": "maxRedeemRequestsPerUser",
        "offset": 0,
        "slot": "11",
        "type": "t_uint256"
      },
      {
        "astId": 9985,
        "contract": "contracts/VToken.sol:VToken",
        "label": "userRedeemRequests",
        "offset": 0,
        "slot": "12",
        "type": "t_mapping(t_address,t_array(t_uint256)dyn_storage)"
      }
    ],
    "types": {
      "t_address": {
        "encoding": "inplace",
        "label": "address",
        "numberOfBytes": "20"
      },
      "t_array(t_uint256)dyn_storage": {
        "base": "t_uint256",
        "encoding": "dynamic_array",
        "label": "uint256[]",
        "numberOfBytes": "32"
      },
      "t_bool": {
        "encoding": "inplace",
        "label": "bool",
        "numberOfBytes": "1"
      },
      "t_bytes_storage": {
        "encoding": "bytes",
        "label": "bytes",
        "numberOfBytes": "32"
      },
      "t_contract(ITokenGateway)11059": {
        "encoding": "inplace",
        "label": "contract ITokenGateway",
        "numberOfBytes": "20"
      },
      "t_contract(Oracle)9840": {
        "encoding": "inplace",
        "label": "contract Oracle",
        "numberOfBytes": "20"
      },
      "t_mapping(t_address,t_array(t_uint256)dyn_storage)": {
        "encoding": "mapping",
        "key": "t_address",
        "label": "mapping(address => uint256[])",
        "numberOfBytes": "32",
        "value": "t_array(t_uint256)dyn_storage"
      },
      "t_mapping(t_address,t_bool)": {
        "encoding": "mapping",
        "key": "t_address",
        "label": "mapping(address => bool)",
        "numberOfBytes": "32",
        "value": "t_bool"
      },
      "t_mapping(t_uint256,t_struct(RedeemRequest)9932_storage)": {
        "encoding": "mapping",
        "key": "t_uint256",
        "label": "mapping(uint256 => struct VTokenBase.RedeemRequest)",
        "numberOfBytes": "32",
        "value": "t_struct(RedeemRequest)9932_storage"
      },
      "t_struct(RedeemRequest)9932_storage": {
        "encoding": "inplace",
        "label": "struct VTokenBase.RedeemRequest",
        "members": [
          {
            "astId": 9927,
            "contract": "contracts/VToken.sol:VToken",
            "label": "receiver",
            "offset": 0,
            "slot": "0",
            "type": "t_address"
          },
          {
            "astId": 9929,
            "contract": "contracts/VToken.sol:VToken",
            "label": "assets",
            "offset": 0,
            "slot": "1",
            "type": "t_uint256"
          },
          {
            "astId": 9931,
            "contract": "contracts/VToken.sol:VToken",
            "label": "startTime",
            "offset": 0,
            "slot": "2",
            "type": "t_uint256"
          }
        ],
        "numberOfBytes": "96"
      },
      "t_uint256": {
        "encoding": "inplace",
        "label": "uint256",
        "numberOfBytes": "32"
      }
    }
  }
}