{
  "address": "0x36FAB2071C7668D9B755b3FF45b21f7D86be1A42",
  "abi": [
    {
      "inputs": [],
      "name": "EnforcedPause",
      "type": "error"
    },
    {
      "inputs": [],
      "name": "ExpectedPause",
      "type": "error"
    },
    {
      "inputs": [],
      "name": "InvalidFeeRate",
      "type": "error"
    },
    {
      "inputs": [],
      "name": "InvalidInitialization",
      "type": "error"
    },
    {
      "inputs": [],
      "name": "NotFromBifrost",
      "type": "error"
    },
    {
      "inputs": [],
      "name": "NotImplemented",
      "type": "error"
    },
    {
      "inputs": [],
      "name": "NotInitializing",
      "type": "error"
    },
    {
      "inputs": [],
      "name": "NotIsmpHost",
      "type": "error"
    },
    {
      "inputs": [
        {
          "internalType": "address",
          "name": "owner",
          "type": "address"
        }
      ],
      "name": "OwnableInvalidOwner",
      "type": "error"
    },
    {
      "inputs": [
        {
          "internalType": "address",
          "name": "account",
          "type": "address"
        }
      ],
      "name": "OwnableUnauthorizedAccount",
      "type": "error"
    },
    {
      "inputs": [],
      "name": "PoolNotReady",
      "type": "error"
    },
    {
      "anonymous": false,
      "inputs": [
        {
          "indexed": false,
          "internalType": "uint16",
          "name": "newMintFeeRate",
          "type": "uint16"
        },
        {
          "indexed": false,
          "internalType": "uint16",
          "name": "newRedeemFeeRate",
          "type": "uint16"
        }
      ],
      "name": "FeeRateChanged",
      "type": "event"
    },
    {
      "anonymous": false,
      "inputs": [
        {
          "indexed": false,
          "internalType": "uint64",
          "name": "version",
          "type": "uint64"
        }
      ],
      "name": "Initialized",
      "type": "event"
    },
    {
      "anonymous": false,
      "inputs": [
        {
          "indexed": true,
          "internalType": "address",
          "name": "previousOwner",
          "type": "address"
        },
        {
          "indexed": true,
          "internalType": "address",
          "name": "newOwner",
          "type": "address"
        }
      ],
      "name": "OwnershipTransferred",
      "type": "event"
    },
    {
      "anonymous": false,
      "inputs": [
        {
          "indexed": false,
          "internalType": "address",
          "name": "account",
          "type": "address"
        }
      ],
      "name": "Paused",
      "type": "event"
    },
    {
      "anonymous": false,
      "inputs": [
        {
          "indexed": false,
          "internalType": "address",
          "name": "",
          "type": "address"
        },
        {
          "indexed": false,
          "internalType": "uint256",
          "name": "",
          "type": "uint256"
        },
        {
          "indexed": false,
          "internalType": "uint256",
          "name": "",
          "type": "uint256"
        }
      ],
      "name": "SetTokenAmount",
      "type": "event"
    },
    {
      "anonymous": false,
      "inputs": [
        {
          "indexed": false,
          "internalType": "address",
          "name": "account",
          "type": "address"
        }
      ],
      "name": "Unpaused",
      "type": "event"
    },
    {
      "inputs": [],
      "name": "feeRateInfo",
      "outputs": [
        {
          "internalType": "uint16",
          "name": "mintFeeRate",
          "type": "uint16"
        },
        {
          "internalType": "uint16",
          "name": "redeemFeeRate",
          "type": "uint16"
        }
      ],
      "stateMutability": "view",
      "type": "function"
    },
    {
      "inputs": [
        {
          "internalType": "address",
          "name": "_token",
          "type": "address"
        },
        {
          "internalType": "uint256",
          "name": "_vTokenAmount",
          "type": "uint256"
        },
        {
          "internalType": "enum Math.Rounding",
          "name": "rounding",
          "type": "uint8"
        }
      ],
      "name": "getTokenAmountByVToken",
      "outputs": [
        {
          "internalType": "uint256",
          "name": "",
          "type": "uint256"
        }
      ],
      "stateMutability": "view",
      "type": "function"
    },
    {
      "inputs": [
        {
          "internalType": "address",
          "name": "_token",
          "type": "address"
        },
        {
          "internalType": "uint256",
          "name": "_tokenAmount",
          "type": "uint256"
        },
        {
          "internalType": "enum Math.Rounding",
          "name": "rounding",
          "type": "uint8"
        }
      ],
      "name": "getVTokenAmountByToken",
      "outputs": [
        {
          "internalType": "uint256",
          "name": "",
          "type": "uint256"
        }
      ],
      "stateMutability": "view",
      "type": "function"
    },
    {
      "inputs": [
        {
          "internalType": "address",
          "name": "owner",
          "type": "address"
        },
        {
          "internalType": "address",
          "name": "hostAddress",
          "type": "address"
        },
        {
          "internalType": "bytes",
          "name": "bifrostChainId",
          "type": "bytes"
        }
      ],
      "name": "initialize",
      "outputs": [],
      "stateMutability": "nonpayable",
      "type": "function"
    },
    {
      "inputs": [
        {
          "components": [
            {
              "components": [
                {
                  "internalType": "bytes",
                  "name": "source",
                  "type": "bytes"
                },
                {
                  "internalType": "bytes",
                  "name": "dest",
                  "type": "bytes"
                },
                {
                  "internalType": "uint64",
                  "name": "nonce",
                  "type": "uint64"
                },
                {
                  "internalType": "bytes",
                  "name": "from",
                  "type": "bytes"
                },
                {
                  "internalType": "bytes",
                  "name": "to",
                  "type": "bytes"
                },
                {
                  "internalType": "uint64",
                  "name": "timeoutTimestamp",
                  "type": "uint64"
                },
                {
                  "internalType": "bytes",
                  "name": "body",
                  "type": "bytes"
                }
              ],
              "internalType": "struct PostRequest",
              "name": "request",
              "type": "tuple"
            },
            {
              "internalType": "address",
              "name": "relayer",
              "type": "address"
            }
          ],
          "internalType": "struct IncomingPostRequest",
          "name": "incoming",
          "type": "tuple"
        }
      ],
      "name": "onAccept",
      "outputs": [],
      "stateMutability": "nonpayable",
      "type": "function"
    },
    {
      "inputs": [
        {
          "components": [
            {
              "components": [
                {
                  "components": [
                    {
                      "internalType": "bytes",
                      "name": "source",
                      "type": "bytes"
                    },
                    {
                      "internalType": "bytes",
                      "name": "dest",
                      "type": "bytes"
                    },
                    {
                      "internalType": "uint64",
                      "name": "nonce",
                      "type": "uint64"
                    },
                    {
                      "internalType": "address",
                      "name": "from",
                      "type": "address"
                    },
                    {
                      "internalType": "uint64",
                      "name": "timeoutTimestamp",
                      "type": "uint64"
                    },
                    {
                      "internalType": "bytes[]",
                      "name": "keys",
                      "type": "bytes[]"
                    },
                    {
                      "internalType": "uint64",
                      "name": "height",
                      "type": "uint64"
                    },
                    {
                      "internalType": "bytes",
                      "name": "context",
                      "type": "bytes"
                    }
                  ],
                  "internalType": "struct GetRequest",
                  "name": "request",
                  "type": "tuple"
                },
                {
                  "components": [
                    {
                      "internalType": "bytes",
                      "name": "key",
                      "type": "bytes"
                    },
                    {
                      "internalType": "bytes",
                      "name": "value",
                      "type": "bytes"
                    }
                  ],
                  "internalType": "struct StorageValue[]",
                  "name": "values",
                  "type": "tuple[]"
                }
              ],
              "internalType": "struct GetResponse",
              "name": "response",
              "type": "tuple"
            },
            {
              "internalType": "address",
              "name": "relayer",
              "type": "address"
            }
          ],
          "internalType": "struct IncomingGetResponse",
          "name": "",
          "type": "tuple"
        }
      ],
      "name": "onGetResponse",
      "outputs": [],
      "stateMutability": "view",
      "type": "function"
    },
    {
      "inputs": [
        {
          "components": [
            {
              "internalType": "bytes",
              "name": "source",
              "type": "bytes"
            },
            {
              "internalType": "bytes",
              "name": "dest",
              "type": "bytes"
            },
            {
              "internalType": "uint64",
              "name": "nonce",
              "type": "uint64"
            },
            {
              "internalType": "address",
              "name": "from",
              "type": "address"
            },
            {
              "internalType": "uint64",
              "name": "timeoutTimestamp",
              "type": "uint64"
            },
            {
              "internalType": "bytes[]",
              "name": "keys",
              "type": "bytes[]"
            },
            {
              "internalType": "uint64",
              "name": "height",
              "type": "uint64"
            },
            {
              "internalType": "bytes",
              "name": "context",
              "type": "bytes"
            }
          ],
          "internalType": "struct GetRequest",
          "name": "",
          "type": "tuple"
        }
      ],
      "name": "onGetTimeout",
      "outputs": [],
      "stateMutability": "view",
      "type": "function"
    },
    {
      "inputs": [
        {
          "components": [
            {
              "internalType": "bytes",
              "name": "source",
              "type": "bytes"
            },
            {
              "internalType": "bytes",
              "name": "dest",
              "type": "bytes"
            },
            {
              "internalType": "uint64",
              "name": "nonce",
              "type": "uint64"
            },
            {
              "internalType": "bytes",
              "name": "from",
              "type": "bytes"
            },
            {
              "internalType": "bytes",
              "name": "to",
              "type": "bytes"
            },
            {
              "internalType": "uint64",
              "name": "timeoutTimestamp",
              "type": "uint64"
            },
            {
              "internalType": "bytes",
              "name": "body",
              "type": "bytes"
            }
          ],
          "internalType": "struct PostRequest",
          "name": "",
          "type": "tuple"
        }
      ],
      "name": "onPostRequestTimeout",
      "outputs": [],
      "stateMutability": "view",
      "type": "function"
    },
    {
      "inputs": [
        {
          "components": [
            {
              "components": [
                {
                  "components": [
                    {
                      "internalType": "bytes",
                      "name": "source",
                      "type": "bytes"
                    },
                    {
                      "internalType": "bytes",
                      "name": "dest",
                      "type": "bytes"
                    },
                    {
                      "internalType": "uint64",
                      "name": "nonce",
                      "type": "uint64"
                    },
                    {
                      "internalType": "bytes",
                      "name": "from",
                      "type": "bytes"
                    },
                    {
                      "internalType": "bytes",
                      "name": "to",
                      "type": "bytes"
                    },
                    {
                      "internalType": "uint64",
                      "name": "timeoutTimestamp",
                      "type": "uint64"
                    },
                    {
                      "internalType": "bytes",
                      "name": "body",
                      "type": "bytes"
                    }
                  ],
                  "internalType": "struct PostRequest",
                  "name": "request",
                  "type": "tuple"
                },
                {
                  "internalType": "bytes",
                  "name": "response",
                  "type": "bytes"
                },
                {
                  "internalType": "uint64",
                  "name": "timeoutTimestamp",
                  "type": "uint64"
                }
              ],
              "internalType": "struct PostResponse",
              "name": "response",
              "type": "tuple"
            },
            {
              "internalType": "address",
              "name": "relayer",
              "type": "address"
            }
          ],
          "internalType": "struct IncomingPostResponse",
          "name": "",
          "type": "tuple"
        }
      ],
      "name": "onPostResponse",
      "outputs": [],
      "stateMutability": "view",
      "type": "function"
    },
    {
      "inputs": [
        {
          "components": [
            {
              "components": [
                {
                  "internalType": "bytes",
                  "name": "source",
                  "type": "bytes"
                },
                {
                  "internalType": "bytes",
                  "name": "dest",
                  "type": "bytes"
                },
                {
                  "internalType": "uint64",
                  "name": "nonce",
                  "type": "uint64"
                },
                {
                  "internalType": "bytes",
                  "name": "from",
                  "type": "bytes"
                },
                {
                  "internalType": "bytes",
                  "name": "to",
                  "type": "bytes"
                },
                {
                  "internalType": "uint64",
                  "name": "timeoutTimestamp",
                  "type": "uint64"
                },
                {
                  "internalType": "bytes",
                  "name": "body",
                  "type": "bytes"
                }
              ],
              "internalType": "struct PostRequest",
              "name": "request",
              "type": "tuple"
            },
            {
              "internalType": "bytes",
              "name": "response",
              "type": "bytes"
            },
            {
              "internalType": "uint64",
              "name": "timeoutTimestamp",
              "type": "uint64"
            }
          ],
          "internalType": "struct PostResponse",
          "name": "",
          "type": "tuple"
        }
      ],
      "name": "onPostResponseTimeout",
      "outputs": [],
      "stateMutability": "view",
      "type": "function"
    },
    {
      "inputs": [],
      "name": "owner",
      "outputs": [
        {
          "internalType": "address",
          "name": "",
          "type": "address"
        }
      ],
      "stateMutability": "view",
      "type": "function"
    },
    {
      "inputs": [],
      "name": "pause",
      "outputs": [],
      "stateMutability": "nonpayable",
      "type": "function"
    },
    {
      "inputs": [],
      "name": "paused",
      "outputs": [
        {
          "internalType": "bool",
          "name": "",
          "type": "bool"
        }
      ],
      "stateMutability": "view",
      "type": "function"
    },
    {
      "inputs": [
        {
          "internalType": "address",
          "name": "",
          "type": "address"
        }
      ],
      "name": "poolInfo",
      "outputs": [
        {
          "internalType": "uint256",
          "name": "tokenAmount",
          "type": "uint256"
        },
        {
          "internalType": "uint256",
          "name": "vTokenAmount",
          "type": "uint256"
        }
      ],
      "stateMutability": "view",
      "type": "function"
    },
    {
      "inputs": [],
      "name": "renounceOwnership",
      "outputs": [],
      "stateMutability": "nonpayable",
      "type": "function"
    },
    {
      "inputs": [
        {
          "internalType": "uint16",
          "name": "_mintFeeRate",
          "type": "uint16"
        },
        {
          "internalType": "uint16",
          "name": "_redeemFeeRate",
          "type": "uint16"
        }
      ],
      "name": "setFeeRate",
      "outputs": [],
      "stateMutability": "nonpayable",
      "type": "function"
    },
    {
      "inputs": [
        {
          "internalType": "address",
          "name": "_token",
          "type": "address"
        },
        {
          "internalType": "uint256",
          "name": "_tokenAmount",
          "type": "uint256"
        },
        {
          "internalType": "uint256",
          "name": "_vTokenAmount",
          "type": "uint256"
        }
      ],
      "name": "setPoolInfo",
      "outputs": [],
      "stateMutability": "nonpayable",
      "type": "function"
    },
    {
      "inputs": [
        {
          "internalType": "address",
          "name": "newOwner",
          "type": "address"
        }
      ],
      "name": "transferOwnership",
      "outputs": [],
      "stateMutability": "nonpayable",
      "type": "function"
    },
    {
      "inputs": [],
      "name": "unpause",
      "outputs": [],
      "stateMutability": "nonpayable",
      "type": "function"
    }
  ],
  "transactionHash": "0xb6f931661285d317d5874db35a963a7b15dce19963eac5f57ba942b1bdb8d6c9",
  "args": [],
  "numDeployments": 1,
  "solcInputHash": "5fadebc1a7fbfe3b0fb0d3a041b39de4",
  "bytecode": "0x608060405234801561001057600080fd5b5061195a806100206000396000f3fe608060405234801561001057600080fd5b50600436106101215760003560e01c806398a90900116100ad578063c901b71511610071578063c901b71514610295578063cf7a1d77146102a8578063d0fff366146102bb578063dd22846f146102c9578063f2fde38b146102dc57600080fd5b806398a90900146102095780639a7b5f111461022a578063a71b35ab14610266578063b2a01bf514610279578063bc0dd4471461028757600080fd5b80635c975abb116100f45780635c975abb146101645780636bda6c431461018c578063715018a6146101bf5780638456cb59146101c75780638da5cb5b146101cf57600080fd5b80630bc37bab146101265780630fee32ce1461013b5780633f4ba83a1461014e57806344ab20f814610156575b600080fd5b610139610134366004611068565b6102ef565b005b6101396101493660046110a4565b61033c565b610139610585565b6101396101343660046112ad565b6000805160206119058339815191525460ff1660405190151581526020015b60405180910390f35b6000546101a49061ffff808216916201000090041682565b6040805161ffff938416815292909116602083015201610183565b610139610597565b6101396105a9565b7f9016d09d72d40fdae2fd8ceac6b6234c7706214fd39c1cd1e609a0528c199300546040516001600160a01b039091168152602001610183565b61021c610217366004611455565b6105b9565b604051908152602001610183565b61025161023836600461149b565b6001602081905260009182526040909120805491015482565b60408051928352602083019190915201610183565b61021c610274366004611455565b61066a565b6101396101343660046114b8565b61013961013436600461153b565b6101396102a336600461156f565b610713565b6101396102b63660046115a4565b610797565b610139610134366004611605565b6101396102d736600461164b565b6108c3565b6101396102ea36600461149b565b610963565b6002546001600160a01b0316336001600160a01b031614610323576040516351ab8de560e01b815260040160405180910390fd5b60405163d623472560e01b815260040160405180910390fd5b6002546001600160a01b0316336001600160a01b031614610370576040516351ab8de560e01b815260040160405180910390fd5b61037a818061167e565b6104536003805461038a9061169e565b80601f01602080910402602001604051908101604052809291908181526020018280546103b69061169e565b80156104035780601f106103d857610100808354040283529160200191610403565b820191906000526020600020905b8154815290600101906020018083116103e657829003601f168201915b5061041693508692508291506116d89050565b8080601f01602080910402602001604051908101604052809392919081815260200183838082843760009201919091525092939250506109a69050565b158061048c57506040805180820190915260088152670c4d2cc5ae6d8e0f60c31b602082015261048a9061041660608401846116d8565b155b156104aa576040516307c1218160e31b815260040160405180910390fd5b60006104b6838061167e565b6104c49060c08101906116d8565b8080601f0160208091040260200160405190810160405280939291908181526020018383808284376000920182905250845194955093849350839250610514915085016020908101908601611725565b6001600160a01b03831660008181526001602081815260409283902086815590910184905581519283528201849052810182905292955090935091507fbf7601980afda2e4bf4115242e175054a7d62775820027cc9e7ee868ec09d0de9060600160405180910390a1505050505050565b61058d6109d3565b610595610a2e565b565b61059f6109d3565b6105956000610a8e565b6105b16109d3565b610595610aff565b60006105c3610b48565b6001600160a01b03841660009081526001602081815260409283902083518085019094528054845290910154908201819052158061060057508051155b1561061e57604051630867d2ed60e41b815260040160405180910390fd5b6000805461063590869061ffff1661271087610b79565b905060006106438287611772565b6020840151845191925060009161065c91849189610b79565b9450505050505b9392505050565b6000610674610b48565b6001600160a01b0384166000908152600160208181526040928390208351808501909452805484529091015490820181905215806106b157508051155b156106cf57604051630867d2ed60e41b815260040160405180910390fd5b600080546106ec90869062010000900461ffff1661271087610b79565b905060006106fa8287611772565b8351602085015191925060009161065c91849189610b79565b61071b6109d3565b60408051808201825283815260208082018481526001600160a01b03871660008181526001808552908690209451855591519390910192909255825191825281018490529081018290527fbf7601980afda2e4bf4115242e175054a7d62775820027cc9e7ee868ec09d0de9060600160405180910390a1505050565b60006107a1610bc6565b805490915060ff600160401b82041615906001600160401b03166000811580156107c85750825b90506000826001600160401b031660011480156107e45750303b155b9050811580156107f2575080155b156108105760405163f92ee8a960e01b815260040160405180910390fd5b845467ffffffffffffffff19166001178555831561083a57845460ff60401b1916600160401b1785555b61084388610bef565b61084b610c00565b600280546001600160a01b0319166001600160a01b038916179055600361087287826117d6565b5083156108b957845460ff60401b19168555604051600181527fc7f505b2f371ae2175ee4913f4499e1f2633a7b5936321eed1cdaeb6115181d29060200160405180910390a15b5050505050505050565b6108cb6109d3565b61271061ffff831611806108e4575061271061ffff8216115b1561090257604051630adad23360e31b815260040160405180910390fd5b6000805461ffff84811663ffffffff19909216821762010000918516918202179092556040805191825260208201929092527fd80238d10cf70e1085d045238749805f2ec3be60fde7c5ee544b086f5132515a910160405180910390a15050565b61096b6109d3565b6001600160a01b03811661099a57604051631e4fbdf760e01b8152600060048201526024015b60405180910390fd5b6109a381610a8e565b50565b600081518351146109b9575060006109cd565b508151602082810182902090840191909120145b92915050565b33610a057f9016d09d72d40fdae2fd8ceac6b6234c7706214fd39c1cd1e609a0528c199300546001600160a01b031690565b6001600160a01b0316146105955760405163118cdaa760e01b8152336004820152602401610991565b610a36610c08565b600080516020611905833981519152805460ff191681557f5db9ee0a495bf2e6ff9c91a7834c1ba4fdd244a5e8aa4e537bd38aeae4b073aa335b6040516001600160a01b03909116815260200160405180910390a150565b7f9016d09d72d40fdae2fd8ceac6b6234c7706214fd39c1cd1e609a0528c19930080546001600160a01b031981166001600160a01b03848116918217845560405192169182907f8be0079c531659141344cd1fd0a4f28419497f9722a3daafe3b4186f6b6457e090600090a3505050565b610b07610b48565b600080516020611905833981519152805460ff191660011781557f62e78cea01bee320cd4e420270b5ea74000d11b0c9f74754ebdbfc544b05a25833610a70565b6000805160206119058339815191525460ff16156105955760405163d93c066560e01b815260040160405180910390fd5b6000610ba8610b8783610c38565b8015610ba3575060008480610b9e57610b9e611895565b868809115b151590565b610bb3868686610c65565b610bbd91906118ab565b95945050505050565b6000807ff0c57e16840df040f15088dc2f81fe391c3923bec73e23a9662efc9c229c6a006109cd565b610bf7610d1a565b6109a381610d3f565b610595610d1a565b6000805160206119058339815191525460ff1661059557604051638dfc202b60e01b815260040160405180910390fd5b60006002826003811115610c4e57610c4e6118be565b610c5891906118d4565b60ff166001149050919050565b6000806000610c748686610d47565b9150915081600003610c9957838181610c8f57610c8f611895565b0492505050610663565b818411610cb057610cb06003851502601118610d65565b6000848688096000868103871696879004966002600389028118808a02820302808a02820302808a02820302808a02820302808a02820302808a02909103029181900381900460010185841190960395909502919093039390930492909217029150509392505050565b610d22610d77565b61059557604051631afcd79f60e31b815260040160405180910390fd5b61096b610d1a565b60008060001983850993909202808410938190039390930393915050565b634e487b71600052806020526024601cfd5b6000610d81610bc6565b54600160401b900460ff16919050565b634e487b7160e01b600052604160045260246000fd5b60405160e081016001600160401b0381118282101715610dc957610dc9610d91565b60405290565b60405161010081016001600160401b0381118282101715610dc957610dc9610d91565b604080519081016001600160401b0381118282101715610dc957610dc9610d91565b604051601f8201601f191681016001600160401b0381118282101715610e3c57610e3c610d91565b604052919050565b600082601f830112610e5557600080fd5b81356001600160401b03811115610e6e57610e6e610d91565b610e81601f8201601f1916602001610e14565b818152846020838601011115610e9657600080fd5b816020850160208301376000918101602001919091529392505050565b80356001600160401b0381168114610eca57600080fd5b919050565b600060e08284031215610ee157600080fd5b610ee9610da7565b905081356001600160401b0380821115610f0257600080fd5b610f0e85838601610e44565b83526020840135915080821115610f2457600080fd5b610f3085838601610e44565b6020840152610f4160408501610eb3565b60408401526060840135915080821115610f5a57600080fd5b610f6685838601610e44565b60608401526080840135915080821115610f7f57600080fd5b610f8b85838601610e44565b6080840152610f9c60a08501610eb3565b60a084015260c0840135915080821115610fb557600080fd5b50610fc284828501610e44565b60c08301525092915050565b600060608284031215610fe057600080fd5b604051606081016001600160401b03828210818311171561100357611003610d91565b81604052829350843591508082111561101b57600080fd5b61102786838701610ecf565b8352602085013591508082111561103d57600080fd5b5061104a85828601610e44565b60208301525061105c60408401610eb3565b60408201525092915050565b60006020828403121561107a57600080fd5b81356001600160401b0381111561109057600080fd5b61109c84828501610fce565b949350505050565b6000602082840312156110b657600080fd5b81356001600160401b038111156110cc57600080fd5b82016040818503121561066357600080fd5b6001600160a01b03811681146109a357600080fd5b8035610eca816110de565b60006001600160401b0382111561111757611117610d91565b5060051b60200190565b600082601f83011261113257600080fd5b81356020611147611142836110fe565b610e14565b82815260059290921b8401810191818101908684111561116657600080fd5b8286015b848110156111a55780356001600160401b038111156111895760008081fd5b6111978986838b0101610e44565b84525091830191830161116a565b509695505050505050565b600061010082840312156111c357600080fd5b6111cb610dcf565b905081356001600160401b03808211156111e457600080fd5b6111f085838601610e44565b8352602084013591508082111561120657600080fd5b61121285838601610e44565b602084015261122360408501610eb3565b6040840152611234606085016110f3565b606084015261124560808501610eb3565b608084015260a084013591508082111561125e57600080fd5b61126a85838601611121565b60a084015261127b60c08501610eb3565b60c084015260e084013591508082111561129457600080fd5b506112a184828501610e44565b60e08301525092915050565b6000602082840312156112bf57600080fd5b6001600160401b0380833511156112d557600080fd5b82358301604081860312156112e957600080fd5b6112f1610df2565b82823511156112ff57600080fd5b813582016040818803121561131357600080fd5b61131b610df2565b848235111561132957600080fd5b61133688833584016111b0565b8152846020830135111561134957600080fd5b60208201358201915087601f83011261136157600080fd5b61136e61114283356110fe565b82358082526020808301929160051b8501018a81111561138d57600080fd5b602085015b8181101561142c5788813511156113a857600080fd5b803586016040818e03601f190112156113c057600080fd5b6113c8610df2565b8a602083013511156113d957600080fd5b6113eb8e602080850135850101610e44565b81528a604083013511156113fe57600080fd5b6114118e60206040850135850101610e44565b60208201528086525050602084019350602081019050611392565b505080602084015250508083525050611447602083016110f3565b602082015295945050505050565b60008060006060848603121561146a57600080fd5b8335611475816110de565b92506020840135915060408401356004811061149057600080fd5b809150509250925092565b6000602082840312156114ad57600080fd5b8135610663816110de565b6000602082840312156114ca57600080fd5b81356001600160401b03808211156114e157600080fd5b90830190604082860312156114f557600080fd5b6114fd610df2565b82358281111561150c57600080fd5b61151887828601610fce565b8252506020830135925061152b836110de565b6020810192909252509392505050565b60006020828403121561154d57600080fd5b81356001600160401b0381111561156357600080fd5b61109c84828501610ecf565b60008060006060848603121561158457600080fd5b833561158f816110de565b95602085013595506040909401359392505050565b6000806000606084860312156115b957600080fd5b83356115c4816110de565b925060208401356115d4816110de565b915060408401356001600160401b038111156115ef57600080fd5b6115fb86828701610e44565b9150509250925092565b60006020828403121561161757600080fd5b81356001600160401b0381111561162d57600080fd5b61109c848285016111b0565b803561ffff81168114610eca57600080fd5b6000806040838503121561165e57600080fd5b61166783611639565b915061167560208401611639565b90509250929050565b6000823560de1983360301811261169457600080fd5b9190910192915050565b600181811c908216806116b257607f821691505b6020821081036116d257634e487b7160e01b600052602260045260246000fd5b50919050565b6000808335601e198436030181126116ef57600080fd5b8301803591506001600160401b0382111561170957600080fd5b60200191503681900382131561171e57600080fd5b9250929050565b60008060006060848603121561173a57600080fd5b8351611745816110de565b602085015160409095015190969495509392505050565b634e487b7160e01b600052601160045260246000fd5b818103818111156109cd576109cd61175c565b601f8211156117d1576000816000526020600020601f850160051c810160208610156117ae5750805b601f850160051c820191505b818110156117cd578281556001016117ba565b5050505b505050565b81516001600160401b038111156117ef576117ef610d91565b611803816117fd845461169e565b84611785565b602080601f83116001811461183857600084156118205750858301515b600019600386901b1c1916600185901b1785556117cd565b600085815260208120601f198616915b8281101561186757888601518255948401946001909101908401611848565b50858210156118855787850151600019600388901b60f8161c191681555b5050505050600190811b01905550565b634e487b7160e01b600052601260045260246000fd5b808201808211156109cd576109cd61175c565b634e487b7160e01b600052602160045260246000fd5b600060ff8316806118f557634e487b7160e01b600052601260045260246000fd5b8060ff8416069150509291505056fecd5ed15c6e187e77e9aee88184c21f4f2182ab5827cb3b7e07fbedcd63f03300a2646970667358221220ef91ebb0ea988256afcdda48b64f3be12f592f575cc208769dfff4dee670b67664736f6c63430008180033",
  "devdoc": {
    "errors": {
      "EnforcedPause()": [
        {
          "details": "The operation failed because the contract is paused."
        }
      ],
      "ExpectedPause()": [
        {
          "details": "The operation failed because the contract is not paused."
        }
      ],
      "InvalidInitialization()": [
        {
          "details": "The contract is already initialized."
        }
      ],
      "NotInitializing()": [
        {
          "details": "The contract is not initializing."
        }
      ],
      "OwnableInvalidOwner(address)": [
        {
          "details": "The owner is not a valid owner account. (eg. `address(0)`)"
        }
      ],
      "OwnableUnauthorizedAccount(address)": [
        {
          "details": "The caller account is not authorized to perform an operation."
        }
      ]
    },
    "events": {
      "Initialized(uint64)": {
        "details": "Triggered when the contract has been initialized or reinitialized."
      },
      "Paused(address)": {
        "details": "Emitted when the pause is triggered by `account`."
      },
      "Unpaused(address)": {
        "details": "Emitted when the pause is lifted by `account`."
      }
    },
    "kind": "dev",
    "methods": {
      "getTokenAmountByVToken(address,uint256,uint8)": {
        "params": {
          "_token": "The token address",
          "_vTokenAmount": "The vToken amount",
          "rounding": "The rounding mode"
        },
        "returns": {
          "_0": "The token amount"
        }
      },
      "getVTokenAmountByToken(address,uint256,uint8)": {
        "params": {
          "_token": "The token address",
          "_tokenAmount": "The token amount",
          "rounding": "The rounding mode"
        },
        "returns": {
          "_0": "The vToken amount"
        }
      },
      "onAccept(((bytes,bytes,uint64,bytes,bytes,uint64,bytes),address))": {
        "details": "The post request is from Bifrost",
        "params": {
          "incoming": "The incoming post request"
        }
      },
      "owner()": {
        "details": "Returns the address of the current owner."
      },
      "paused()": {
        "details": "Returns true if the contract is paused, and false otherwise."
      },
      "renounceOwnership()": {
        "details": "Leaves the contract without owner. It will not be possible to call `onlyOwner` functions. Can only be called by the current owner. NOTE: Renouncing ownership will leave the contract without an owner, thereby disabling any functionality that is only available to the owner."
      },
      "setPoolInfo(address,uint256,uint256)": {
        "params": {
          "_token": "The token address",
          "_tokenAmount": "The token amount",
          "_vTokenAmount": "The vToken amount"
        }
      },
      "transferOwnership(address)": {
        "details": "Transfers ownership of the contract to a new account (`newOwner`). Can only be called by the current owner."
      }
    },
    "version": 1
  },
  "userdoc": {
    "errors": {
      "InvalidFeeRate()": [
        {
          "notice": "Throws if the fee rate is invalid"
        }
      ],
      "NotFromBifrost()": [
        {
          "notice": "Throws if the caller is not Bifrost"
        }
      ],
      "NotImplemented()": [
        {
          "notice": "Throws if the function is not implemented"
        }
      ],
      "NotIsmpHost()": [
        {
          "notice": "Throws if the caller is not the ISMP host."
        }
      ],
      "PoolNotReady()": [
        {
          "notice": "Throws if the pool is not ready"
        }
      ]
    },
    "events": {
      "FeeRateChanged(uint16,uint16)": {
        "notice": "Emitted when fee rates are changed"
      },
      "SetTokenAmount(address,uint256,uint256)": {
        "notice": "Emitted when token amount is set"
      }
    },
    "kind": "user",
    "methods": {
      "getTokenAmountByVToken(address,uint256,uint8)": {
        "notice": "Get token by vToken."
      },
      "getVTokenAmountByToken(address,uint256,uint8)": {
        "notice": "Get vToken by token."
      },
      "onAccept(((bytes,bytes,uint64,bytes,bytes,uint64,bytes),address))": {
        "notice": "Accept the post request"
      },
      "pause()": {
        "notice": "Pause the contract"
      },
      "setFeeRate(uint16,uint16)": {
        "notice": "Bifrost will set a fee and the data will be consistent with Bifrost Chain."
      },
      "setPoolInfo(address,uint256,uint256)": {
        "notice": "Set the pool info"
      },
      "unpause()": {
        "notice": "Unpause the contract"
      }
    },
    "version": 1
  },
  "storageLayout": {
    "storage": [
      {
        "astId": 9360,
        "contract": "contracts/Oracle.sol:Oracle",
        "label": "feeRateInfo",
        "offset": 0,
        "slot": "0",
        "type": "t_struct(FeeRateInfo)9357_storage"
      },
      {
        "astId": 9365,
        "contract": "contracts/Oracle.sol:Oracle",
        "label": "poolInfo",
        "offset": 0,
        "slot": "1",
        "type": "t_mapping(t_address,t_struct(PoolInfo)9352_storage)"
      },
      {
        "astId": 9367,
        "contract": "contracts/Oracle.sol:Oracle",
        "label": "_host",
        "offset": 0,
        "slot": "2",
        "type": "t_address"
      },
      {
        "astId": 9369,
        "contract": "contracts/Oracle.sol:Oracle",
        "label": "_bifrostChainId",
        "offset": 0,
        "slot": "3",
        "type": "t_bytes_storage"
      }
    ],
    "types": {
      "t_address": {
        "encoding": "inplace",
        "label": "address",
        "numberOfBytes": "20"
      },
      "t_bytes_storage": {
        "encoding": "bytes",
        "label": "bytes",
        "numberOfBytes": "32"
      },
      "t_mapping(t_address,t_struct(PoolInfo)9352_storage)": {
        "encoding": "mapping",
        "key": "t_address",
        "label": "mapping(address => struct Oracle.PoolInfo)",
        "numberOfBytes": "32",
        "value": "t_struct(PoolInfo)9352_storage"
      },
      "t_struct(FeeRateInfo)9357_storage": {
        "encoding": "inplace",
        "label": "struct Oracle.FeeRateInfo",
        "members": [
          {
            "astId": 9354,
            "contract": "contracts/Oracle.sol:Oracle",
            "label": "mintFeeRate",
            "offset": 0,
            "slot": "0",
            "type": "t_uint16"
          },
          {
            "astId": 9356,
            "contract": "contracts/Oracle.sol:Oracle",
            "label": "redeemFeeRate",
            "offset": 2,
            "slot": "0",
            "type": "t_uint16"
          }
        ],
        "numberOfBytes": "32"
      },
      "t_struct(PoolInfo)9352_storage": {
        "encoding": "inplace",
        "label": "struct Oracle.PoolInfo",
        "members": [
          {
            "astId": 9349,
            "contract": "contracts/Oracle.sol:Oracle",
            "label": "tokenAmount",
            "offset": 0,
            "slot": "0",
            "type": "t_uint256"
          },
          {
            "astId": 9351,
            "contract": "contracts/Oracle.sol:Oracle",
            "label": "vTokenAmount",
            "offset": 0,
            "slot": "1",
            "type": "t_uint256"
          }
        ],
        "numberOfBytes": "64"
      },
      "t_uint16": {
        "encoding": "inplace",
        "label": "uint16",
        "numberOfBytes": "2"
      },
      "t_uint256": {
        "encoding": "inplace",
        "label": "uint256",
        "numberOfBytes": "32"
      }
    }
  }
}