{
  "address": "0x32c7D417a8B28A99B7993436eADC3De175a277E0",
  "abi": [
    {
      "inputs": [
        {
          "internalType": "address",
          "name": "spender",
          "type": "address"
        },
        {
          "internalType": "uint256",
          "name": "allowance",
          "type": "uint256"
        },
        {
          "internalType": "uint256",
          "name": "needed",
          "type": "uint256"
        }
      ],
      "name": "ERC20InsufficientAllowance",
      "type": "error"
    },
    {
      "inputs": [
        {
          "internalType": "address",
          "name": "sender",
          "type": "address"
        },
        {
          "internalType": "uint256",
          "name": "balance",
          "type": "uint256"
        },
        {
          "internalType": "uint256",
          "name": "needed",
          "type": "uint256"
        }
      ],
      "name": "ERC20InsufficientBalance",
      "type": "error"
    },
    {
      "inputs": [
        {
          "internalType": "address",
          "name": "approver",
          "type": "address"
        }
      ],
      "name": "ERC20InvalidApprover",
      "type": "error"
    },
    {
      "inputs": [
        {
          "internalType": "address",
          "name": "receiver",
          "type": "address"
        }
      ],
      "name": "ERC20InvalidReceiver",
      "type": "error"
    },
    {
      "inputs": [
        {
          "internalType": "address",
          "name": "sender",
          "type": "address"
        }
      ],
      "name": "ERC20InvalidSender",
      "type": "error"
    },
    {
      "inputs": [
        {
          "internalType": "address",
          "name": "spender",
          "type": "address"
        }
      ],
      "name": "ERC20InvalidSpender",
      "type": "error"
    },
    {
      "inputs": [
        {
          "internalType": "address",
          "name": "receiver",
          "type": "address"
        },
        {
          "internalType": "uint256",
          "name": "assets",
          "type": "uint256"
        },
        {
          "internalType": "uint256",
          "name": "max",
          "type": "uint256"
        }
      ],
      "name": "ERC4626ExceededMaxDeposit",
      "type": "error"
    },
    {
      "inputs": [
        {
          "internalType": "address",
          "name": "receiver",
          "type": "address"
        },
        {
          "internalType": "uint256",
          "name": "shares",
          "type": "uint256"
        },
        {
          "internalType": "uint256",
          "name": "max",
          "type": "uint256"
        }
      ],
      "name": "ERC4626ExceededMaxMint",
      "type": "error"
    },
    {
      "inputs": [
        {
          "internalType": "address",
          "name": "owner",
          "type": "address"
        },
        {
          "internalType": "uint256",
          "name": "shares",
          "type": "uint256"
        },
        {
          "internalType": "uint256",
          "name": "max",
          "type": "uint256"
        }
      ],
      "name": "ERC4626ExceededMaxRedeem",
      "type": "error"
    },
    {
      "inputs": [
        {
          "internalType": "address",
          "name": "owner",
          "type": "address"
        },
        {
          "internalType": "uint256",
          "name": "assets",
          "type": "uint256"
        },
        {
          "internalType": "uint256",
          "name": "max",
          "type": "uint256"
        }
      ],
      "name": "ERC4626ExceededMaxWithdraw",
      "type": "error"
    },
    {
      "inputs": [],
      "name": "EnforcedPause",
      "type": "error"
    },
    {
      "inputs": [],
      "name": "EthNotSent",
      "type": "error"
    },
    {
      "inputs": [],
      "name": "EthTransferFailed",
      "type": "error"
    },
    {
      "inputs": [
        {
          "internalType": "uint256",
          "name": "withdrawCount",
          "type": "uint256"
        }
      ],
      "name": "ExceedMaxWithdrawCount",
      "type": "error"
    },
    {
      "inputs": [
        {
          "internalType": "uint256",
          "name": "tokenAmount",
          "type": "uint256"
        },
        {
          "internalType": "uint256",
          "name": "pendingAmount",
          "type": "uint256"
        }
      ],
      "name": "ExceedPermittedAmount",
      "type": "error"
    },
    {
      "inputs": [],
      "name": "ExpectedPause",
      "type": "error"
    },
    {
      "inputs": [
        {
          "internalType": "uint256",
          "name": "tokenAmount",
          "type": "uint256"
        },
        {
          "internalType": "uint256",
          "name": "availableAmount",
          "type": "uint256"
        }
      ],
      "name": "InsufficientWithdrawAmount",
      "type": "error"
    },
    {
      "inputs": [
        {
          "internalType": "address",
          "name": "data",
          "type": "address"
        },
        {
          "internalType": "address",
          "name": "expectedBridgeVault",
          "type": "address"
        }
      ],
      "name": "InvalidDataParameter",
      "type": "error"
    },
    {
      "inputs": [],
      "name": "InvalidInitialization",
      "type": "error"
    },
    {
      "inputs": [],
      "name": "NotInitializing",
      "type": "error"
    },
    {
      "inputs": [
        {
          "internalType": "address",
          "name": "account",
          "type": "address"
        }
      ],
      "name": "NotRoleAdmin",
      "type": "error"
    },
    {
      "inputs": [
        {
          "internalType": "address",
          "name": "account",
          "type": "address"
        }
      ],
      "name": "NotTriggerAddress",
      "type": "error"
    },
    {
      "inputs": [
        {
          "internalType": "address",
          "name": "owner",
          "type": "address"
        }
      ],
      "name": "OwnableInvalidOwner",
      "type": "error"
    },
    {
      "inputs": [
        {
          "internalType": "address",
          "name": "account",
          "type": "address"
        }
      ],
      "name": "OwnableUnauthorizedAccount",
      "type": "error"
    },
    {
      "inputs": [],
      "name": "ReentrancyGuardReentrantCall",
      "type": "error"
    },
    {
      "inputs": [
        {
          "internalType": "address",
          "name": "token",
          "type": "address"
        }
      ],
      "name": "SafeERC20FailedOperation",
      "type": "error"
    },
    {
      "anonymous": false,
      "inputs": [
        {
          "indexed": true,
          "internalType": "address",
          "name": "owner",
          "type": "address"
        },
        {
          "indexed": true,
          "internalType": "address",
          "name": "spender",
          "type": "address"
        },
        {
          "indexed": false,
          "internalType": "uint256",
          "name": "value",
          "type": "uint256"
        }
      ],
      "name": "Approval",
      "type": "event"
    },
    {
      "anonymous": false,
      "inputs": [
        {
          "indexed": false,
          "internalType": "uint256",
          "name": "tokenAmount",
          "type": "uint256"
        },
        {
          "indexed": false,
          "internalType": "uint256",
          "name": "vTokenAmount",
          "type": "uint256"
        }
      ],
      "name": "AsyncMintCompleted",
      "type": "event"
    },
    {
      "anonymous": false,
      "inputs": [
        {
          "indexed": false,
          "internalType": "uint256",
          "name": "vTokenAmount",
          "type": "uint256"
        }
      ],
      "name": "AsyncRedeemCompleted",
      "type": "event"
    },
    {
      "anonymous": false,
      "inputs": [
        {
          "indexed": false,
          "internalType": "bytes",
          "name": "oldBifrostDest",
          "type": "bytes"
        },
        {
          "indexed": false,
          "internalType": "bytes",
          "name": "newBifrostDest",
          "type": "bytes"
        }
      ],
      "name": "BifrostDestChanged",
      "type": "event"
    },
    {
      "anonymous": false,
      "inputs": [
        {
          "indexed": true,
          "internalType": "address",
          "name": "oldBridgeVault",
          "type": "address"
        },
        {
          "indexed": true,
          "internalType": "address",
          "name": "newBridgeVault",
          "type": "address"
        }
      ],
      "name": "BridgeVaultChanged",
      "type": "event"
    },
    {
      "anonymous": false,
      "inputs": [
        {
          "indexed": false,
          "internalType": "uint256",
          "name": "currentCycleMintTokenAmount",
          "type": "uint256"
        },
        {
          "indexed": false,
          "internalType": "uint256",
          "name": "currentCycleMintVTokenAmount",
          "type": "uint256"
        },
        {
          "indexed": false,
          "internalType": "uint256",
          "name": "currentCycleRedeemVTokenAmount",
          "type": "uint256"
        }
      ],
      "name": "CurrentCycleTokenAmountIncreased",
      "type": "event"
    },
    {
      "anonymous": false,
      "inputs": [
        {
          "indexed": true,
          "internalType": "address",
          "name": "sender",
          "type": "address"
        },
        {
          "indexed": true,
          "internalType": "address",
          "name": "owner",
          "type": "address"
        },
        {
          "indexed": false,
          "internalType": "uint256",
          "name": "assets",
          "type": "uint256"
        },
        {
          "indexed": false,
          "internalType": "uint256",
          "name": "shares",
          "type": "uint256"
        }
      ],
      "name": "Deposit",
      "type": "event"
    },
    {
      "anonymous": false,
      "inputs": [
        {
          "indexed": true,
          "internalType": "address",
          "name": "sender",
          "type": "address"
        },
        {
          "indexed": false,
          "internalType": "uint256",
          "name": "amount",
          "type": "uint256"
        }
      ],
      "name": "EthReceived",
      "type": "event"
    },
    {
      "anonymous": false,
      "inputs": [
        {
          "indexed": false,
          "internalType": "uint64",
          "name": "version",
          "type": "uint64"
        }
      ],
      "name": "Initialized",
      "type": "event"
    },
    {
      "anonymous": false,
      "inputs": [
        {
          "indexed": false,
          "internalType": "uint256",
          "name": "maxWithdrawCount",
          "type": "uint256"
        }
      ],
      "name": "MaxWithdrawCountChanged",
      "type": "event"
    },
    {
      "anonymous": false,
      "inputs": [
        {
          "indexed": true,
          "internalType": "address",
          "name": "oldOracle",
          "type": "address"
        },
        {
          "indexed": true,
          "internalType": "address",
          "name": "newOracle",
          "type": "address"
        }
      ],
      "name": "OracleChanged",
      "type": "event"
    },
    {
      "anonymous": false,
      "inputs": [
        {
          "indexed": true,
          "internalType": "address",
          "name": "previousOwner",
          "type": "address"
        },
        {
          "indexed": true,
          "internalType": "address",
          "name": "newOwner",
          "type": "address"
        }
      ],
      "name": "OwnershipTransferred",
      "type": "event"
    },
    {
      "anonymous": false,
      "inputs": [
        {
          "indexed": false,
          "internalType": "address",
          "name": "account",
          "type": "address"
        }
      ],
      "name": "Paused",
      "type": "event"
    },
    {
      "anonymous": false,
      "inputs": [
        {
          "indexed": true,
          "internalType": "address",
          "name": "account",
          "type": "address"
        },
        {
          "indexed": false,
          "internalType": "bool",
          "name": "isAdmin",
          "type": "bool"
        }
      ],
      "name": "RoleAdminChanged",
      "type": "event"
    },
    {
      "anonymous": false,
      "inputs": [
        {
          "indexed": true,
          "internalType": "address",
          "name": "oldTokenGateway",
          "type": "address"
        },
        {
          "indexed": true,
          "internalType": "address",
          "name": "newTokenGateway",
          "type": "address"
        }
      ],
      "name": "TokenGatewayChanged",
      "type": "event"
    },
    {
      "anonymous": false,
      "inputs": [
        {
          "indexed": true,
          "internalType": "address",
          "name": "from",
          "type": "address"
        },
        {
          "indexed": true,
          "internalType": "address",
          "name": "to",
          "type": "address"
        },
        {
          "indexed": false,
          "internalType": "uint256",
          "name": "value",
          "type": "uint256"
        }
      ],
      "name": "Transfer",
      "type": "event"
    },
    {
      "anonymous": false,
      "inputs": [
        {
          "indexed": true,
          "internalType": "address",
          "name": "oldAddress",
          "type": "address"
        },
        {
          "indexed": true,
          "internalType": "address",
          "name": "newAddress",
          "type": "address"
        }
      ],
      "name": "TriggerAddressChanged",
      "type": "event"
    },
    {
      "anonymous": false,
      "inputs": [
        {
          "indexed": false,
          "internalType": "address",
          "name": "account",
          "type": "address"
        }
      ],
      "name": "Unpaused",
      "type": "event"
    },
    {
      "anonymous": false,
      "inputs": [
        {
          "indexed": true,
          "internalType": "address",
          "name": "sender",
          "type": "address"
        },
        {
          "indexed": true,
          "internalType": "address",
          "name": "receiver",
          "type": "address"
        },
        {
          "indexed": true,
          "internalType": "address",
          "name": "owner",
          "type": "address"
        },
        {
          "indexed": false,
          "internalType": "uint256",
          "name": "assets",
          "type": "uint256"
        },
        {
          "indexed": false,
          "internalType": "uint256",
          "name": "shares",
          "type": "uint256"
        }
      ],
      "name": "Withdraw",
      "type": "event"
    },
    {
      "anonymous": false,
      "inputs": [
        {
          "indexed": true,
          "internalType": "address",
          "name": "receiver",
          "type": "address"
        },
        {
          "indexed": false,
          "internalType": "uint256",
          "name": "tokenAmount",
          "type": "uint256"
        }
      ],
      "name": "WithdrawalCompleted",
      "type": "event"
    },
    {
      "anonymous": false,
      "inputs": [
        {
          "indexed": true,
          "internalType": "address",
          "name": "caller",
          "type": "address"
        },
        {
          "indexed": true,
          "internalType": "address",
          "name": "receiver",
          "type": "address"
        },
        {
          "indexed": false,
          "internalType": "uint256",
          "name": "tokenAmount",
          "type": "uint256"
        }
      ],
      "name": "WithdrawalCompletedTo",
      "type": "event"
    },
    {
      "inputs": [
        {
          "internalType": "address",
          "name": "owner",
          "type": "address"
        },
        {
          "internalType": "address",
          "name": "spender",
          "type": "address"
        }
      ],
      "name": "allowance",
      "outputs": [
        {
          "internalType": "uint256",
          "name": "",
          "type": "uint256"
        }
      ],
      "stateMutability": "view",
      "type": "function"
    },
    {
      "inputs": [
        {
          "internalType": "address",
          "name": "spender",
          "type": "address"
        },
        {
          "internalType": "uint256",
          "name": "value",
          "type": "uint256"
        }
      ],
      "name": "approve",
      "outputs": [
        {
          "internalType": "bool",
          "name": "",
          "type": "bool"
        }
      ],
      "stateMutability": "nonpayable",
      "type": "function"
    },
    {
      "inputs": [
        {
          "internalType": "address",
          "name": "token",
          "type": "address"
        }
      ],
      "name": "approveTokenGateway",
      "outputs": [],
      "stateMutability": "nonpayable",
      "type": "function"
    },
    {
      "inputs": [],
      "name": "asset",
      "outputs": [
        {
          "internalType": "address",
          "name": "",
          "type": "address"
        }
      ],
      "stateMutability": "view",
      "type": "function"
    },
    {
      "inputs": [
        {
          "internalType": "uint256",
          "name": "relayerFee",
          "type": "uint256"
        },
        {
          "internalType": "uint64",
          "name": "timeout",
          "type": "uint64"
        }
      ],
      "name": "asyncMint",
      "outputs": [],
      "stateMutability": "payable",
      "type": "function"
    },
    {
      "inputs": [
        {
          "internalType": "bytes32",
          "name": "assetId",
          "type": "bytes32"
        },
        {
          "internalType": "bool",
          "name": "isRedeem",
          "type": "bool"
        },
        {
          "internalType": "uint256",
          "name": "relayerFee",
          "type": "uint256"
        },
        {
          "internalType": "uint64",
          "name": "timeout",
          "type": "uint64"
        }
      ],
      "name": "asyncMintWithETH",
      "outputs": [],
      "stateMutability": "payable",
      "type": "function"
    },
    {
      "inputs": [
        {
          "internalType": "bytes32",
          "name": "assetId",
          "type": "bytes32"
        },
        {
          "internalType": "bool",
          "name": "isRedeem",
          "type": "bool"
        },
        {
          "internalType": "uint256",
          "name": "relayerFee",
          "type": "uint256"
        },
        {
          "internalType": "uint64",
          "name": "timeout",
          "type": "uint64"
        },
        {
          "internalType": "uint256",
          "name": "nativeCost",
          "type": "uint256"
        }
      ],
      "name": "asyncMintWithNativeCost",
      "outputs": [],
      "stateMutability": "payable",
      "type": "function"
    },
    {
      "inputs": [
        {
          "internalType": "uint256",
          "name": "relayerFee",
          "type": "uint256"
        },
        {
          "internalType": "uint64",
          "name": "timeout",
          "type": "uint64"
        },
        {
          "internalType": "bytes32",
          "name": "to",
          "type": "bytes32"
        },
        {
          "internalType": "bytes",
          "name": "data",
          "type": "bytes"
        }
      ],
      "name": "asyncRedeem",
      "outputs": [],
      "stateMutability": "payable",
      "type": "function"
    },
    {
      "inputs": [
        {
          "internalType": "bytes32",
          "name": "assetId",
          "type": "bytes32"
        },
        {
          "internalType": "bool",
          "name": "isRedeem",
          "type": "bool"
        },
        {
          "internalType": "uint256",
          "name": "relayerFee",
          "type": "uint256"
        },
        {
          "internalType": "uint64",
          "name": "timeout",
          "type": "uint64"
        },
        {
          "internalType": "bytes32",
          "name": "to",
          "type": "bytes32"
        },
        {
          "internalType": "bytes",
          "name": "data",
          "type": "bytes"
        },
        {
          "internalType": "uint256",
          "name": "nativeCost",
          "type": "uint256"
        }
      ],
      "name": "asyncRedeemWithNativeCost",
      "outputs": [],
      "stateMutability": "payable",
      "type": "function"
    },
    {
      "inputs": [
        {
          "internalType": "address",
          "name": "account",
          "type": "address"
        }
      ],
      "name": "balanceOf",
      "outputs": [
        {
          "internalType": "uint256",
          "name": "",
          "type": "uint256"
        }
      ],
      "stateMutability": "view",
      "type": "function"
    },
    {
      "inputs": [],
      "name": "bifrostDest",
      "outputs": [
        {
          "internalType": "bytes",
          "name": "",
          "type": "bytes"
        }
      ],
      "stateMutability": "view",
      "type": "function"
    },
    {
      "inputs": [],
      "name": "bridgeVault",
      "outputs": [
        {
          "internalType": "contract BridgeVault",
          "name": "",
          "type": "address"
        }
      ],
      "stateMutability": "view",
      "type": "function"
    },
    {
      "inputs": [
        {
          "internalType": "address",
          "name": "_from",
          "type": "address"
        },
        {
          "internalType": "uint256",
          "name": "_amount",
          "type": "uint256"
        }
      ],
      "name": "burn",
      "outputs": [],
      "stateMutability": "nonpayable",
      "type": "function"
    },
    {
      "inputs": [
        {
          "internalType": "address",
          "name": "target",
          "type": "address"
        }
      ],
      "name": "canWithdrawalAmount",
      "outputs": [
        {
          "internalType": "uint256",
          "name": "",
          "type": "uint256"
        },
        {
          "internalType": "uint256",
          "name": "",
          "type": "uint256"
        },
        {
          "internalType": "uint256",
          "name": "",
          "type": "uint256"
        }
      ],
      "stateMutability": "view",
      "type": "function"
    },
    {
      "inputs": [
        {
          "internalType": "address",
          "name": "_account",
          "type": "address"
        },
        {
          "internalType": "bool",
          "name": "_isAdmin",
          "type": "bool"
        }
      ],
      "name": "changeRoleAdmin",
      "outputs": [],
      "stateMutability": "nonpayable",
      "type": "function"
    },
    {
      "inputs": [],
      "name": "completedWithdrawal",
      "outputs": [
        {
          "internalType": "uint256",
          "name": "",
          "type": "uint256"
        }
      ],
      "stateMutability": "view",
      "type": "function"
    },
    {
      "inputs": [
        {
          "internalType": "uint256",
          "name": "shares",
          "type": "uint256"
        }
      ],
      "name": "convertToAssets",
      "outputs": [
        {
          "internalType": "uint256",
          "name": "",
          "type": "uint256"
        }
      ],
      "stateMutability": "view",
      "type": "function"
    },
    {
      "inputs": [
        {
          "internalType": "uint256",
          "name": "assets",
          "type": "uint256"
        }
      ],
      "name": "convertToShares",
      "outputs": [
        {
          "internalType": "uint256",
          "name": "",
          "type": "uint256"
        }
      ],
      "stateMutability": "view",
      "type": "function"
    },
    {
      "inputs": [],
      "name": "currentCycleMintTokenAmount",
      "outputs": [
        {
          "internalType": "uint256",
          "name": "",
          "type": "uint256"
        }
      ],
      "stateMutability": "view",
      "type": "function"
    },
    {
      "inputs": [],
      "name": "currentCycleMintVTokenAmount",
      "outputs": [
        {
          "internalType": "uint256",
          "name": "",
          "type": "uint256"
        }
      ],
      "stateMutability": "view",
      "type": "function"
    },
    {
      "inputs": [],
      "name": "currentCycleRedeemVTokenAmount",
      "outputs": [
        {
          "internalType": "uint256",
          "name": "",
          "type": "uint256"
        }
      ],
      "stateMutability": "view",
      "type": "function"
    },
    {
      "inputs": [],
      "name": "decimals",
      "outputs": [
        {
          "internalType": "uint8",
          "name": "",
          "type": "uint8"
        }
      ],
      "stateMutability": "view",
      "type": "function"
    },
    {
      "inputs": [
        {
          "internalType": "uint256",
          "name": "assets",
          "type": "uint256"
        },
        {
          "internalType": "address",
          "name": "receiver",
          "type": "address"
        }
      ],
      "name": "deposit",
      "outputs": [
        {
          "internalType": "uint256",
          "name": "",
          "type": "uint256"
        }
      ],
      "stateMutability": "nonpayable",
      "type": "function"
    },
    {
      "inputs": [],
      "name": "depositWithPROS",
      "outputs": [
        {
          "internalType": "uint256",
          "name": "",
          "type": "uint256"
        }
      ],
      "stateMutability": "payable",
      "type": "function"
    },
    {
      "inputs": [],
      "name": "getTotalBalance",
      "outputs": [
        {
          "internalType": "uint256",
          "name": "",
          "type": "uint256"
        }
      ],
      "stateMutability": "view",
      "type": "function"
    },
    {
      "inputs": [
        {
          "internalType": "address",
          "name": "target",
          "type": "address"
        }
      ],
      "name": "getWithdrawals",
      "outputs": [
        {
          "components": [
            {
              "internalType": "uint256",
              "name": "queued",
              "type": "uint256"
            },
            {
              "internalType": "uint256",
              "name": "pending",
              "type": "uint256"
            }
          ],
          "internalType": "struct VTokenBase.Withdrawal[]",
          "name": "",
          "type": "tuple[]"
        }
      ],
      "stateMutability": "view",
      "type": "function"
    },
    {
      "inputs": [
        {
          "internalType": "uint256",
          "name": "_currentCycleTokenAmount",
          "type": "uint256"
        },
        {
          "internalType": "uint256",
          "name": "_currentCycleVTokenAmount",
          "type": "uint256"
        },
        {
          "internalType": "uint256",
          "name": "_currentCycleRedeemVTokenAmount",
          "type": "uint256"
        }
      ],
      "name": "increaseCurrentCycleAmount",
      "outputs": [],
      "stateMutability": "nonpayable",
      "type": "function"
    },
    {
      "inputs": [
        {
          "internalType": "contract IERC20",
          "name": "asset",
          "type": "address"
        },
        {
          "internalType": "address",
          "name": "owner",
          "type": "address"
        },
        {
          "internalType": "string",
          "name": "name",
          "type": "string"
        },
        {
          "internalType": "string",
          "name": "symbol",
          "type": "string"
        }
      ],
      "name": "initialize",
      "outputs": [],
      "stateMutability": "nonpayable",
      "type": "function"
    },
    {
      "inputs": [
        {
          "internalType": "address",
          "name": "",
          "type": "address"
        }
      ],
      "name": "maxDeposit",
      "outputs": [
        {
          "internalType": "uint256",
          "name": "",
          "type": "uint256"
        }
      ],
      "stateMutability": "view",
      "type": "function"
    },
    {
      "inputs": [
        {
          "internalType": "address",
          "name": "",
          "type": "address"
        }
      ],
      "name": "maxMint",
      "outputs": [
        {
          "internalType": "uint256",
          "name": "",
          "type": "uint256"
        }
      ],
      "stateMutability": "view",
      "type": "function"
    },
    {
      "inputs": [
        {
          "internalType": "address",
          "name": "owner",
          "type": "address"
        }
      ],
      "name": "maxRedeem",
      "outputs": [
        {
          "internalType": "uint256",
          "name": "",
          "type": "uint256"
        }
      ],
      "stateMutability": "view",
      "type": "function"
    },
    {
      "inputs": [
        {
          "internalType": "address",
          "name": "owner",
          "type": "address"
        }
      ],
      "name": "maxWithdraw",
      "outputs": [
        {
          "internalType": "uint256",
          "name": "",
          "type": "uint256"
        }
      ],
      "stateMutability": "view",
      "type": "function"
    },
    {
      "inputs": [],
      "name": "maxWithdrawCount",
      "outputs": [
        {
          "internalType": "uint256",
          "name": "",
          "type": "uint256"
        }
      ],
      "stateMutability": "view",
      "type": "function"
    },
    {
      "inputs": [
        {
          "internalType": "address",
          "name": "_to",
          "type": "address"
        },
        {
          "internalType": "uint256",
          "name": "_amount",
          "type": "uint256"
        }
      ],
      "name": "mint",
      "outputs": [],
      "stateMutability": "nonpayable",
      "type": "function"
    },
    {
      "inputs": [
        {
          "internalType": "uint256",
          "name": "shares",
          "type": "uint256"
        },
        {
          "internalType": "address",
          "name": "receiver",
          "type": "address"
        }
      ],
      "name": "mint",
      "outputs": [
        {
          "internalType": "uint256",
          "name": "",
          "type": "uint256"
        }
      ],
      "stateMutability": "nonpayable",
      "type": "function"
    },
    {
      "inputs": [],
      "name": "name",
      "outputs": [
        {
          "internalType": "string",
          "name": "",
          "type": "string"
        }
      ],
      "stateMutability": "view",
      "type": "function"
    },
    {
      "inputs": [],
      "name": "oracle",
      "outputs": [
        {
          "internalType": "contract Oracle",
          "name": "",
          "type": "address"
        }
      ],
      "stateMutability": "view",
      "type": "function"
    },
    {
      "inputs": [],
      "name": "owner",
      "outputs": [
        {
          "internalType": "address",
          "name": "",
          "type": "address"
        }
      ],
      "stateMutability": "view",
      "type": "function"
    },
    {
      "inputs": [],
      "name": "pause",
      "outputs": [],
      "stateMutability": "nonpayable",
      "type": "function"
    },
    {
      "inputs": [],
      "name": "paused",
      "outputs": [
        {
          "internalType": "bool",
          "name": "",
          "type": "bool"
        }
      ],
      "stateMutability": "view",
      "type": "function"
    },
    {
      "inputs": [
        {
          "internalType": "uint256",
          "name": "assets",
          "type": "uint256"
        }
      ],
      "name": "previewDeposit",
      "outputs": [
        {
          "internalType": "uint256",
          "name": "",
          "type": "uint256"
        }
      ],
      "stateMutability": "view",
      "type": "function"
    },
    {
      "inputs": [
        {
          "internalType": "uint256",
          "name": "shares",
          "type": "uint256"
        }
      ],
      "name": "previewMint",
      "outputs": [
        {
          "internalType": "uint256",
          "name": "",
          "type": "uint256"
        }
      ],
      "stateMutability": "view",
      "type": "function"
    },
    {
      "inputs": [
        {
          "internalType": "uint256",
          "name": "shares",
          "type": "uint256"
        }
      ],
      "name": "previewRedeem",
      "outputs": [
        {
          "internalType": "uint256",
          "name": "",
          "type": "uint256"
        }
      ],
      "stateMutability": "view",
      "type": "function"
    },
    {
      "inputs": [
        {
          "internalType": "uint256",
          "name": "assets",
          "type": "uint256"
        }
      ],
      "name": "previewWithdraw",
      "outputs": [
        {
          "internalType": "uint256",
          "name": "",
          "type": "uint256"
        }
      ],
      "stateMutability": "view",
      "type": "function"
    },
    {
      "inputs": [],
      "name": "queuedWithdrawal",
      "outputs": [
        {
          "internalType": "uint256",
          "name": "",
          "type": "uint256"
        }
      ],
      "stateMutability": "view",
      "type": "function"
    },
    {
      "inputs": [
        {
          "internalType": "uint256",
          "name": "shares",
          "type": "uint256"
        },
        {
          "internalType": "address",
          "name": "receiver",
          "type": "address"
        },
        {
          "internalType": "address",
          "name": "owner",
          "type": "address"
        }
      ],
      "name": "redeem",
      "outputs": [
        {
          "internalType": "uint256",
          "name": "",
          "type": "uint256"
        }
      ],
      "stateMutability": "nonpayable",
      "type": "function"
    },
    {
      "inputs": [],
      "name": "renounceOwnership",
      "outputs": [],
      "stateMutability": "nonpayable",
      "type": "function"
    },
    {
      "inputs": [
        {
          "internalType": "address",
          "name": "",
          "type": "address"
        }
      ],
      "name": "rolesAdmin",
      "outputs": [
        {
          "internalType": "bool",
          "name": "",
          "type": "bool"
        }
      ],
      "stateMutability": "view",
      "type": "function"
    },
    {
      "inputs": [
        {
          "internalType": "bytes",
          "name": "_bifrostDest",
          "type": "bytes"
        }
      ],
      "name": "setBifrostDest",
      "outputs": [],
      "stateMutability": "nonpayable",
      "type": "function"
    },
    {
      "inputs": [
        {
          "internalType": "address payable",
          "name": "_bridgeVault",
          "type": "address"
        }
      ],
      "name": "setBridgeVault",
      "outputs": [],
      "stateMutability": "nonpayable",
      "type": "function"
    },
    {
      "inputs": [
        {
          "internalType": "uint256",
          "name": "_maxWithdrawCount",
          "type": "uint256"
        }
      ],
      "name": "setMaxWithdrawCount",
      "outputs": [],
      "stateMutability": "nonpayable",
      "type": "function"
    },
    {
      "inputs": [
        {
          "internalType": "address",
          "name": "_oracle",
          "type": "address"
        }
      ],
      "name": "setOracle",
      "outputs": [],
      "stateMutability": "nonpayable",
      "type": "function"
    },
    {
      "inputs": [
        {
          "internalType": "address",
          "name": "_tokenGateway",
          "type": "address"
        }
      ],
      "name": "setTokenGateway",
      "outputs": [],
      "stateMutability": "nonpayable",
      "type": "function"
    },
    {
      "inputs": [
        {
          "internalType": "address",
          "name": "_triggerAddress",
          "type": "address"
        }
      ],
      "name": "setTriggerAddress",
      "outputs": [],
      "stateMutability": "nonpayable",
      "type": "function"
    },
    {
      "inputs": [
        {
          "internalType": "bytes4",
          "name": "interfaceId",
          "type": "bytes4"
        }
      ],
      "name": "supportsInterface",
      "outputs": [
        {
          "internalType": "bool",
          "name": "",
          "type": "bool"
        }
      ],
      "stateMutability": "view",
      "type": "function"
    },
    {
      "inputs": [],
      "name": "symbol",
      "outputs": [
        {
          "internalType": "string",
          "name": "",
          "type": "string"
        }
      ],
      "stateMutability": "view",
      "type": "function"
    },
    {
      "inputs": [],
      "name": "tokenGateway",
      "outputs": [
        {
          "internalType": "contract ITokenGateway",
          "name": "",
          "type": "address"
        }
      ],
      "stateMutability": "view",
      "type": "function"
    },
    {
      "inputs": [],
      "name": "totalAssets",
      "outputs": [
        {
          "internalType": "uint256",
          "name": "",
          "type": "uint256"
        }
      ],
      "stateMutability": "view",
      "type": "function"
    },
    {
      "inputs": [],
      "name": "totalSupply",
      "outputs": [
        {
          "internalType": "uint256",
          "name": "",
          "type": "uint256"
        }
      ],
      "stateMutability": "view",
      "type": "function"
    },
    {
      "inputs": [
        {
          "internalType": "address",
          "name": "to",
          "type": "address"
        },
        {
          "internalType": "uint256",
          "name": "value",
          "type": "uint256"
        }
      ],
      "name": "transfer",
      "outputs": [
        {
          "internalType": "bool",
          "name": "",
          "type": "bool"
        }
      ],
      "stateMutability": "nonpayable",
      "type": "function"
    },
    {
      "inputs": [
        {
          "internalType": "address",
          "name": "from",
          "type": "address"
        },
        {
          "internalType": "address",
          "name": "to",
          "type": "address"
        },
        {
          "internalType": "uint256",
          "name": "value",
          "type": "uint256"
        }
      ],
      "name": "transferFrom",
      "outputs": [
        {
          "internalType": "bool",
          "name": "",
          "type": "bool"
        }
      ],
      "stateMutability": "nonpayable",
      "type": "function"
    },
    {
      "inputs": [
        {
          "internalType": "address",
          "name": "newOwner",
          "type": "address"
        }
      ],
      "name": "transferOwnership",
      "outputs": [],
      "stateMutability": "nonpayable",
      "type": "function"
    },
    {
      "inputs": [],
      "name": "triggerAddress",
      "outputs": [
        {
          "internalType": "address",
          "name": "",
          "type": "address"
        }
      ],
      "stateMutability": "view",
      "type": "function"
    },
    {
      "inputs": [],
      "name": "unpause",
      "outputs": [],
      "stateMutability": "nonpayable",
      "type": "function"
    },
    {
      "inputs": [
        {
          "internalType": "uint256",
          "name": "assets",
          "type": "uint256"
        },
        {
          "internalType": "address",
          "name": "receiver",
          "type": "address"
        },
        {
          "internalType": "address",
          "name": "owner",
          "type": "address"
        }
      ],
      "name": "withdraw",
      "outputs": [
        {
          "internalType": "uint256",
          "name": "",
          "type": "uint256"
        }
      ],
      "stateMutability": "nonpayable",
      "type": "function"
    },
    {
      "inputs": [],
      "name": "withdrawComplete",
      "outputs": [],
      "stateMutability": "nonpayable",
      "type": "function"
    },
    {
      "inputs": [
        {
          "internalType": "address",
          "name": "receiver",
          "type": "address"
        }
      ],
      "name": "withdrawCompleteTo",
      "outputs": [
        {
          "internalType": "uint256",
          "name": "",
          "type": "uint256"
        }
      ],
      "stateMutability": "nonpayable",
      "type": "function"
    },
    {
      "inputs": [],
      "name": "withdrawCompleteToPROS",
      "outputs": [
        {
          "internalType": "uint256",
          "name": "",
          "type": "uint256"
        }
      ],
      "stateMutability": "nonpayable",
      "type": "function"
    },
    {
      "inputs": [
        {
          "internalType": "address",
          "name": "token",
          "type": "address"
        },
        {
          "internalType": "uint256",
          "name": "amount",
          "type": "uint256"
        },
        {
          "internalType": "address",
          "name": "to",
          "type": "address"
        }
      ],
      "name": "withdrawFeeToken",
      "outputs": [],
      "stateMutability": "nonpayable",
      "type": "function"
    },
    {
      "inputs": [
        {
          "internalType": "address",
          "name": "",
          "type": "address"
        },
        {
          "internalType": "uint256",
          "name": "",
          "type": "uint256"
        }
      ],
      "name": "withdrawals",
      "outputs": [
        {
          "internalType": "uint256",
          "name": "queued",
          "type": "uint256"
        },
        {
          "internalType": "uint256",
          "name": "pending",
          "type": "uint256"
        }
      ],
      "stateMutability": "view",
      "type": "function"
    },
    {
      "stateMutability": "payable",
      "type": "receive"
    }
  ],
  "transactionHash": "0xa9eaa844d196f9cc5719825d6b0056f75172fa935676818284ef7234a1704af0",
  "args": [],
  "numDeployments": 1,
  "solcInputHash": "4829d311ed29a96f2979e35b22a8fedd",
  "bytecode": "0x608060405234801561001057600080fd5b50614288806100206000396000f3fe6080604052600436106104075760003560e01c8063715018a611610213578063ac03e9f011610123578063ce96cb77116100ab578063ebcb0b7a1161007a578063ebcb0b7a14610bc8578063ef8b30f714610b1f578063f29ee49314610be8578063f2fde38b14610c08578063f8e8826614610c2857600080fd5b8063ce96cb7714610b52578063d905777e14610b72578063dc692cd714610b92578063dd62ed3e14610ba857600080fd5b8063b9611c59116100f2578063b9611c5914610adf578063ba08765214610aff578063c63d75b6146106ce578063c6e6f59214610b1f578063ccb4d85d14610b3f57600080fd5b8063ac03e9f014610a77578063b3d7f6b914610a97578063b4430b9914610ab7578063b460af9414610abf57600080fd5b806394bf804d116101a65780639b8b8712116101755780639b8b8712146109e45780639dc29fac146109f7578063a348b2ea14610a17578063a9059cbb14610a37578063aa0d6e8e14610a5757600080fd5b806394bf804d146109795780639578ed3d1461099957806395d89b41146109b9578063996e5c06146109ce57600080fd5b806387ce75ba116101e257806387ce75ba14610911578063883f3030146109245780638da5cb5b146109445780638e0881591461095957600080fd5b8063715018a6146108a75780637adbf973146108bc5780637dc0d1d0146108dc5780638456cb59146108fc57600080fd5b806338d52e0f1161031957806356afffac116102a15780636a7e2e50116102705780636a7e2e50146108145780636a94a020146108345780636d67d5d4146108475780636e553f651461086757806370a082311461088757600080fd5b806356afffac146107965780635ba6dbff146107a95780635c975abb146107d957806363ea1b92146107fe57600080fd5b806340c10f19116102e857806340c10f19146106f0578063422b1077146107105780634cdad506146105105780634f284dcb1461074557806352a630b91461075b57600080fd5b806338d52e0f146106775780633a2b643a1461068c5780633f4ba83a146106b9578063402d267d146106ce57600080fd5b80630a28a4771161039c5780632016a0d21161036b5780632016a0d2146105e457806323b872dd14610606578063266a3bce146106265780632e6cb8411461063b578063313ce5671461065057600080fd5b80630a28a4771461056657806312b583491461058657806318160ddd1461059b57806318e82c91146105cf57600080fd5b806306fdde03116103d857806306fdde03146104ee57806307a2d13a14610510578063095ea7b31461053057806309c5dacc1461055057600080fd5b8062897cb61461044857806291be551461047157806301e1d114146104a957806301ffc9a7146104be57600080fd5b366104435760405134815233907f85177f287940f2f05425a4029951af0e047a7f9c4eaa9a6e6917bcd869f866959060200160405180910390a2005b600080fd5b34801561045457600080fd5b5061045e60065481565b6040519081526020015b60405180910390f35b34801561047d57600080fd5b50600454610491906001600160a01b031681565b6040516001600160a01b039091168152602001610468565b3480156104b557600080fd5b5061045e610c48565b3480156104ca57600080fd5b506104de6104d93660046137f0565b610cd4565b6040519015158152602001610468565b3480156104fa57600080fd5b50610503610d26565b604051610468919061386a565b34801561051c57600080fd5b5061045e61052b36600461387d565b610de9565b34801561053c57600080fd5b506104de61054b3660046138ab565b610df6565b34801561055c57600080fd5b5061045e60075481565b34801561057257600080fd5b5061045e61058136600461387d565b610e0e565b34801561059257600080fd5b5061045e610e1b565b3480156105a757600080fd5b507f52c63247e1f47db19d5ce0460030c497f067ca4cebf71ba98eeadabe20bace025461045e565b3480156105db57600080fd5b50610503610eb2565b3480156105f057600080fd5b506106046105ff36600461399a565b610f40565b005b34801561061257600080fd5b506104de610621366004613a22565b611048565b34801561063257600080fd5b5061060461106c565b34801561064757600080fd5b5061045e611078565b34801561065c57600080fd5b50610665611184565b60405160ff9091168152602001610468565b34801561068357600080fd5b506104916111c8565b34801561069857600080fd5b506106ac6106a7366004613a63565b6111fd565b6040516104689190613a80565b3480156106c557600080fd5b50610604611286565b3480156106da57600080fd5b5061045e6106e9366004613a63565b5060001990565b3480156106fc57600080fd5b5061060461070b3660046138ab565b611298565b34801561071c57600080fd5b5061073061072b3660046138ab565b6112e9565b60408051928352602083019190915201610468565b34801561075157600080fd5b5061045e60085481565b34801561076757600080fd5b5061077b610776366004613a63565b611325565b60408051938452602084019290925290820152606001610468565b6106046107a4366004613af9565b611507565b3480156107b557600080fd5b506104de6107c4366004613a63565b60006020819052908152604090205460ff1681565b3480156107e557600080fd5b506000805160206142138339815191525460ff166104de565b34801561080a57600080fd5b5061045e600a5481565b34801561082057600080fd5b5061060461082f366004613b41565b6118b8565b610604610842366004613b7a565b61191d565b34801561085357600080fd5b5061060461086236600461387d565b611b54565b34801561087357600080fd5b5061045e610882366004613c00565b611b98565b34801561089357600080fd5b5061045e6108a2366004613a63565b611be7565b3480156108b357600080fd5b50610604611c0f565b3480156108c857600080fd5b506106046108d7366004613a63565b611c21565b3480156108e857600080fd5b50600354610491906001600160a01b031681565b34801561090857600080fd5b50610604611c7b565b61060461091f366004613c25565b611c8b565b34801561093057600080fd5b5061060461093f366004613c51565b611ef9565b34801561095057600080fd5b50610491611f1a565b34801561096557600080fd5b50610604610974366004613c93565b611f43565b34801561098557600080fd5b5061045e610994366004613c00565b612027565b3480156109a557600080fd5b506106046109b4366004613cc7565b612069565b3480156109c557600080fd5b50610503612119565b3480156109da57600080fd5b5061045e60095481565b6106046109f2366004613cf3565b612158565b348015610a0357600080fd5b50610604610a123660046138ab565b6123a2565b348015610a2357600080fd5b50610604610a32366004613a63565b6123c9565b348015610a4357600080fd5b506104de610a523660046138ab565b612423565b348015610a6357600080fd5b50600154610491906001600160a01b031681565b348015610a8357600080fd5b50600254610491906001600160a01b031681565b348015610aa357600080fd5b5061045e610ab236600461387d565b612431565b61045e61243e565b348015610acb57600080fd5b5061045e610ada366004613d47565b612569565b348015610aeb57600080fd5b50610604610afa366004613a63565b612586565b348015610b0b57600080fd5b5061045e610b1a366004613d47565b6125e0565b348015610b2b57600080fd5b5061045e610b3a36600461387d565b6125f5565b610604610b4d366004613d7e565b612602565b348015610b5e57600080fd5b5061045e610b6d366004613a63565b6127f1565b348015610b7e57600080fd5b5061045e610b8d366004613a63565b612806565b348015610b9e57600080fd5b5061045e600c5481565b348015610bb457600080fd5b5061045e610bc3366004613dce565b612811565b348015610bd457600080fd5b50610604610be3366004613a63565b61285b565b348015610bf457600080fd5b5061045e610c03366004613a63565b6128b5565b348015610c1457600080fd5b50610604610c23366004613a63565b612a97565b348015610c3457600080fd5b50610604610c43366004613a63565b612ad2565b60035460009081906001600160a01b0316639a7b5f11610c666111c8565b6040516001600160e01b031960e084901b1681526001600160a01b0390911660048201526024016040805180830381865afa158015610ca9573d6000803e3d6000fd5b505050506040513d601f19601f82011682018060405250810190610ccd9190613dfc565b5092915050565b60006001600160e01b0319821663043eff2d60e51b1480610d0557506001600160e01b031982166336372b0760e01b145b80610d2057506301ffc9a760e01b6001600160e01b03198316145b92915050565b7f52c63247e1f47db19d5ce0460030c497f067ca4cebf71ba98eeadabe20bace0380546060916000805160206141f383398151915291610d6590613e20565b80601f0160208091040260200160405190810160405280929190818152602001828054610d9190613e20565b8015610dde5780601f10610db357610100808354040283529160200191610dde565b820191906000526020600020905b815481529060010190602001808311610dc157829003601f168201915b505050505091505090565b6000610d20826000612b52565b600033610e04818585612bd6565b5060019392505050565b6000610d20826001612be3565b600a54600254600091906001600160a01b031663f8b2cb4f610e3b6111c8565b6040516001600160e01b031960e084901b1681526001600160a01b039091166004820152602401602060405180830381865afa158015610e7f573d6000803e3d6000fd5b505050506040513d601f19601f82011682018060405250810190610ea39190613e5a565b610ead9190613e89565b905090565b60058054610ebf90613e20565b80601f0160208091040260200160405190810160405280929190818152602001828054610eeb90613e20565b8015610f385780601f10610f0d57610100808354040283529160200191610f38565b820191906000526020600020905b815481529060010190602001808311610f1b57829003601f168201915b505050505081565b6000610f4a612bff565b805490915060ff600160401b82041615906001600160401b0316600081158015610f715750825b90506000826001600160401b03166001148015610f8d5750303b155b905081158015610f9b575080155b15610fb95760405163f92ee8a960e01b815260040160405180910390fd5b845467ffffffffffffffff191660011785558315610fe357845460ff60401b1916600160401b1785555b610fef89898989612c28565b610ff7612c6a565b831561103d57845460ff60401b19168555604051600181527fc7f505b2f371ae2175ee4913f4499e1f2633a7b5936321eed1cdaeb6115181d29060200160405180910390a15b505050505050505050565b600033611056858285612c7a565b611061858585612cc8565b506001949350505050565b611075336128b5565b50565b6000611082612d27565b61108a612d58565b6000611095306128b5565b905061109f6111c8565b6001600160a01b0316632e1a7d4d826040518263ffffffff1660e01b81526004016110cc91815260200190565b600060405180830381600087803b1580156110e657600080fd5b505af11580156110fa573d6000803e3d6000fd5b50506040516000925033915083908381818185875af1925050503d8060008114611140576040519150601f19603f3d011682016040523d82523d6000602084013e611145565b606091505b505090508061116757604051630db2c7f160e31b815260040160405180910390fd5b509050611181600160008051602061423383398151915255565b90565b6000807f0773e532dfede91f04b12a73d3d2acd361424f41f76b4fb79f090161e36b4e009050600081546111c29190600160a01b900460ff16613e9c565b91505090565b6000807f0773e532dfede91f04b12a73d3d2acd361424f41f76b4fb79f090161e36b4e005b546001600160a01b031692915050565b6001600160a01b0381166000908152600b60209081526040808320805482518185028101850190935280835260609492939192909184015b8282101561127b57838290600052602060002090600202016040518060400160405290816000820154815260200160018201548152505081526020019060010190611235565b505050509050919050565b61128e612da4565b611296612dd6565b565b3360009081526020819052604090205460ff166112db57335b60405163cf783f1b60e01b81526001600160a01b0390911660048201526024015b60405180910390fd5b6112e58282612e30565b5050565b600b602052816000526040600020818154811061130557600080fd5b600091825260209091206002909102018054600190910154909250905082565b600080600080600b6000866001600160a01b03166001600160a01b03168152602001908152602001600020805480602002602001604051908101604052809291908181526020016000905b828210156113b657838290600052602060002090600202016040518060400160405290816000820154815260200160018201548152505081526020019060010190611370565b5050505090506000806113c7610e1b565b90506000806000855190505b80156114f65760006113e6600183613eb5565b90508681815181106113fa576113fa613ec8565b6020026020010151600001518511156114e357600087828151811061142157611421613ec8565b602002602001015160000151866114389190613eb5565b905087828151811061144c5761144c613ec8565b60200260200101516020015181101561147e576114698188613e89565b96506114758185613e89565b935050506114f6565b87828151811061149057611490613ec8565b602002602001015160200151876114a79190613e89565b96508782815181106114bb576114bb613ec8565b602002602001015160200151816114d29190613eb5565b90506114df600186613e89565b9450505b50806114ee81613ede565b9150506113d3565b509298909750919550909350505050565b6004546001600160a01b0316336001600160a01b03161461154957335b6040516334adc1f160e11b81526001600160a01b0390911660048201526024016112d2565b6007546115546111c8565b6040516370a0823160e01b81523060048201526001600160a01b0391909116906370a0823190602401602060405180830381865afa15801561159a573d6000803e3d6000fd5b505050506040513d601f19601f820116820180604052508101906115be9190613e5a565b101561160c5760405162461bcd60e51b815260206004820152601960248201527f496e73756666696369656e7420574554482062616c616e63650000000000000060448201526064016112d2565b6116146111c8565b6001600160a01b0316632e1a7d4d6007546040518263ffffffff1660e01b815260040161164391815260200190565b600060405180830381600087803b15801561165d57600080fd5b505af1158015611671573d6000803e3d6000fd5b5050600654604080514663ffffffff166020820152808201929092528051808303820181526101808301909152600754606083019081526080830187905260a0830189905287151560c08401526b6d6f646ca09b1c60e865024560a01b60e0840152600580549295503494506000939192610100909201916116f290613e20565b80601f016020809104026020016040519081016040528092919081815260200182805461171e90613e20565b801561176b5780601f106117405761010080835404028352916020019161176b565b820191906000526020600020905b81548152906001019060200180831161174e57829003601f168201915b50505050508152602001856001600160401b031681526020018381526020018481525090508160075461179e9190613e89565b4710156117ed5760405162461bcd60e51b815260206004820152601860248201527f496e73756666696369656e74204554482062616c616e6365000000000000000060448201526064016112d2565b6001546007546001600160a01b03909116906386f28b7590611810908590613e89565b836040518363ffffffff1660e01b815260040161182d9190613ef5565b6000604051808303818588803b15801561184657600080fd5b505af115801561185a573d6000803e3d6000fd5b50505050507f6b45cf5821ea448f3b4bc2d17d84adc7ce8e6551c12a8011bc7758689625c7ae60075460065460405161189d929190918252602082015260400190565b60405180910390a15050600060068190556007555050505050565b6118c0612da4565b6001600160a01b03821660008181526020818152604091829020805460ff191685151590811790915591519182527f060a88436ef512bdcb7bfc094a8ffe4cc5d0915141714206a44f3608a52ea5e4910160405180910390a25050565b6004546001600160a01b0316336001600160a01b03161461193e5733611524565b60148251101561197757600254604051630af8516160e01b8152600060048201526001600160a01b0390911660248201526044016112d2565b81518201600c015160025460609190911c906001600160a01b031681146119c857600254604051630af8516160e01b81526001600160a01b03808416600483015290911660248201526044016112d2565b600060405180610120016040528060085481526020018881526020018a8152602001891515815260200186815260200160058054611a0590613e20565b80601f0160208091040260200160405190810160405280929190818152602001828054611a3190613e20565b8015611a7e5780601f10611a5357610100808354040283529160200191611a7e565b820191906000526020600020905b815481529060010190602001808311611a6157829003601f168201915b50505091835250506001600160401b03881660208201526040808201869052606090910186905260015490516386f28b7560e01b81529192506001600160a01b0316906386f28b75903490611ad7908590600401613ef5565b6000604051808303818588803b158015611af057600080fd5b505af1158015611b04573d6000803e3d6000fd5b50505050507f308b332f2a0d9e0ea7897e76316d8cc9509d09223c277579da7938440f3f8d31600854604051611b3c91815260200190565b60405180910390a15050600060085550505050505050565b611b5c612da4565b600c8190556040518181527f44ffe61d7fc090a2cdc76ca159a0ec1c9d29abe81d9bffffc4db69ccea4fdb26906020015b60405180910390a150565b6000611ba2612d27565b8260076000828254611bb49190613e89565b9091555060009050611bc68484612e66565b90508060066000828254611bda9190613e89565b9091555090949350505050565b6001600160a01b031660009081526000805160206141f3833981519152602052604090205490565b611c17612da4565b6112966000612e84565b611c29612da4565b600380546001600160a01b038381166001600160a01b0319831681179093556040519116919082907f05cd89403c6bdeac21c2ff33de395121a31fa1bc2bf3adf4825f1f86e79969dd90600090a35050565b611c83612da4565b611296612ef5565b6004546001600160a01b0316336001600160a01b031614611cac5733611524565b600654604080514663ffffffff16602082015280820192909252805180830382018152606090920190526000611ce06111c8565b6001600160a01b03166395d89b416040518163ffffffff1660e01b8152600401600060405180830381865afa158015611d1d573d6000803e3d6000fd5b505050506040513d6000823e601f3d908101601f19168201604052611d459190810190613f9e565b805190602001209050600060405180610120016040528060075481526020018681526020018381526020016001151581526020016b6d6f646ca09b1c60e865024560a01b60001b815260200160058054611d9e90613e20565b80601f0160208091040260200160405190810160405280929190818152602001828054611dca90613e20565b8015611e175780601f10611dec57610100808354040283529160200191611e17565b820191906000526020600020905b815481529060010190602001808311611dfa57829003601f168201915b50505091835250506001600160401b03861660208201526000604080830191909152606090910185905260015490516386f28b7560e01b81529192506001600160a01b0316906386f28b7590611e71908490600401613ef5565b600060405180830381600087803b158015611e8b57600080fd5b505af1158015611e9f573d6000803e3d6000fd5b50506007546006546040517f6b45cf5821ea448f3b4bc2d17d84adc7ce8e6551c12a8011bc7758689625c7ae9450611ee09350918252602082015260400190565b60405180910390a1505060006006819055600755505050565b611f01612da4565b611f156001600160a01b0384168284612f3e565b505050565b6000807f9016d09d72d40fdae2fd8ceac6b6234c7706214fd39c1cd1e609a0528c1993006111ed565b611f4b612da4565b600060058054611f5a90613e20565b80601f0160208091040260200160405190810160405280929190818152602001828054611f8690613e20565b8015611fd35780601f10611fa857610100808354040283529160200191611fd3565b820191906000526020600020905b815481529060010190602001808311611fb657829003601f168201915b505050505090508160059081611fe9919061405b565b507f4a87d30ded0d321cd83bdb36301f8649eb3f34385dbee72c4f9bfc34f2fa0990818360405161201b92919061411a565b60405180910390a15050565b6000612031612d27565b82600660008282546120439190613e89565b90915550600090506120558484612f9d565b90508060076000828254611bda9190613e89565b6004546001600160a01b0316336001600160a01b03161461208a5733611524565b826007600082825461209c9190613e89565b9250508190555081600660008282546120b59190613e89565b9250508190555080600860008282546120ce9190613e89565b909155505060408051848152602081018490529081018290527f64d22f0f99bb726e551f414271dc87b19f0af822f05cf28b52e0ed8dc1cae6959060600160405180910390a1505050565b7f52c63247e1f47db19d5ce0460030c497f067ca4cebf71ba98eeadabe20bace0480546060916000805160206141f383398151915291610d6590613e20565b6004546001600160a01b0316336001600160a01b0316146121795733611524565b6014815110156121b257600254604051630af8516160e01b8152600060048201526001600160a01b0390911660248201526044016112d2565b80518101600c015160025460609190911c906001600160a01b0316811461220357600254604051630af8516160e01b81526001600160a01b03808416600483015290911660248201526044016112d2565b600061220d612119565b805190602001209050600060405180610120016040528060085481526020018881526020018381526020016001151581526020018681526020016005805461225490613e20565b80601f016020809104026020016040519081016040528092919081815260200182805461228090613e20565b80156122cd5780601f106122a2576101008083540402835291602001916122cd565b820191906000526020600020905b8154815290600101906020018083116122b057829003601f168201915b50505091835250506001600160401b03881660208201526000604080830191909152606090910186905260015490516386f28b7560e01b81529192506001600160a01b0316906386f28b7590612327908490600401613ef5565b600060405180830381600087803b15801561234157600080fd5b505af1158015612355573d6000803e3d6000fd5b505050507f308b332f2a0d9e0ea7897e76316d8cc9509d09223c277579da7938440f3f8d3160085460405161238c91815260200190565b60405180910390a1505060006008555050505050565b3360009081526020819052604090205460ff166123bf57336112b1565b6112e58282612fbb565b6123d1612da4565b600480546001600160a01b038381166001600160a01b0319831681179093556040519116919082907ffb4f486d94e178196d42ba25e8dc7634b877c66d343f32cbdf17877d909f71c690600090a35050565b600033610e04818585612cc8565b6000610d20826001612b52565b6000612448612d27565b612450612d58565b3460000361247157604051638689d99160e01b815260040160405180910390fd5b6124796111c8565b6001600160a01b031663d0e30db0346040518263ffffffff1660e01b81526004016000604051808303818588803b1580156124b357600080fd5b505af11580156124c7573d6000803e3d6000fd5b505050505034600760008282546124de9190613e89565b90915550600090506124ef346125f5565b905080600660008282546125039190613e89565b9091555061251390503382612e30565b6040805134815260208101839052339182917fdcbc1c05240f31ff3ad067ef1ee35ce4997762752e3a095284754544f4c709d7910160405180910390a39050611181600160008051602061423383398151915255565b6000612573612d27565b61257e848484612ff1565b949350505050565b61258e612da4565b600180546001600160a01b038381166001600160a01b0319831681179093556040519116919082907f6614a509f091642a5c221a9e48c926deeb5e016abd4fc042aab22af9efa79e4490600090a35050565b60006125ea612d27565b61257e848484613049565b6000610d20826000612be3565b6004546001600160a01b0316336001600160a01b0316146126235733611524565b600654604080514663ffffffff16602082015280820192909252805180830382018152606090920190526126556111c8565b60015460075460405163095ea7b360e01b81526001600160a01b039283166004820152602481019190915291169063095ea7b3906044016020604051808303816000875af11580156126ab573d6000803e3d6000fd5b505050506040513d601f19601f820116820180604052508101906126cf919061413f565b506000604051806101200160405280600754815260200186815260200188815260200187151581526020016b6d6f646ca09b1c60e865024560a01b60001b81526020016005805461271f90613e20565b80601f016020809104026020016040519081016040528092919081815260200182805461274b90613e20565b80156127985780601f1061276d57610100808354040283529160200191612798565b820191906000526020600020905b81548152906001019060200180831161277b57829003601f168201915b50505091835250506001600160401b03861660208201526040808201869052606090910184905260015490516386f28b7560e01b81529192506001600160a01b0316906386f28b7590349061182d908590600401613ef5565b6000610d206127ff83611be7565b6000612b52565b6000610d2082611be7565b6001600160a01b0391821660009081527f52c63247e1f47db19d5ce0460030c497f067ca4cebf71ba98eeadabe20bace016020908152604080832093909416825291909152205490565b612863612da4565b600280546001600160a01b038381166001600160a01b0319831681179093556040519116919082907f5184366de5d6e0da68619eb4088b13d96d019c8e1dd7024729314c2c2b2f379990600090a35050565b336000818152600b6020526040812090918290819081906128d590611325565b92509250925060005b8281101561291f57848054806128f6576128f661415c565b6000828152602081206002600019909301928302018181556001908101919091559155016128de565b5080156129b55783548190859061293890600190613eb5565b8154811061294857612948613ec8565b906000526020600020906002020160010160008282546129689190613eb5565b909155505083548190859061297f90600190613eb5565b8154811061298f5761298f613ec8565b906000526020600020906002020160000160008282546129af9190613e89565b90915550505b82600a60008282546129c79190613e89565b90915550506002546001600160a01b03166301e336676129e56111c8565b6040516001600160e01b031960e084901b1681526001600160a01b039182166004820152908916602482015260448101869052606401600060405180830381600087803b158015612a3557600080fd5b505af1158015612a49573d6000803e3d6000fd5b50506040518581526001600160a01b03891692503391507f705e993f287961edfb0e5767d8612950b5180a6060d4ddc4408da6400d213c3b9060200160405180910390a35090949350505050565b612a9f612da4565b6001600160a01b038116612ac957604051631e4fbdf760e01b8152600060048201526024016112d2565b61107581612e84565b612ada612da4565b60015460405163095ea7b360e01b81526001600160a01b03918216600482015260001960248201529082169063095ea7b3906044016020604051808303816000875af1158015612b2e573d6000803e3d6000fd5b505050506040513d601f19601f820116820180604052508101906112e5919061413f565b6003546000906001600160a01b031663a71b35ab612b6e6111c8565b85856040518463ffffffff1660e01b8152600401612b8e93929190614172565b602060405180830381865afa158015612bab573d6000803e3d6000fd5b505050506040513d601f19601f82011682018060405250810190612bcf9190613e5a565b9392505050565b611f158383836001613098565b6003546000906001600160a01b03166398a90900612b6e6111c8565b6000807ff0c57e16840df040f15088dc2f81fe391c3923bec73e23a9662efc9c229c6a00610d20565b612c30613180565b612c3a82826131a5565b612c43846131b7565b612c4c836131c8565b612c546131d9565b612c5c6131d9565b612c64612ef5565b50505050565b612c72613180565b6112966131e1565b6000612c868484612811565b9050600019811015612c645781811015612cb957828183604051637dc7a0d960e11b81526004016112d2939291906141b5565b612c6484848484036000613098565b6001600160a01b038316612cf257604051634b637e8f60e11b8152600060048201526024016112d2565b6001600160a01b038216612d1c5760405163ec442f0560e01b8152600060048201526024016112d2565b611f158383836131e9565b6000805160206142138339815191525460ff16156112965760405163d93c066560e01b815260040160405180910390fd5b600080516020614233833981519152805460011901612d8a57604051633ee5aeb560e01b815260040160405180910390fd5b60029055565b600160008051602061423383398151915255565b33612dad611f1a565b6001600160a01b0316146112965760405163118cdaa760e01b81523360048201526024016112d2565b612dde613314565b600080516020614213833981519152805460ff191681557f5db9ee0a495bf2e6ff9c91a7834c1ba4fdd244a5e8aa4e537bd38aeae4b073aa335b6040516001600160a01b039091168152602001611b8d565b6001600160a01b038216612e5a5760405163ec442f0560e01b8152600060048201526024016112d2565b6112e5600083836131e9565b60006000196000612e76856125f5565b905061257e33858784613344565b7f9016d09d72d40fdae2fd8ceac6b6234c7706214fd39c1cd1e609a0528c19930080546001600160a01b031981166001600160a01b03848116918217845560405192169182907f8be0079c531659141344cd1fd0a4f28419497f9722a3daafe3b4186f6b6457e090600090a3505050565b612efd612d27565b600080516020614213833981519152805460ff191660011781557f62e78cea01bee320cd4e420270b5ea74000d11b0c9f74754ebdbfc544b05a25833612e18565b6040516001600160a01b03838116602483015260448201839052611f1591859182169063a9059cbb906064015b604051602081830303815290604052915060e01b6020820180516001600160e01b0383818316178352505050506133af565b60006000196000612fad85612431565b905061257e33858388613344565b6001600160a01b038216612fe557604051634b637e8f60e11b8152600060048201526024016112d2565b6112e5826000836131e9565b600080612ffd836127f1565b90508085111561302657828582604051633fa733bb60e21b81526004016112d2939291906141b5565b600061303186610e0e565b90506130403386868985613420565b95945050505050565b60008061305583612806565b90508085111561307e57828582604051632e52afbb60e21b81526004016112d2939291906141b5565b600061308986610de9565b9050613040338686848a613420565b6000805160206141f38339815191526001600160a01b0385166130d15760405163e602df0560e01b8152600060048201526024016112d2565b6001600160a01b0384166130fb57604051634a1406b160e11b8152600060048201526024016112d2565b6001600160a01b0380861660009081526001830160209081526040808320938816835292905220839055811561317957836001600160a01b0316856001600160a01b03167f8c5be1e5ebec7d5bd14f71427d1e84f3dd0314c0f7b2291e5b200ac8c7c3b9258560405161317091815260200190565b60405180910390a35b5050505050565b6131886135e4565b61129657604051631afcd79f60e31b815260040160405180910390fd5b6131ad613180565b6112e582826135fe565b6131bf613180565b6110758161364f565b6131d0613180565b611075816136d3565b611296613180565b612d90613180565b6000805160206141f38339815191526001600160a01b038416613225578181600201600082825461321a9190613e89565b909155506132849050565b6001600160a01b038416600090815260208290526040902054828110156132655784818460405163391434e360e21b81526004016112d2939291906141b5565b6001600160a01b03851660009081526020839052604090209083900390555b6001600160a01b0383166132a25760028101805483900390556132c1565b6001600160a01b03831660009081526020829052604090208054830190555b826001600160a01b0316846001600160a01b03167fddf252ad1be2c89b69c2b068fc378daa952ba7f163c4a11628f55a4df523b3ef8460405161330691815260200190565b60405180910390a350505050565b6000805160206142138339815191525460ff1661129657604051638dfc202b60e01b815260040160405180910390fd5b61335761334f6111c8565b8530856136db565b6133618382612e30565b826001600160a01b0316846001600160a01b03167fdcbc1c05240f31ff3ad067ef1ee35ce4997762752e3a095284754544f4c709d78484604051613306929190918252602082015260400190565b600080602060008451602086016000885af1806133d2576040513d6000823e3d81fd5b50506000513d915081156133ea5780600114156133f7565b6001600160a01b0384163b155b15612c6457604051635274afe760e01b81526001600160a01b03851660048201526024016112d2565b826001600160a01b0316856001600160a01b03161461344457613444838683612c7a565b61344e8382612fbb565b6134583082612e30565b6001600160a01b0385166000908152600b602052604090208054600c5481106134975760405163db8d37d960e01b8152600481018290526024016112d2565b815460010182556000829052801561350f57805b801561350d578260018203815481106134c6576134c6613ec8565b90600052602060002090600202018382815481106134e6576134e6613ec8565b600091825260209091208254600290920201908155600191820154910155600019016134ab565b505b60405180604001604052806009548152602001858152508260008154811061353957613539613ec8565b9060005260206000209060020201600082015181600001556020820151816001015590505083600960008282546135709190613e89565b9250508190555082600860008282546135899190613e89565b909155505060408051858152602081018590526001600160a01b038088169289821692918b16917ffbde797d201c681b91056529119e0b02407c7bb96a4a2c75c01fc9667232c8db910160405180910390a450505050505050565b60006135ee612bff565b54600160401b900460ff16919050565b613606613180565b6000805160206141f38339815191527f52c63247e1f47db19d5ce0460030c497f067ca4cebf71ba98eeadabe20bace03613640848261405b565b5060048101612c64838261405b565b613657613180565b7f0773e532dfede91f04b12a73d3d2acd361424f41f76b4fb79f090161e36b4e0060008061368484613714565b9150915081613694576012613696565b805b83546001600160a81b031916600160a01b60ff92909216919091026001600160a01b031916176001600160a01b0394909416939093179091555050565b612a9f613180565b6040516001600160a01b038481166024830152838116604483015260648201839052612c649186918216906323b872dd90608401612f6b565b60408051600481526024810182526020810180516001600160e01b031663313ce56760e01b17905290516000918291829182916001600160a01b0387169161375b916141d6565b600060405180830381855afa9150503d8060008114613796576040519150601f19603f3d011682016040523d82523d6000602084013e61379b565b606091505b50915091508180156137af57506020815110155b156137e3576000818060200190518101906137ca9190613e5a565b905060ff81116137e1576001969095509350505050565b505b5060009485945092505050565b60006020828403121561380257600080fd5b81356001600160e01b031981168114612bcf57600080fd5b60005b8381101561383557818101518382015260200161381d565b50506000910152565b6000815180845261385681602086016020860161381a565b601f01601f19169290920160200192915050565b602081526000612bcf602083018461383e565b60006020828403121561388f57600080fd5b5035919050565b6001600160a01b038116811461107557600080fd5b600080604083850312156138be57600080fd5b82356138c981613896565b946020939093013593505050565b634e487b7160e01b600052604160045260246000fd5b604051601f8201601f191681016001600160401b0381118282101715613915576139156138d7565b604052919050565b60006001600160401b03821115613936576139366138d7565b50601f01601f191660200190565b600082601f83011261395557600080fd5b81356139686139638261391d565b6138ed565b81815284602083860101111561397d57600080fd5b816020850160208301376000918101602001919091529392505050565b600080600080608085870312156139b057600080fd5b84356139bb81613896565b935060208501356139cb81613896565b925060408501356001600160401b03808211156139e757600080fd5b6139f388838901613944565b93506060870135915080821115613a0957600080fd5b50613a1687828801613944565b91505092959194509250565b600080600060608486031215613a3757600080fd5b8335613a4281613896565b92506020840135613a5281613896565b929592945050506040919091013590565b600060208284031215613a7557600080fd5b8135612bcf81613896565b602080825282518282018190526000919060409081850190868401855b82811015613ac257815180518552860151868501529284019290850190600101613a9d565b5091979650505050505050565b801515811461107557600080fd5b80356001600160401b0381168114613af457600080fd5b919050565b60008060008060808587031215613b0f57600080fd5b843593506020850135613b2181613acf565b925060408501359150613b3660608601613add565b905092959194509250565b60008060408385031215613b5457600080fd5b8235613b5f81613896565b91506020830135613b6f81613acf565b809150509250929050565b600080600080600080600060e0888a031215613b9557600080fd5b873596506020880135613ba781613acf565b955060408801359450613bbc60608901613add565b93506080880135925060a08801356001600160401b03811115613bde57600080fd5b613bea8a828b01613944565b92505060c0880135905092959891949750929550565b60008060408385031215613c1357600080fd5b823591506020830135613b6f81613896565b60008060408385031215613c3857600080fd5b82359150613c4860208401613add565b90509250929050565b600080600060608486031215613c6657600080fd5b8335613c7181613896565b9250602084013591506040840135613c8881613896565b809150509250925092565b600060208284031215613ca557600080fd5b81356001600160401b03811115613cbb57600080fd5b61257e84828501613944565b600080600060608486031215613cdc57600080fd5b505081359360208301359350604090920135919050565b60008060008060808587031215613d0957600080fd5b84359350613d1960208601613add565b92506040850135915060608501356001600160401b03811115613d3b57600080fd5b613a1687828801613944565b600080600060608486031215613d5c57600080fd5b833592506020840135613d6e81613896565b91506040840135613c8881613896565b600080600080600060a08688031215613d9657600080fd5b853594506020860135613da881613acf565b935060408601359250613dbd60608701613add565b949793965091946080013592915050565b60008060408385031215613de157600080fd5b8235613dec81613896565b91506020830135613b6f81613896565b60008060408385031215613e0f57600080fd5b505080516020909101519092909150565b600181811c90821680613e3457607f821691505b602082108103613e5457634e487b7160e01b600052602260045260246000fd5b50919050565b600060208284031215613e6c57600080fd5b5051919050565b634e487b7160e01b600052601160045260246000fd5b80820180821115610d2057610d20613e73565b60ff8181168382160190811115610d2057610d20613e73565b81810381811115610d2057610d20613e73565b634e487b7160e01b600052603260045260246000fd5b600081613eed57613eed613e73565b506000190190565b6020815281516020820152602082015160408201526040820151606082015260006060830151613f29608084018215159052565b50608083015160a083015260a08301516101208060c0850152613f5061014085018361383e565b915060c0850151613f6c60e08601826001600160401b03169052565b5060e085015161010085810191909152850151848303601f190182860152613f94838261383e565b9695505050505050565b600060208284031215613fb057600080fd5b81516001600160401b03811115613fc657600080fd5b8201601f81018413613fd757600080fd5b8051613fe56139638261391d565b818152856020838501011115613ffa57600080fd5b61304082602083016020860161381a565b601f821115611f15576000816000526020600020601f850160051c810160208610156140345750805b601f850160051c820191505b8181101561405357828155600101614040565b505050505050565b81516001600160401b03811115614074576140746138d7565b614088816140828454613e20565b8461400b565b602080601f8311600181146140bd57600084156140a55750858301515b600019600386901b1c1916600185901b178555614053565b600085815260208120601f198616915b828110156140ec578886015182559484019460019091019084016140cd565b508582101561410a5787850151600019600388901b60f8161c191681555b5050505050600190811b01905550565b60408152600061412d604083018561383e565b8281036020840152613040818561383e565b60006020828403121561415157600080fd5b8151612bcf81613acf565b634e487b7160e01b600052603160045260246000fd5b6001600160a01b03841681526020810183905260608101600483106141a757634e487b7160e01b600052602160045260246000fd5b826040830152949350505050565b6001600160a01b039390931683526020830191909152604082015260600190565b600082516141e881846020870161381a565b919091019291505056fe52c63247e1f47db19d5ce0460030c497f067ca4cebf71ba98eeadabe20bace00cd5ed15c6e187e77e9aee88184c21f4f2182ab5827cb3b7e07fbedcd63f033009b779b17422d0df92223018b32b4d1fa46e071723d6817e2486d003becc55f00a264697066735822122076a2b4ee3409c152ec13a2e6e9cf7f7da86d9dc8935eac9babb5cc7d3360684364736f6c63430008180033",
  "devdoc": {
    "errors": {
      "ERC20InsufficientAllowance(address,uint256,uint256)": [
        {
          "details": "Indicates a failure with the `spender`s `allowance`. Used in transfers.",
          "params": {
            "allowance": "Amount of tokens a `spender` is allowed to operate with.",
            "needed": "Minimum amount required to perform a transfer.",
            "spender": "Address that may be allowed to operate on tokens without being their owner."
          }
        }
      ],
      "ERC20InsufficientBalance(address,uint256,uint256)": [
        {
          "details": "Indicates an error related to the current `balance` of a `sender`. Used in transfers.",
          "params": {
            "balance": "Current balance for the interacting account.",
            "needed": "Minimum amount required to perform a transfer.",
            "sender": "Address whose tokens are being transferred."
          }
        }
      ],
      "ERC20InvalidApprover(address)": [
        {
          "details": "Indicates a failure with the `approver` of a token to be approved. Used in approvals.",
          "params": {
            "approver": "Address initiating an approval operation."
          }
        }
      ],
      "ERC20InvalidReceiver(address)": [
        {
          "details": "Indicates a failure with the token `receiver`. Used in transfers.",
          "params": {
            "receiver": "Address to which tokens are being transferred."
          }
        }
      ],
      "ERC20InvalidSender(address)": [
        {
          "details": "Indicates a failure with the token `sender`. Used in transfers.",
          "params": {
            "sender": "Address whose tokens are being transferred."
          }
        }
      ],
      "ERC20InvalidSpender(address)": [
        {
          "details": "Indicates a failure with the `spender` to be approved. Used in approvals.",
          "params": {
            "spender": "Address that may be allowed to operate on tokens without being their owner."
          }
        }
      ],
      "ERC4626ExceededMaxDeposit(address,uint256,uint256)": [
        {
          "details": "Attempted to deposit more assets than the max amount for `receiver`."
        }
      ],
      "ERC4626ExceededMaxMint(address,uint256,uint256)": [
        {
          "details": "Attempted to mint more shares than the max amount for `receiver`."
        }
      ],
      "ERC4626ExceededMaxRedeem(address,uint256,uint256)": [
        {
          "details": "Attempted to redeem more shares than the max amount for `receiver`."
        }
      ],
      "ERC4626ExceededMaxWithdraw(address,uint256,uint256)": [
        {
          "details": "Attempted to withdraw more assets than the max amount for `receiver`."
        }
      ],
      "EnforcedPause()": [
        {
          "details": "The operation failed because the contract is paused."
        }
      ],
      "ExpectedPause()": [
        {
          "details": "The operation failed because the contract is not paused."
        }
      ],
      "InvalidInitialization()": [
        {
          "details": "The contract is already initialized."
        }
      ],
      "NotInitializing()": [
        {
          "details": "The contract is not initializing."
        }
      ],
      "OwnableInvalidOwner(address)": [
        {
          "details": "The owner is not a valid owner account. (eg. `address(0)`)"
        }
      ],
      "OwnableUnauthorizedAccount(address)": [
        {
          "details": "The caller account is not authorized to perform an operation."
        }
      ],
      "ReentrancyGuardReentrantCall()": [
        {
          "details": "Unauthorized reentrant call."
        }
      ],
      "SafeERC20FailedOperation(address)": [
        {
          "details": "An operation with an ERC-20 token failed."
        }
      ]
    },
    "events": {
      "Approval(address,address,uint256)": {
        "details": "Emitted when the allowance of a `spender` for an `owner` is set by a call to {approve}. `value` is the new allowance."
      },
      "Initialized(uint64)": {
        "details": "Triggered when the contract has been initialized or reinitialized."
      },
      "Paused(address)": {
        "details": "Emitted when the pause is triggered by `account`."
      },
      "Transfer(address,address,uint256)": {
        "details": "Emitted when `value` tokens are moved from one account (`from`) to another (`to`). Note that `value` may be zero."
      },
      "Unpaused(address)": {
        "details": "Emitted when the pause is lifted by `account`."
      }
    },
    "kind": "dev",
    "methods": {
      "allowance(address,address)": {
        "details": "Returns the remaining number of tokens that `spender` will be allowed to spend on behalf of `owner` through {transferFrom}. This is zero by default. This value changes when {approve} or {transferFrom} are called."
      },
      "approve(address,uint256)": {
        "details": "See {IERC20-approve}. NOTE: If `value` is the maximum `uint256`, the allowance is not updated on `transferFrom`. This is semantically equivalent to an infinite approval. Requirements: - `spender` cannot be the zero address."
      },
      "asset()": {
        "details": "Returns the address of the underlying token used for the Vault for accounting, depositing, and withdrawing. - MUST be an ERC-20 token contract. - MUST NOT revert."
      },
      "balanceOf(address)": {
        "details": "Returns the value of tokens owned by `account`."
      },
      "convertToAssets(uint256)": {
        "details": "Returns the amount of assets that the Vault would exchange for the amount of shares provided, in an ideal scenario where all the conditions are met. - MUST NOT be inclusive of any fees that are charged against assets in the Vault. - MUST NOT show any variations depending on the caller. - MUST NOT reflect slippage or other on-chain conditions, when performing the actual exchange. - MUST NOT revert. NOTE: This calculation MAY NOT reflect the per-user price-per-share, and instead should reflect the average-users price-per-share, meaning what the average user should expect to see when exchanging to and from."
      },
      "convertToShares(uint256)": {
        "details": "Returns the amount of shares that the Vault would exchange for the amount of assets provided, in an ideal scenario where all the conditions are met. - MUST NOT be inclusive of any fees that are charged against assets in the Vault. - MUST NOT show any variations depending on the caller. - MUST NOT reflect slippage or other on-chain conditions, when performing the actual exchange. - MUST NOT revert. NOTE: This calculation MAY NOT reflect the per-user price-per-share, and instead should reflect the average-users price-per-share, meaning what the average user should expect to see when exchanging to and from."
      },
      "decimals()": {
        "details": "Decimals are computed by adding the decimal offset on top of the underlying asset's decimals. This \"original\" value is cached during construction of the vault contract. If this read operation fails (e.g., the asset has not been created yet), a default of 18 is used to represent the underlying asset's decimals. See {IERC20Metadata-decimals}."
      },
      "deposit(uint256,address)": {
        "details": "Mints shares Vault shares to receiver by depositing exactly amount of underlying tokens. - MUST emit the Deposit event. - MAY support an additional flow in which the underlying tokens are owned by the Vault contract before the   deposit execution, and are accounted for during deposit. - MUST revert if all of assets cannot be deposited (due to deposit limit being reached, slippage, the user not   approving enough underlying tokens to the Vault contract, etc). NOTE: most implementations will require pre-approval of the Vault with the Vaults underlying asset token."
      },
      "maxDeposit(address)": {
        "details": "Returns the maximum amount of the underlying asset that can be deposited into the Vault for the receiver, through a deposit call. - MUST return a limited value if receiver is subject to some deposit limit. - MUST return 2 ** 256 - 1 if there is no limit on the maximum amount of assets that may be deposited. - MUST NOT revert."
      },
      "maxMint(address)": {
        "details": "Returns the maximum amount of the Vault shares that can be minted for the receiver, through a mint call. - MUST return a limited value if receiver is subject to some mint limit. - MUST return 2 ** 256 - 1 if there is no limit on the maximum amount of shares that may be minted. - MUST NOT revert."
      },
      "maxRedeem(address)": {
        "details": "Returns the maximum amount of Vault shares that can be redeemed from the owner balance in the Vault, through a redeem call. - MUST return a limited value if owner is subject to some withdrawal limit or timelock. - MUST return balanceOf(owner) if owner is not subject to any withdrawal limit or timelock. - MUST NOT revert."
      },
      "maxWithdraw(address)": {
        "details": "Returns the maximum amount of the underlying asset that can be withdrawn from the owner balance in the Vault, through a withdraw call. - MUST return a limited value if owner is subject to some withdrawal limit or timelock. - MUST NOT revert."
      },
      "mint(uint256,address)": {
        "details": "Mints exactly shares Vault shares to receiver by depositing amount of underlying tokens. - MUST emit the Deposit event. - MAY support an additional flow in which the underlying tokens are owned by the Vault contract before the mint   execution, and are accounted for during mint. - MUST revert if all of shares cannot be minted (due to deposit limit being reached, slippage, the user not   approving enough underlying tokens to the Vault contract, etc). NOTE: most implementations will require pre-approval of the Vault with the Vaults underlying asset token."
      },
      "name()": {
        "details": "Returns the name of the token."
      },
      "owner()": {
        "details": "Returns the address of the current owner."
      },
      "paused()": {
        "details": "Returns true if the contract is paused, and false otherwise."
      },
      "previewDeposit(uint256)": {
        "details": "Allows an on-chain or off-chain user to simulate the effects of their deposit at the current block, given current on-chain conditions. - MUST return as close to and no more than the exact amount of Vault shares that would be minted in a deposit   call in the same transaction. I.e. deposit should return the same or more shares as previewDeposit if called   in the same transaction. - MUST NOT account for deposit limits like those returned from maxDeposit and should always act as though the   deposit would be accepted, regardless if the user has enough tokens approved, etc. - MUST be inclusive of deposit fees. Integrators should be aware of the existence of deposit fees. - MUST NOT revert. NOTE: any unfavorable discrepancy between convertToShares and previewDeposit SHOULD be considered slippage in share price or some other type of condition, meaning the depositor will lose assets by depositing."
      },
      "previewMint(uint256)": {
        "details": "Allows an on-chain or off-chain user to simulate the effects of their mint at the current block, given current on-chain conditions. - MUST return as close to and no fewer than the exact amount of assets that would be deposited in a mint call   in the same transaction. I.e. mint should return the same or fewer assets as previewMint if called in the   same transaction. - MUST NOT account for mint limits like those returned from maxMint and should always act as though the mint   would be accepted, regardless if the user has enough tokens approved, etc. - MUST be inclusive of deposit fees. Integrators should be aware of the existence of deposit fees. - MUST NOT revert. NOTE: any unfavorable discrepancy between convertToAssets and previewMint SHOULD be considered slippage in share price or some other type of condition, meaning the depositor will lose assets by minting."
      },
      "previewRedeem(uint256)": {
        "details": "Allows an on-chain or off-chain user to simulate the effects of their redemption at the current block, given current on-chain conditions. - MUST return as close to and no more than the exact amount of assets that would be withdrawn in a redeem call   in the same transaction. I.e. redeem should return the same or more assets as previewRedeem if called in the   same transaction. - MUST NOT account for redemption limits like those returned from maxRedeem and should always act as though the   redemption would be accepted, regardless if the user has enough shares, etc. - MUST be inclusive of withdrawal fees. Integrators should be aware of the existence of withdrawal fees. - MUST NOT revert. NOTE: any unfavorable discrepancy between convertToAssets and previewRedeem SHOULD be considered slippage in share price or some other type of condition, meaning the depositor will lose assets by redeeming."
      },
      "previewWithdraw(uint256)": {
        "details": "Allows an on-chain or off-chain user to simulate the effects of their withdrawal at the current block, given current on-chain conditions. - MUST return as close to and no fewer than the exact amount of Vault shares that would be burned in a withdraw   call in the same transaction. I.e. withdraw should return the same or fewer shares as previewWithdraw if   called   in the same transaction. - MUST NOT account for withdrawal limits like those returned from maxWithdraw and should always act as though   the withdrawal would be accepted, regardless if the user has enough shares, etc. - MUST be inclusive of withdrawal fees. Integrators should be aware of the existence of withdrawal fees. - MUST NOT revert. NOTE: any unfavorable discrepancy between convertToShares and previewWithdraw SHOULD be considered slippage in share price or some other type of condition, meaning the depositor will lose assets by depositing."
      },
      "redeem(uint256,address,address)": {
        "details": "Burns exactly shares from owner and sends assets of underlying tokens to receiver. - MUST emit the Withdraw event. - MAY support an additional flow in which the underlying tokens are owned by the Vault contract before the   redeem execution, and are accounted for during redeem. - MUST revert if all of shares cannot be redeemed (due to withdrawal limit being reached, slippage, the owner   not having enough shares, etc). NOTE: some implementations will require pre-requesting to the Vault before a withdrawal may be performed. Those methods should be performed separately."
      },
      "renounceOwnership()": {
        "details": "Leaves the contract without owner. It will not be possible to call `onlyOwner` functions. Can only be called by the current owner. NOTE: Renouncing ownership will leave the contract without an owner, thereby disabling any functionality that is only available to the owner."
      },
      "supportsInterface(bytes4)": {
        "details": "Returns true if this contract implements the interface defined by `interfaceId`. See the corresponding https://eips.ethereum.org/EIPS/eip-165#how-interfaces-are-identified[ERC section] to learn more about how these ids are created. This function call must use less than 30 000 gas."
      },
      "symbol()": {
        "details": "Returns the symbol of the token, usually a shorter version of the name."
      },
      "totalAssets()": {
        "details": "Returns the total amount of the underlying asset that is managed by Vault. - SHOULD include any compounding that occurs from yield. - MUST be inclusive of any fees that are charged against assets in the Vault. - MUST NOT revert."
      },
      "totalSupply()": {
        "details": "Returns the value of tokens in existence."
      },
      "transfer(address,uint256)": {
        "details": "See {IERC20-transfer}. Requirements: - `to` cannot be the zero address. - the caller must have a balance of at least `value`."
      },
      "transferFrom(address,address,uint256)": {
        "details": "See {IERC20-transferFrom}. Skips emitting an {Approval} event indicating an allowance update. This is not required by the ERC. See {xref-ERC20-_approve-address-address-uint256-bool-}[_approve]. NOTE: Does not update the allowance if the current allowance is the maximum `uint256`. Requirements: - `from` and `to` cannot be the zero address. - `from` must have a balance of at least `value`. - the caller must have allowance for ``from``'s tokens of at least `value`."
      },
      "transferOwnership(address)": {
        "details": "Transfers ownership of the contract to a new account (`newOwner`). Can only be called by the current owner."
      },
      "withdraw(uint256,address,address)": {
        "details": "Burns shares from owner and sends exactly assets of underlying tokens to receiver. - MUST emit the Withdraw event. - MAY support an additional flow in which the underlying tokens are owned by the Vault contract before the   withdraw execution, and are accounted for during withdraw. - MUST revert if all of assets cannot be withdrawn (due to withdrawal limit being reached, slippage, the owner   not having enough shares, etc). Note that some implementations will require pre-requesting to the Vault before a withdrawal may be performed. Those methods should be performed separately."
      }
    },
    "version": 1
  },
  "userdoc": {
    "errors": {
      "EthNotSent()": [
        {
          "notice": "Thrown when PHRS is not sent"
        }
      ],
      "EthTransferFailed()": [
        {
          "notice": "Thrown when PHRS transfer failed"
        }
      ],
      "ExceedMaxWithdrawCount(uint256)": [
        {
          "notice": "Throws if the withdraw count is greater than the max withdraw count"
        }
      ],
      "ExceedPermittedAmount(uint256,uint256)": [
        {
          "notice": "Throws if the token amount is greater than the pending amount"
        }
      ],
      "InvalidDataParameter(address,address)": [
        {
          "notice": "Throws if the data parameter is invalid (last 20 bytes must be bridgeVault address)"
        }
      ],
      "NotRoleAdmin(address)": [
        {
          "notice": "Throws if the caller is not a role admin"
        }
      ],
      "NotTriggerAddress(address)": [
        {
          "notice": "Throws if the caller is not the trigger address"
        }
      ]
    },
    "events": {
      "AsyncMintCompleted(uint256,uint256)": {
        "notice": "Emitted when async mint operation is completed"
      },
      "AsyncRedeemCompleted(uint256)": {
        "notice": "Emitted when async redeem operation is completed"
      },
      "BifrostDestChanged(bytes,bytes)": {
        "notice": "Emitted when Bifrost destination is changed"
      },
      "BridgeVaultChanged(address,address)": {
        "notice": "Emitted when BridgeVault contract is changed"
      },
      "CurrentCycleTokenAmountIncreased(uint256,uint256,uint256)": {
        "notice": "Emitted when current cycle minted VToken amount is increased"
      },
      "EthReceived(address,uint256)": {
        "notice": "Emitted when PHRS is received"
      },
      "MaxWithdrawCountChanged(uint256)": {
        "notice": "Emitted when max withdraw count is changed"
      },
      "OracleChanged(address,address)": {
        "notice": "Emitted when Oracle contract is changed"
      },
      "RoleAdminChanged(address,bool)": {
        "notice": "Emitted when role admin is changed"
      },
      "TokenGatewayChanged(address,address)": {
        "notice": "Emitted when TokenGateway contract is changed"
      },
      "TriggerAddressChanged(address,address)": {
        "notice": "Emitted when trigger address is changed"
      },
      "WithdrawalCompleted(address,uint256)": {
        "notice": "Emitted when a claim is successfully processed"
      },
      "WithdrawalCompletedTo(address,address,uint256)": {
        "notice": "Emitted when a claim is successfully processed"
      }
    },
    "kind": "user",
    "methods": {
      "bifrostDest()": {
        "notice": "Bifrost destination"
      },
      "bridgeVault()": {
        "notice": "Bridge vault"
      },
      "completedWithdrawal()": {
        "notice": "Completed claim amount"
      },
      "currentCycleMintTokenAmount()": {
        "notice": "Current cycle minted Token amount"
      },
      "currentCycleMintVTokenAmount()": {
        "notice": "Current cycle minted VToken amount"
      },
      "currentCycleRedeemVTokenAmount()": {
        "notice": "Current cycle redeemed Token amount"
      },
      "initialize(address,address,string,string)": {
        "notice": "Override initialize to include reentrancy guard (for new deployments)"
      },
      "maxWithdrawCount()": {
        "notice": "Max withdraw count"
      },
      "oracle()": {
        "notice": "Oracle"
      },
      "queuedWithdrawal()": {
        "notice": "Queued claim amount"
      },
      "rolesAdmin(address)": {
        "notice": "mapping of admins of defined roles"
      },
      "tokenGateway()": {
        "notice": "Token gateway"
      },
      "triggerAddress()": {
        "notice": "Trigger address"
      },
      "withdrawals(address,uint256)": {
        "notice": "Withdraw queue mapping"
      }
    },
    "version": 1
  },
  "storageLayout": {
    "storage": [
      {
        "astId": 9900,
        "contract": "contracts/stPROS.sol:stPROS",
        "label": "rolesAdmin",
        "offset": 0,
        "slot": "0",
        "type": "t_mapping(t_address,t_bool)"
      },
      {
        "astId": 9904,
        "contract": "contracts/stPROS.sol:stPROS",
        "label": "tokenGateway",
        "offset": 0,
        "slot": "1",
        "type": "t_contract(ITokenGateway)11456"
      },
      {
        "astId": 9908,
        "contract": "contracts/stPROS.sol:stPROS",
        "label": "bridgeVault",
        "offset": 0,
        "slot": "2",
        "type": "t_contract(BridgeVault)9306"
      },
      {
        "astId": 9912,
        "contract": "contracts/stPROS.sol:stPROS",
        "label": "oracle",
        "offset": 0,
        "slot": "3",
        "type": "t_contract(Oracle)9810"
      },
      {
        "astId": 9915,
        "contract": "contracts/stPROS.sol:stPROS",
        "label": "triggerAddress",
        "offset": 0,
        "slot": "4",
        "type": "t_address"
      },
      {
        "astId": 9918,
        "contract": "contracts/stPROS.sol:stPROS",
        "label": "bifrostDest",
        "offset": 0,
        "slot": "5",
        "type": "t_bytes_storage"
      },
      {
        "astId": 9921,
        "contract": "contracts/stPROS.sol:stPROS",
        "label": "currentCycleMintVTokenAmount",
        "offset": 0,
        "slot": "6",
        "type": "t_uint256"
      },
      {
        "astId": 9924,
        "contract": "contracts/stPROS.sol:stPROS",
        "label": "currentCycleMintTokenAmount",
        "offset": 0,
        "slot": "7",
        "type": "t_uint256"
      },
      {
        "astId": 9927,
        "contract": "contracts/stPROS.sol:stPROS",
        "label": "currentCycleRedeemVTokenAmount",
        "offset": 0,
        "slot": "8",
        "type": "t_uint256"
      },
      {
        "astId": 9930,
        "contract": "contracts/stPROS.sol:stPROS",
        "label": "queuedWithdrawal",
        "offset": 0,
        "slot": "9",
        "type": "t_uint256"
      },
      {
        "astId": 9933,
        "contract": "contracts/stPROS.sol:stPROS",
        "label": "completedWithdrawal",
        "offset": 0,
        "slot": "10",
        "type": "t_uint256"
      },
      {
        "astId": 9940,
        "contract": "contracts/stPROS.sol:stPROS",
        "label": "withdrawals",
        "offset": 0,
        "slot": "11",
        "type": "t_mapping(t_address,t_array(t_struct(Withdrawal)9891_storage)dyn_storage)"
      },
      {
        "astId": 9943,
        "contract": "contracts/stPROS.sol:stPROS",
        "label": "maxWithdrawCount",
        "offset": 0,
        "slot": "12",
        "type": "t_uint256"
      }
    ],
    "types": {
      "t_address": {
        "encoding": "inplace",
        "label": "address",
        "numberOfBytes": "20"
      },
      "t_array(t_struct(Withdrawal)9891_storage)dyn_storage": {
        "base": "t_struct(Withdrawal)9891_storage",
        "encoding": "dynamic_array",
        "label": "struct VTokenBase.Withdrawal[]",
        "numberOfBytes": "32"
      },
      "t_bool": {
        "encoding": "inplace",
        "label": "bool",
        "numberOfBytes": "1"
      },
      "t_bytes_storage": {
        "encoding": "bytes",
        "label": "bytes",
        "numberOfBytes": "32"
      },
      "t_contract(BridgeVault)9306": {
        "encoding": "inplace",
        "label": "contract BridgeVault",
        "numberOfBytes": "20"
      },
      "t_contract(ITokenGateway)11456": {
        "encoding": "inplace",
        "label": "contract ITokenGateway",
        "numberOfBytes": "20"
      },
      "t_contract(Oracle)9810": {
        "encoding": "inplace",
        "label": "contract Oracle",
        "numberOfBytes": "20"
      },
      "t_mapping(t_address,t_array(t_struct(Withdrawal)9891_storage)dyn_storage)": {
        "encoding": "mapping",
        "key": "t_address",
        "label": "mapping(address => struct VTokenBase.Withdrawal[])",
        "numberOfBytes": "32",
        "value": "t_array(t_struct(Withdrawal)9891_storage)dyn_storage"
      },
      "t_mapping(t_address,t_bool)": {
        "encoding": "mapping",
        "key": "t_address",
        "label": "mapping(address => bool)",
        "numberOfBytes": "32",
        "value": "t_bool"
      },
      "t_struct(Withdrawal)9891_storage": {
        "encoding": "inplace",
        "label": "struct VTokenBase.Withdrawal",
        "members": [
          {
            "astId": 9888,
            "contract": "contracts/stPROS.sol:stPROS",
            "label": "queued",
            "offset": 0,
            "slot": "0",
            "type": "t_uint256"
          },
          {
            "astId": 9890,
            "contract": "contracts/stPROS.sol:stPROS",
            "label": "pending",
            "offset": 0,
            "slot": "1",
            "type": "t_uint256"
          }
        ],
        "numberOfBytes": "64"
      },
      "t_uint256": {
        "encoding": "inplace",
        "label": "uint256",
        "numberOfBytes": "32"
      }
    }
  }
}